:020000040800F2
:10640000A02C0020656900086D6900086F6900080C
:1064100071690008736900087569000800000000D0
:106420000000000000000000000000007769000884
:1064300079690008000000007B69000819810008E4
:106440007F6900087F6900087F6900087F6900088C
:106450007F6900087F690008B99600087F69000815
:106460007F6900087F6900087F6900087F6900086C
:106470007F6900087F6900087F6900087F6900085C
:106480007F6900087F6900087F6900087F6900084C
:106490007F6900087F6900087F6900087F6900083C
:1064A0007F6900087F6900087F6900087F6900082C
:1064B0000D9600087F6900087F6900087F69000861
:1064C0007F6900087F6900087F6900087F6900080C
:1064D0007F690008698200087F6900087F690008F9
:1064E000757A00087F6900087F6900087F690008E5
:1064F0007F69000800F002F800F05AF80AA090E85E
:10650000000C82448344AAF10107DA4501D100F06E
:106510004FF8AFF2090EBAE80F0013F0010F18BFE1
:10652000FB1A43F001031847D8B00000F8B0000090
:106530000A444FF0000C10F8013B13F0070408BFA9
:1065400010F8014B1D1108BF10F8015B641E05D047
:1065500010F8016B641E01F8016BF9D113F0080FFC
:106560001EBF10F8014BAD1C0C1B09D16D1E58BF8E
:1065700001F801CBFAD505E014F8016B01F8016BC5
:106580006D1EF9D59142D6D3704700000023002438
:1065900000250026103A28BF78C1FBD8520728BF33
:1065A00030C148BF0B6070471FB51FBD10B510BD8F
:1065B00009F042FC1146FFF7F7FF02F0F1F909F08C
:1065C00060FC03B4FFF7F2FF03BC09F067FC0000B6
:1065D00072B6704762B6704730BF72B662B680F36B
:1065E0000888704780F310887047EFF3108072B608
:1065F000704700000EB50020029001900090CE4838
:10660000006840F48030CC49086000BFCA48006888
:1066100000F4003001900298401C0290019818B9D3
:106620000298B0F5A04FF1D1C348006800F40030E3
:1066300010B10120019001E0002001900198012893
:106640005AD1BE48006840F00400BC4908600846C2
:10665000006840F0020008600846006840F0010051
:106660000860B5482430006840F08050B2492431B9
:106670000860C814B249086000BFB148406800F023
:1066800010000028F9D1AC4808300068AA49083148
:106690000860084600680860084600680860084608
:1066A000006820F47D0008600846006840F411008E
:1066B0000860A148006840F080709F49086000BFF2
:1066C0009D48006800F000700028F9D09A48083012
:1066D000006820F003009849083108600846006807
:1066E00040F00300086000BF93480830006800F0E5
:1066F0000C000C28F8D187E08F48006820F4803027
:106700008D4908600846006840F0010008600020DC
:10671000029000BF8848006800F0020000900298D4
:10672000401C0290009818B90298B0F5A04FF1D122
:106730008148006800F0020010B10120009001E0E3
:1067400000200090009801285ED17C48006840F04D
:1067500004007A4908600846006840F002000860BA
:106760000846006840F00100086073482430006863
:1067700040F08050704924310860C81470490860A6
:1067800000BF6F48406800F010000028F9D16A4847
:1067900008300068684908310860084600680860E9
:1067A0000846006808600846006820F47D0008601C
:1067B0000846006820F4803008600846006840F40D
:1067C000080008605C48006840F080705A49086022
:1067D00000BF5948006800F000700028F9D0564802
:1067E0000830006820F0030053490831086008466B
:1067F000006840F00300086000BF4F4808300068A0
:1068000000F00C000C28F8D10EBD10B54A48006805
:1068100040F480704849086047480830006849499A
:106820000840454908310860434800684649084027
:10683000414908600846006820F4802008603E480E
:106840000830006820F47D003B49083108600020D2
:10685000091D0860FFF7CEFE3C4800683C4908600F
:1068600010BD2DE9F04105460A460026002300240C
:106870009C460027002130480830006800F00C06D4
:1068800036B1042E11D0082E11D00C2E38D110E0C4
:106890002948001D0068C0F34237781C4FF00108FA
:1068A00008FA00F84FEAC83137E02A4935E02A49AA
:1068B00033E021480830006800F470131E480830A7
:1068C000006800F44004254800EB93400378012061
:1068D00000EB945418480830006800F4803CBCF188
:1068E000000F06D11B485843B0FBF4F10020107094
:1068F00005E019485843B0FBF4F1012010700CE09A
:106900000D48001D0068C0F34237781C4FF00108A5
:1069100008FA00F84FEAC83100BF00BF0648083047
:106920000068C0F30310DFF8388018F80060F14009
:1069300029600120BDE8F08100380240003C02409F
:10694000007000400CC0FF88FEFFFEEE90030008C0
:1069500008ED00E00024F40000127A00000000209E
:10696000090000200948804709480047FEE7FEE784
:10697000FEE7FEE7FEE7FEE7FEE7FEE7FEE7FEE7EF
:1069800004480549034A054B704700000B6800089E
:10699000F5640008A0200020A02C0020A0200020EA
:1069A000704700004A48006800F0010028B14948DB
:1069B00047490831086048480860704700B54448B6
:1069C000006800F0020038B1FFF7ECFF434840498F
:1069D0000C3108604248086000BD3D48006840F046
:1069E00002003B490860704739481430006800F0E5
:1069F000020028B102203649143108600120704796
:106A00000020FCE7014600E0491E31B13048143057
:106A1000006800F001000028F6D109B90320704792
:106A20002B481430006800F4F85030B14FF4F8509F
:106A3000274A143210600120F1E70020EFE770B51B
:106A400004464FF40050FFF7DDFF0546E5B9204846
:106A5000006840F400701E4908600846006840F075
:106A600008000860002020604FF40050FFF7CAFFC4
:106A700005461748006820F00800154908600846D8
:106A8000006820F40070086015B9FFF7ADFF70BD15
:106A90000020FCE770B505460C4616464FF4405002
:106AA000FFF7B0FF70B90AE030682860361D2D1D71
:106AB000241F4FF44050FFF7A5FF00B101E0002C68
:106AC000F2DC00BF0CB9012070BD0020FCE7000023
:106AD000043C0240EFCDAB8905040302BFAE9D8CA0
:106AE00016151413F0B504460B46494D05EB8420EA
:106AF000484D2D680126A6403543464E356000219D
:106B000035E003F0010585B305684F000326BE405C
:106B1000B5430560868801258D40AE438680856833
:106B20004F000326BE40B5438560C5684F0003266D
:106B3000BE40B543C56095094E00B5400668354373
:106B400005608688C2F300158D402E4386808568D7
:106B50004F00C2F38106BE403543856002F0030555
:106B60004E00B540C6683543C5605B10491C002B1C
:106B7000C7DCF0BDF0B503461446254D05EB832276
:106B8000002022E001F00105EDB1C60802F1200568
:106B900055F826504607F70E0F26BE40B543C708E6
:106BA00002F1200646F82750C60802F1200555F8E4
:106BB00026504607F60E04FA06F63543C70802F1DA
:106BC000200646F827504910401C0029DADCF0BDA9
:106BD00002460B460E4800EB8221888A18438882C1
:106BE000888A70470A4B03EB8022938A8B439382F7
:106BF0007047074B03EB8022938A4B409382704788
:106C00000246034800EB8223188A084070470000C0
:106C1000000002401C380240002107E0052101E08D
:106C20004A1E91B20029FBDC421E90B20028F5DC1E
:106C3000704710B54D224FF440710120FFF752FF0D
:106C40004FF440710120FFF7C3FF10BD10B54FF4A2
:106C500000710120FFF7BCFF4FF480710120FFF7A6
:106C6000B7FF0220FFF7D8FF4FF400710120FFF7B4
:106C7000B9FF0220FFF7D0FF4FF480710120FFF72A
:106C8000B1FF10BD10B54FF400710120FFF7AAFF4E
:106C90000220FFF7C1FF4FF480710120FFF798FF3A
:106CA0000220FFF7B9FF4FF400710120FFF790FFBA
:106CB0000220FFF7B1FF10BD10B504464FF48071FC
:106CC0000120FFF78FFF0220FFF7A6FF2CB14FF442
:106CD00000710120FFF77CFF04E04FF400710120F8
:106CE000FFF780FF0220FFF797FF4FF4807101202C
:106CF000FFF76EFF0220FFF78FFF4FF48071012036
:106D0000FFF770FF10BD10B500240122510210469C
:106D1000FFF7E8FE4FF400710120FFF759FF022052
:106D2000FFF77AFF4FF480710120FFF751FF022037
:106D3000FFF772FF12E0601C80B20446B0F5FA7FE4
:106D40000CDD4D224FF400710120FFF7CBFE4FF414
:106D500000710120FFF73CFF002010BD4FF40071CF
:106D60000120FFF74DFF0028E5D14FF4807101208D
:106D7000FFF738FF0220FFF74FFF4D224FF400715D
:106D80000120FFF7AFFE4FF400710120FFF720FF55
:106D90000220FFF741FF0120DFE770B504464FF402
:106DA00080710120FFF71EFF0220FFF735FF00254D
:106DB00024E004F0800028B14FF400710120FFF7B7
:106DC00007FF04E04FF400710120FFF70BFF60069E
:106DD000040E0220FFF720FF4FF480710120FFF71F
:106DE000F7FE0220FFF718FF4FF480710120FFF734
:106DF000F9FE0220FFF710FF681CC5B2082DD8DB92
:106E0000FFF781FF70BD70B50646002401225102D4
:106E10001046FFF767FE4FF400710120FFF7D8FE20
:106E200000251EE04FF480710120FFF7DBFE0220F9
:106E3000FFF7F2FE4FF480710120FFF7C9FE022038
:106E4000FFF7EAFE6006040E4FF400710120FFF721
:106E5000D7FE08B1601CC4B20220FFF7DDFE681C3B
:106E6000C5B2082DDEDB4FF480710120FFF7BAFEBA
:106E70000220FFF7D1FE4D224FF400710120FFF7F1
:106E800031FE4FF400710120FFF7A2FE0220FFF750
:106E9000C3FE3046FFF710FF204670BD70B50546B3
:106EA0000C4600BFFFF7D2FE2846FFF776FF10B969
:106EB000601E041EF6D1FFF7E5FE0CB1012070BD87
:106EC0000020FCE72DE9F04107460E4615461C461A
:106ED000FFF7BCFE3846FFF760FFF0B13012FFF756
:106EE0005CFFD0B1F0B2FFF758FFB0B1FFF7AEFED4
:106EF00047F00100FFF751FF78B106E00020FFF7EF
:106F000082FF05F8010B601EC4B2012CF6DC601E86
:106F1000C4B20120FFF777FF2870FFF7B3FE14B962
:106F20000120BDE8F0810020FBE72DE9F041074694
:106F30000D4616461C46FFF789FE3846FFF72DFF23
:106F400098B12812FFF729FF78B1E8B2FFF725FFC3
:106F500058B107E016F8010BFFF71FFF00B903E077
:106F6000601EC4B2002CF5DC00BFFFF78BFE14B925
:106F70000120BDE8F0810020FBE72DE9F041074644
:106F80000D4616461C46FFF761FE3846FFF705FF23
:106F900090B12812FFF701FF70B1E8B2FFF7FDFED4
:106FA00050B106E03046FFF7F8FE00B903E0601E7E
:106FB000C4B2002CF6DC00BFFFF764FE14B9012058
:106FC000BDE8F0810020FBE710B504210020FFF7A9
:106FD000FFFD10BD10B504210020FFF703FE0F4B8D
:106FE00002220021084605F0F9F810BD10B5442230
:106FF00004210020FFF776FDAFF22703FA221021CB
:10700000012005F0EBF810BD10B5AFF23703642294
:107010001421012005F0E2F810BD0000C96F00083E
:1070200070B505460C464FF480707D490860FFF747
:10703000C5FC03E0A4F5807405F580752846FFF7CC
:10704000FEFC012802D1B4F5807FF3D8FFF7C5FC20
:10705000B4F5807F01D8012070BD0020FCE72DE948
:10706000F04106460C46174604F0030010B124F028
:107070000304241DFFF7A2FC3A4621463046FFF7E1
:1070800009FD0546FFF7A9FC2846BDE8F081034647
:1070900004E018681060121D1B1D091F0029F8D19B
:1070A000012070472DE9F04FC1B080460D46924651
:1070B00005F0030010B125F003052D1DFFF77EFC40
:1070C000B8F1006F02D35748804503D3002041B088
:1070D000BDE8F08FA8F1006B4FEA1B260BF0FF090B
:1070E000C9F58074A54200D8ACB249E04FF0006108
:1070F00001EB06206A46C914FFF7C9FF002707E025
:1071000009EB07001DF8000000B103E0781C87B20E
:10711000A742F5DB00BFA7421CDA4FF0006101EB8C
:107120000620FFF78CFC4090002707E01AF80700C4
:1071300007EB09010DF80100781C87B2A742F5DBC7
:107140004FF0006101EB06206A46C914FFF7A2FC6C
:10715000409005E0524621464046FFF79BFC409098
:10716000A54200D10DE0761C4FF00009A244A044D6
:107170002D1BB5F5807F02D94FF4807400E0ACB2CE
:10718000B4E700BFFFF729FC4098A0E71CB52649EB
:1071900003C9CDE900012548006840F48050234927
:1071A00008602348806840F0010021498860084653
:1071B000007940F0FF0008711E4800681E498842AF
:1071C0001AD01C49083908681949896841F0010139
:1071D000174A91601949096D11601849496D11608C
:1071E0001649496E116011460860096801916A46A6
:1071F00008211048FFF756FF1CBD1049096D0160BA
:107200000E49496D41600D49496E8160704700200B
:1072100070474FF48070704708484C3000887047C2
:10722000183C024000000608BC0401081C3802405B
:10723000003002403C040008A542BD5A0000F81F7F
:1072400008B1012100E00021FE4A11707047FE489C
:107250007047FE480078704770B505460C464FF4FD
:1072600080510120FFF7BEFC284600F0B7FC204605
:1072700000F0B4FC06464FF480510120FFF7A8FC53
:10728000304670BD10B5F248006820F48060F049C7
:1072900008604422C9140120FFF724FC44224FF463
:1072A00080510120FFF71EFC00224FF48061012075
:1072B000FFF718FC002202210120FFF713FC4FF416
:1072C00080610120FFF784FC02210120FFF780FC90
:1072D00044224FF400710220FFF704FC4FF40071C8
:1072E0000220FFF775FC00F0A4FC042000F0E8FC8D
:1072F00010BD0120D7490870704710B505218720BF
:10730000FFF7AAFF02218E20FFF7A6FF02218820A7
:10731000FFF7A2FF00218820FFF79EFF13218520A1
:10732000FFF79AFF80218620FFF796FF00210320B8
:10733000FFF792FF00210420FFF78EFFC44800688A
:1073400040F48060C249086010BD10B5C0480068B4
:1073500020F48060BE49086000218E20FFF77CFF8A
:1073600001218720FFF778FF00218520FFF774FFB8
:1073700000218620FFF770FF00210320FFF76CFF3C
:1073800000210420FFF768FF022003F031FE10BD4A
:1073900010B50446B04A2146022003F0EBFE10BDB2
:1073A00010B500212620FFF757FF0446AB480078B0
:1073B000A04203DAA9480078201A02E0A748007822
:1073C000001B08284EDA6410A448007804EB600023
:1073D000A24908700846C078401CC0B2C870142882
:1073E00060DD084600780A2803DB08460078DC28C0
:1073F00003DD0420FFF7CCFF30E09848007814301C
:107400009249087008460178A720FFF725FF9448A5
:107410000068F8B100F075FE91490968884205D20C
:1074200000F06FFE8E490968081A04E000F069FE5A
:107430008B490968401A8B49884206D20420FFF71D
:10744000A7FF00208649086008E000F05AFE844942
:10745000086003E000F055FE814908600020824981
:10746000086010BD7D484078A04203DA7B48407830
:10747000201A02E079484078001B32280DDA77485C
:107480008078401CC0B27549887004280ADD08461F
:1074900004700020C870887004E0704844700020B8
:1074A0006E49887070480068401C6F490860B0F5EC
:1074B000167F06D9002008600420FFF769FF00202E
:1074C000CFE70120CDE710B5FFF7DCFE4FF4805188
:1074D0000120FFF77DFB4FF400610120FFF778FBEF
:1074E000022003F085FD4FF400610120FFF77AFBD5
:1074F000322003F07DFD00210320FFF7ADFE0021C7
:107500000420FFF7A9FE80218720FFF7A5FE0220B7
:1075100003F06EFD00218720FFF79EFE00218520ED
:10752000FFF79AFE00218620FFF796FE0021032038
:10753000FFF792FE00210420FFF78EFE79218920BB
:10754000FFF78AFE06218A20FFF786FEEA218B20BC
:10755000FFF782FEEA218C20FFF77EFEFC218D20C2
:10756000FFF77AFE00218E20FFF776FE3F48017874
:107570009C20FFF771FE3D4841789D20FFF76CFE8F
:107580003A4881789E20FFF767FE3848C1789F20EF
:10759000FFF762FE35480179A020FFF75DFE334812
:1075A0004179A120FFF758FE30488179A220FFF7EA
:1075B00053FE2E48C179A320FFF74EFE2B48017AD7
:1075C000A420FFF749FE2948417AA520FFF744FE91
:1075D0002648817AAA20FFF73FFEAC21B020FFF7B2
:1075E0003BFE0021B220FFF737FE0221B320FFF758
:1075F00033FE1021B420FFF72FFE2821B520FFF71E
:107600002BFE2D21B620FFF727FED421B720FFF750
:1076100023FE0021B820FFF71FFE0021B920FFF74D
:107620001BFE4221BA20FFF717FE4521BB20FFF7C2
:1076300013FE5321BC20FFF70FFE5421BD20FFF79E
:107640000BFE15E01F000020D00200201E000020CD
:10765000000401401D000020C7740008280000201D
:1076600030000020A06806002C000020C40401089F
:107670004221BF20FFF7F0FD4521C020FFF7ECFDC0
:107680005321C120FFF7E8FD5421C220FFF7E4FD9C
:10769000FF21C320FFF7E0FDFF21C420FFF7DCFD41
:1076A000FF21C520FFF7D8FDFF21C620FFF7D4FD3D
:1076B000FE48C17AD820FFF7CFFDFC48017BE920C6
:1076C000FFF7CAFDF948417BEE20FFF7C5FDF748FB
:1076D000817BEF20FFF7C0FDF448C17BF020FFF76E
:1076E000BBFDF248017CF120FFF7B6FDEF48417C7D
:1076F000F220FFF7B1FD5221F520FFF7ADFD05F0B7
:1077000007F8493800EB80004006040E2146F920B6
:10771000FFF7A2FD0A21FA20FFF79EFD0021F320CA
:10772000FFF79AFD0021F420FFF796FDDF48C17CAA
:10773000F620FFF791FDDD48017DF720FFF78CFD76
:107740000721ED20FFF788FDD9480178A720FFF732
:1077500083FDD84B4FF4C8720021032004F03EFD96
:107760001E21FC20FFF778FD0C21FD20FFF774FDA2
:107770003221FE20FFF770FD01220A21104600F0A1
:10778000F3FA022328220021184600F0CBFACA4857
:10779000006820F48060C8490860FFF7D6FDFFF755
:1077A000ACFDFFF7A6FD10BD10B503218820FFF743
:1077B00053FD08218820FFF74FFD01218E20FFF7A0
:1077C0004BFD10BD2DE9F04106460C4690460025C4
:1077D000FFF7BBFDFFF7E8FF2146BE20FFF73CFDAA
:1077E0001DE04FF4805503E0142003F0F5FB6D1EFF
:1077F00000210320FFF730FD00F0200008B9002D24
:10780000F2D1002707E016F8011BFF20FFF724FD47
:10781000601EC4B27F1C322F01D2002CF3D1002C89
:10782000DFD109218720FFF717FD4FF4C87003F05F
:10783000D3FB4FF4805506E0681E051E03D10420DB
:10784000FFF7A6FD08E000210320FFF705FD00F08B
:10785000040008B9002DEFD100BFFFF776FDFFF758
:107860004CFDBDE8F0812DE9F04105460F462C4660
:1078700004F11206322F2FDC204606F01EF910B15B
:107880000020BDE8F081E07CB2280FD1F078BB2861
:107890000CD105F0CAFEE168884207D1307964282E
:1078A00004DA864801783079854A115405F0BDFE26
:1078B000E16888420AD005F0BBFE8046804810F897
:1078C0000800401C7E4901F8080000BF207D1730E9
:1078D000C1B2204606F0C9F80120D2E72DE9F04FE9
:1078E00091B080460F464FF000094FF0010AB1E019
:1078F0004846411C01F0FF09052806DD0520FFF779
:1079000047FD00206F490870ACE000210320FFF71D
:10791000A3FC044600210420FFF79EFC054605F069
:10792000800028B100212620FFF796FC63490870EB
:1079300004F0010018B100206249087092E004F0E0
:10794000100020B35F48007818B9404603F0AEF944
:10795000824600260BE000217F20FFF77DFC834656
:107960005946404603F0EFFC8246701CC6B2322EE8
:10797000F1DB54480078CD2803DD00205149087020
:1079800070E05048007832304E49087000BF04F073
:10799000020000285ED000214B20FFF75DFC04466A
:1079A00011E000217F20FFF757FC46490978322279
:1079B00091FBF2F302FB131101AA505441480078E5
:1079C000401C404908703F480078A042E9DB172C72
:1079D0002EDB3D48007860B1214601A8FFF743FF48
:1079E00038B9002037490870FFF787FC11B0BDE8AF
:1079F000F08F322C03DC404603F058F982463220E7
:107A000094FBF0F100FB114028B1322094FBF0F11F
:107A100000FB114000E032200646324601A94046F4
:107A200003F01EFC8246404603F048F9824606E019
:107A3000224601A9384603F0BAF900F0FF0A0020F7
:107A400020490870BAF1000F04D10022032102205E
:107A500003F090FB4FF480610120FFF7D1F800287C
:107A60003FF446AF00BF1748007808B9FFF745FC60
:107A700000BFBBE710B515491548FFF72FFF4FF4BE
:107A800080600D491431086010BD10B504461148DE
:107A9000008850B9082C00D3012400F032FB0E49B5
:107AA00031F81410B0FBF1F218E01CE0C404010836
:107AB0001E000020A1730008000401401C000020EB
:107AC000D0020020200000201F000020F40D002024
:107AD000B403002026000020DA04010801FB120094
:107AE000801C3149088002210120FFF789F8F0B994
:107AF0002D480088401E80B22B49088070BB2B485F
:107B00000088401C80B229490880642808DD0020D4
:107B10000880274B4FF4C8720021032004F05EFB5D
:107B200000202149088023490880012010BD002041
:107B30001D4908801D4908801E480088401C80B2ED
:107B40001C490880B0F57A7F08DD00200880184BBA
:107B50004FF4C8720021032004F040FB0020E5E749
:107B600070B506460C46154613480078012819D111
:107B70002846FFF78AFFA8B100200F4908700F4B75
:107B8000C8220021084604F029FB172C03DBB61D90
:107B9000A4F10C00C4B22A4621463046FFF712FE7B
:107BA000012070BD0020FCE72600002024000020FA
:107BB000A1730008220000201D000020F3720008BD
:107BC00010B585224FF460410120FEF78BFF05229E
:107BD0004FF460410120FEF7CDFF10BD01460022A9
:107BE00008E01046531C9AB24FF6FE73984201DB30
:107BF000002070473D48008800F002000028F0D0C7
:107C00003A48001D0180002208E01046531C9AB239
:107C10004FF6FE73984201DB0020EAE73348008804
:107C200000F001000028F0D03048001D0088C0B2EC
:107C3000DFE710B52E48006840F480402C4908600A
:107C40000846006820F48040086029480C3000682D
:107C500040F4804026490C3108602548001D00682A
:107C600040F002002249091D0860FFF7A9FF1F48E4
:107C7000083800881D49083908800846008840F403
:107C8000007008800846008840F48070088008462C
:107C9000008840F0040008800846008808800846F4
:107CA000008840F0080008800846008808800846E0
:107CB000008840F040000880FF20FFF78FFF10BDD4
:107CC00000F0070009490839098821F03801074AFE
:107CD000083A11801146098841EAC0011180114615
:107CE000098841F0400111807047000008380040C9
:107CF00018380240A44A0A400243A44B1A60704755
:107D00000146072323EA01021202A04B1B1D18683B
:107D10004FF6FF0318409E4B184310439B4B1B1D0F
:107D2000186070472DE9F0410746884614461D4605
:107D300000262846FFF7E4FFC5F1040007FA00F625
:107D40000F20284100EA08000643360191480655F5
:107D500004F01F01012088406111890001F1E02138
:107D6000C1F80001BDE8F08170B504460B46CE179E
:107D700001EB9676C6F38700CE1701EB9676B61028
:107D8000A1EB8606B606350E834B1B6843F0010354
:107D9000814E3360814B53F820300F26AE40B34301
:107DA0007E4E46F82030334653F8203004FA05F66C
:107DB0001E437A4B43F82060794B1B6801268E40A6
:107DC0003343774E336002F0010343B1744B0C33FD
:107DD0001B6801268E403343714E0C36336002F02F
:107DE000020343B16E4B08331E6801238B401E43D0
:107DF0006B4B08331E6070BD00206749083908606E
:107E0000091F086014206449091F08600020091D2B
:107E10000860091D086060482038006840F00100D3
:107E20005D49203908605C48183800685D490840A1
:107E30005949183908605848203800685A4908409C
:107E40005549203908600846006820F48020086001
:107E500051481838006820F4FE004F49183908606E
:107E60000020091D0860704710B5484808300068B8
:107E700040F004004549083108604748001D00688B
:107E800040F080504449091D08604848406840F46B
:107E90008070464948600846006840F00400086069
:107EA0000846006840F002000860FEF795FB10BD30
:107EB0003748001D3549091D0860704701464906CD
:107EC000354A126842F00102334B1A60704700B520
:107ED00002460023FFF790FF2F482038006840F447
:107EE00080302D492039086000BF2B4820380068B9
:107EF000400C0028F9D04FF48060274918390860F9
:107F0000901EC2B20846006840EA824008600846F7
:107F1000006840F4803008602548006840F0320076
:107F2000234908601C482038006840F080701A49D6
:107F30002039086000BF184820380068400E00282B
:107F4000F9D015481838006840F002001249183975
:107F5000086006E0104818380068C0F3870303F093
:107F60000303022BF6D100BD70B5044625462068F8
:107F700010490840B0F1005F04D12868FEF72FFBDC
:107F80006868804770BD000080FFFF1F08ED00E0BB
:107F90000000FA0500E400E020380240080001403B
:107FA000000401400000FFF8FFFFF6FE00700040F3
:107FB000003C02400000FE2F10B505F0C5FD00F0AA
:107FC0007FF8FFF7E3F8FEF734FEFFF77CFA10BD09
:107FD000014636480068364A90422DD13348001D8C
:107FE0000068B0F1FF3F27D03048001D006818B38B
:107FF0002E48001D0068B0F1443F1DD02B48001DE5
:108000000068B0F1883F17D02848001D0068294A51
:10801000904211D02548001D0068244A0832126899
:10802000D243904208D12148001D006888420AD0FE
:108030001E48001D006870471F48406E884202D0ED
:108040001D48406EF7E70020F5E71848006818491A
:10805000884229D11548001D0068B0F1FF3F23D0A8
:108060001248001D0068F8B11048001D0068B0F10A
:10807000443F19D00D48001D0068B0F1883F13D06F
:108080000A48001D00680B4988420DD00748001DB2
:108090000068064908310968C943884204D1034889
:1080A000001D006805494860704700003004000862
:1080B0005A3CC3A5424553540000F81F54140020F5
:1080C0001CB500200190FF200090694601A8FEF732
:1080D000C8FB4FF0E020006920F004004FF0E021E1
:1080E00008614FF4FA510198B0FBF1F04FF0E02134
:1080F0004861002088610320086100200F49086062
:108100001CBD0E48006870470C4800680C490860A8
:1081100070470B480068704710B508480068094967
:10812000B0FBF1F201FB1200044908600846006848
:10813000401C086004F05EF910BD0000340000200F
:10814000380000200084D71710B5012280210220BA
:10815000FEF7C8FC80210220FEF73AFD002001490D
:10816000086010BD3C00002070B505460C4646482E
:10817000006840F48040444908600846006820F4E4
:108180008040086040480830006840F001003E49E7
:1081900008310860081D006840F48040091D08602F
:1081A0008C2249150020FEF79DFC8C224FF4806143
:1081B0000020FEF797FC07224FF4C0610020FEF775
:1081C000D9FC32486843B0FBF4F031490880081DFF
:1081D000008842F20C0108432D49091D0880084619
:1081E000008840F4807008800846008840F0200035
:1081F00008804FF6BF7026490839088002232522DF
:1082000003210846FFF78EFD70BD0246002100E005
:10821000491C1F480838008800F0400018B944F68F
:1082200020608142F4D344F62060814204D2184891
:10823000001F0280012070470020FCE770B5044653
:108240000D46164609E014F8010BFFF7DEFF20B9D2
:108250004FF4E1312020FFF787FF281EA5F101012F
:10826000CDB2F0D1012070BD10B5094808380088A2
:1082700000F0200030B10648001F0088C1B2054858
:1082800003F061F810BD00001438024040420F00B6
:1082900008380140B403002070477047704701461A
:1082A0001220704710B5402210210020FEF71AFC62
:1082B00010210020FEF78CFC002220211046FEF742
:1082C00011FC002240211046FEF70CFCC0220221C6
:1082D0000020FEF707FC10BD10B510210020FEF7AE
:1082E00077FC10BD10B510210020FEF77BFC10BDFF
:1082F00010B500245E48006840F001005C49086049
:10830000FFF7D0FF05E0601C0446B0F57A7F00D986
:1083100005E05748006800F002000028F3D000BFD5
:1083200053482030006840F4007051492031086003
:108330004F481430006840F400704D491431086013
:108340000846006820F4007008604A4800684A49FE
:108350000840484908600846006808600846006808
:108360000860081D0068454908404249091D086029
:10837000084600680860084600680860084600680B
:1083800008600846006808603A482C30006839499F
:108390002C31086037483C30006820F01F00354918
:1083A0003C3108600846006840F001000860314830
:1083B000001D006840F001002E49091D086010BD35
:1083C000014600222B48001D006840F08040294BE8
:1083D0001B1D186007E0501C80B20246B0F5FA6F12
:1083E00001DD002070472348001F006800F00200F4
:1083F0000028F0D01F485430006808800120F1E7C1
:10840000F8B504460D460026002000901948001DCE
:10841000006840F001001749091D0860002718E0B6
:108420006846FFF7CDFF012807D1BDF800000644DC
:108430004FF4FA7002F0D0FD09E00E48001D00680C
:1084400020F001000B49091D08600020F8BD781CD0
:10845000C7B2A742E4DBB6FBF4F028800548001D54
:10846000006820F001000349091D08600120EDE7C4
:108470000038024004240140FFFEFFFCFDF7FFC06E
:1084800038B50446002000900025FFF725FF694617
:108490000A20FFF7B5FF01280CD1BDF8000040F21B
:1084A000393100FB01F5C5F34F202080FFF71AFF9B
:1084B000012038BDFFF716FF0020FAE7F8B50546A2
:1084C00000200090002400266846FFF7D9FF01280D
:1084D0006FD19D480088BDF80010884201DC6426F9
:1084E00004E199484088BDF80010884213DC9648A2
:1084F000008895494988401A0A2190FBF1F0924979
:108500004988BDF80020511A91FBF0F0C4B204F183
:108510005A00C6B2EAE08C488088BDF80010884254
:1085200013DC8948408888498988401A0A2190FBD1
:10853000F1F085498988BDF80020511A91FBF0F0CF
:10854000C4B204F15000C6B2D0E07F48C088BDF884
:108550000010884213DC7C4880887B49C988401A17
:108560000A2190FBF1F07849C988BDF80020511A22
:1085700091FBF0F0C4B204F14600C6B2B6E0724816
:108580000089BDF80010884214DC6F48C0886E492D
:108590000989401A0A2190FBF1F06B490989BDF85D
:1085A0000020511A91FBF0F0C4B204F13C00C6B2B5
:1085B0009CE0C1E064484089BDF80010884213DCAB
:1085C0006148008960494989401A0A2190FBF1F00D
:1085D0005D494989BDF80020511A91FBF0F0C4B201
:1085E00004F13200C6B281E057488089BDF800101E
:1085F000884213DC5448408953498989401A0A212A
:1086000090FBF1F050498989BDF80020511A91FB87
:10861000F0F0C4B204F12800C6B267E04A48C0894D
:10862000BDF80010884213DC474880894649C98953
:10863000401A0A2190FBF1F04349C989BDF8002096
:10864000511A91FBF0F0C4B204F11E00C6B24DE025
:108650003D48008ABDF80010884213DC3A48C089C2
:108660003949098A401A0A2190FBF1F03649098AF2
:10867000BDF80020511A91FBF0F0C4B204F11400CF
:10868000C6B233E03048408ABDF80010884213DC9F
:108690002D48008A2C49498A401A0A2190FBF1F0A2
:1086A0002949498ABDF80020511A91FBF0F0C4B263
:1086B00004F10A00C6B219E02348808ABDF8001010
:1086C000884212DC2048408A1F49898A401A0A21C0
:1086D00090FBF1F01C49898ABDF80020511A91FBEA
:1086E000F0F0C4B2601CC6B200E001262E7017483C
:1086F0000078502803DD0420154908701AE013485B
:1087000000783C2803DD03201149087012E00F486F
:108710000078282803DD02200D4908700AE00B4884
:108720000078142803DD01200949087002E00020C8
:10873000074908700120F8BDFF2028700020044977
:10874000087000BFF7E70000E204010840000020C5
:108750004100002000B58DB0302101A807F042FB98
:108760002F48007850BB20210020FEF749FA20B99D
:1087700040210020FEF744FA40B12A481023082285
:10878000002100900C2000F063FC05E00023202273
:1087900019460C2000F00AFD23480078C0EBC00108
:1087A00001EB00101F49E63901EB400010231722AE
:1087B000002100900D2000F04BFC0DE00023202252
:1087C00019460C2000F0F2FC01A81023172200210A
:1087D00000900D2000F03CFC0DB000BD10B513481A
:1087E000007808B9FFF7B6FF10BD10B5FFF780FDA0
:1087F0000F48FFF763FE10BD70B506460C461546E0
:108800000B48FFF75BFE012805D109480078287066
:108810000120207070BD1220FCE703460120704744
:1088200042000020DE0D01084100002075010020FB
:108830004000002010B5022201210020FEF752F96D
:1088400010BD002049490880704710B50121002063
:10885000FEF7D6F9012801D1FFF7F3FF10BD10B5DF
:1088600000204FF0E0210861282000F01F020121C4
:1088700091403F4A430942F8231000BFFDF7A8FE8C
:108880004FF480510220FEF7ADF93A48008840F4D9
:1088900000703849088049150220FEF7A3F93648D0
:1088A000008820F04000344908803448006820F4F3
:1088B000804032490860081F006820F48040091F8A
:1088C00008602E481438006840F001002B49143924
:1088D00008602A48006840F080502849086028480D
:1088E000006840F00400264908602648006840F00F
:1088F0000200244908600846006840F0040008604F
:108900000846406840F48070486030BF10BD10B524
:10891000164801880088401C144A10801A480088B4
:1089200081420BDB00201146088002F0E7FD01F0D8
:1089300058F901F04FFBFFF792FF15E00B48008854
:108940001249098888420FD1012011490870114944
:1089500008784FF6FF7101F07EF900F073FA0120FC
:108960000D4908700D49087010BD00004A00002034
:1089700080E100E01A08024000380040243802403C
:1089800010ED00E00070004046000020480000208C
:108990004200002064030020440000204300002027
:1089A00000F094FE01F038FD03F0BEFBFFF704FB7E
:1089B0004FF4FA610520FFF76FFC02F0F1F8FEF7C3
:1089C00015FBFDF7EDFFFFF7BFFB00F019F800F016
:1089D00081FE09E00549064801F0C2FF0549064845
:1089E00001F0BEFF03F0D1FCF4E70000D40B00203F
:1089F000B4030020140F0020F40D00200220704763
:108A000010B502240B49022004F007F90FE0601EA4
:108A1000C0B2044600EB8000074951F8200030B195
:108A200004EB84000A4652F8201020468847002CA8
:108A3000EDD110BD34030020F8040108704710B5D3
:108A40004D2240210120FEF74DF84D2280210120CA
:108A5000FEF748F840210120FEF7BAF880210120F6
:108A6000FEF7B6F810BD10B5DB48008840F0800076
:108A7000D94908800846008840F040000880FFF788
:108A8000DDFFD548801C008840F08000D249891C59
:108A90000880FFF7D3FFD048801C008840F04000DA
:108AA000CD49891C0880FFF7C9FF10BD10B5CA4821
:108AB000801C008840F08000C749891C0880881EFF
:108AC000008840F04000891E0880FFF7B7FFC248C9
:108AD000008840F08000C0490880FFF7AFFF10BD5C
:108AE00010B542F21074BC48008840F08000BA49CA
:108AF0000880012280211046FDF7F4FFB648008867
:108B000040F04000B4490880FFF798FF1CE0B248ED
:108B10000838008800F08000B0B9AF48801C008899
:108B200040F04000AC49891C08804D228021012082
:108B3000FDF7D8FFA848008840F08000A6490880CB
:108B4000FFF77CFF002010BD201EA4F101018CB2B4
:108B5000DDD1A148801C008840F040009E49891C5E
:108B600008804D2280210120FDF7BCFF9A48008833
:108B700040F0800098490880FFF760FF0120E2E79D
:108B800010B59548801C008840F080009249891CEF
:108B90000880881E008840F04000891E0880FFF78A
:108BA0004DFF8D48801C008840F040008A49891C98
:108BB00008800846008840F080000880FFF73EFFEC
:108BC00010BD10B58448008840F0800082490880BC
:108BD0000846008840F040000880FFF72FFF7E48DD
:108BE000801C008840F040007B49891C08800846B2
:108BF000008840F080000880FFF720FF10BD70B5AE
:108C00000446002527E004F0800030B17248008857
:108C100040F080007049088007E06F48801C0088A1
:108C200040F080006C49891C08806006040E6A4888
:108C3000008840F0400068490880FFF7FFFE664862
:108C4000801C008840F040006349891C0880FFF7C1
:108C5000F5FE681CC5B2082DD5DB70BD70B50024CB
:108C6000012280211046FDF73DFF00251DE05A48F6
:108C7000008840F0400058490880FFF7DFFE60069A
:108C8000040E55480838008800F0800008B144F010
:108C900001045148801C008840F040004E49891C66
:108CA0000880FFF7CBFE681CC5B2082DDFDB4D2224
:108CB00080210120FDF716FF4748008840F0800022
:108CC00045490880204670BD70B505460C46FFF743
:108CD000CAFE7820FFF793FFFFF702FF2846FFF751
:108CE0008EFFFFF7FDFE2046FFF789FFFFF7F8FE36
:108CF000FFF7DCFE70BD70B50446FFF7B4FE7820C8
:108D0000FFF77DFFFFF7ECFE2046FFF778FFFFF748
:108D1000E7FEFFF7A8FE7920FFF771FFFFF7E0FEFF
:108D2000FFF79CFF0546FFF74CFFFFF7BFFE284605
:108D300070BD2DE9F04180460C4615462746FFF7E9
:108D400092FE7820FFF75BFFFFF7CAFE4046FFF771
:108D500056FFFFF7C5FE002607E03878FFF74FFF04
:108D6000FFF7BEFE7F1C701CC6B2AE42F5DBFFF7FC
:108D70009DFEBDE8F0812DE9F04180460D46164686
:108D80002C46FFF770FE7820FFF739FFFFF7A8FEAB
:108D90004046FFF734FFFFF7A3FEFFF764FE79209C
:108DA000FFF72DFFFFF79CFE002707E0FFF756FFB8
:108DB00004F8010BFFF7E4FE781CC7B2701EB8423E
:108DC000F4DCFFF74BFF04F8010BFFF7FAFEFFF7A7
:108DD0006DFEBDE8F08100001804024010B50222CB
:108DE00001210020FDF77EFE00220F210220FDF769
:108DF00079FE10BD10B541220F210220FDF772FE51
:108E000010BD0F48008800F00F0070470C48001D8F
:108E1000008840F00F000A49091D0880704710B50E
:108E2000FFF7E8FF0648001D008840F00F000449E6
:108E3000091D0880FFF7D2FF0148008810BD00001F
:108E40001008024070B5002419E004F1B000C1B26E
:108E50000020FFF739FF00210846FFF735FF1021FA
:108E60000020FFF731FF002505E000214020FFF73B
:108E70002BFF681CC5B2842DF7DB601CC4B2082C24
:108E8000E3DB70BD10B5FFF7DAFD4022D100022010
:108E9000FDF728FEFE48008840F40070FC49088079
:108EA000402220210120FDF71DFE20210120FDF799
:108EB00099FE142002F09CF820210120FDF788FE85
:108EC000AE210020FFF700FF20210020FFF7FCFE6D
:108ED00010210020FFF7F8FEB0210020FFF7F4FE7C
:108EE000C0210020FFF7F0FE00210846FFF7ECFE4E
:108EF00010210020FFF7E8FE40210020FFF7E4FEEC
:108F000081210020FFF7E0FE7F210020FFF7DCFE3B
:108F1000A0210020FFF7D8FEA6210020FFF7D4FEF5
:108F2000A8210020FFF7D0FE3F210020FFF7CCFE54
:108F3000A4210020FFF7C8FED3210020FFF7C4FEC4
:108F400000210846FFF7C0FED5210020FFF7BCFE38
:108F5000F0210020FFF7B8FED9210020FFF7B4FE72
:108F600022210020FFF7B0FEDA210020FFF7ACFE3F
:108F700012210020FFF7A8FEDB210020FFF7A4FE4E
:108F800020210020FFF7A0FE8D210020FFF79CFE8E
:108F900014210020FFF798FE052002F029F8FFF7C2
:108FA00051FFAF210020FFF78FFE10BD70B50446C2
:108FB0000D46E006040E04F00F06102000EB14141A
:108FC00005F1B000C1B20020FFF77EFEB11C002009
:108FD000FFF77AFE21460020FFF776FE70BD70B5E0
:108FE00004460D4604F00F06102000EB141405F1A2
:108FF000B000C1B20020FFF767FEB11C0020FFF7F0
:1090000063FE21460020FFF75FFE70BD70B5044689
:1090100000251AE005F1B000C1B20020FFF754FEB0
:1090200002210020FFF750FE10210020FFF74CFE28
:10903000002606E014F8011B4020FFF745FE701CD7
:10904000C6B2802EF6DB681CC5B2082DE2DB70BD0F
:109050002DE9F04782460D4617461C46DDF8208074
:109060002E4613E031465046FFF7A0FF4FF00009AF
:1090700008E018F8011B4020FFF726FE09F1010067
:1090800000F0FF09B945F4DB701CC6B2E11704EB30
:10909000517105EBE101B142E4DCBDE8F0872DE957
:1090A000F04180460D4600261EE031464046FFF75F
:1090B0007DFF002714E010CDE1B24020FFF704FE51
:1090C000C4F307214020FFF7FFFDC4F30741402010
:1090D000FFF7FAFD210E4020FFF7F6FD781CC7B21E
:1090E000102FE8DB701CC6B2082EDEDBBDE8F08175
:1090F0002DE9F04781460F461546002623E0F0197A
:10910000C1B24846FFF752FF4FF0000816E010CDFD
:10911000E1B24020FFF7D8FDC4F307214020FFF75C
:10912000D3FDC4F307414020FFF7CEFD210E4020C0
:10913000FFF7CAFD08F1010000F0FF08B8F1100FB9
:10914000E5DB701CC6B2042ED9DBBDE8F0872DE943
:10915000F04781460F461546002623E0F019C1B2BC
:109160004846FFF723FF4FF0000816E010CDE1B2AC
:109170004020FFF7A9FDC4F307214020FFF7A4FD1D
:10918000C4F307414020FFF79FFD210E4020FFF769
:109190009BFD08F1010000F0FF08B8F1080FE5DBC6
:1091A000701CC6B2042ED9DBBDE8F0872DE9F05F54
:1091B00083460C4616461F464FF0000AA6F12000D3
:1091C000344901EB001A00251CE005EB4400C1B254
:1091D0005846FFF7EBFE4FF000080EE01AF8019B2F
:1091E0001FB16FEA090000F0FF0949464020FFF770
:1091F0006BFD08F1010000F0FF08B8F1080FEDDB8E
:10920000681CC5B2022DE0DBBDE8F09F2DE9FF5FD1
:109210000E46174698464FF0000B002412E03878AF
:1092200004EB44011C4A515C884209D1787804EB74
:10923000440111444978884202D1184800EB441B8C
:10924000601CC4B20D2CEAD300251EE005EB4600DD
:10925000C1B20098FFF7AAFE4FF0000910E01BF81A
:1092600001ABB8F1000F03D06FEA0A0000F0FF0A6B
:1092700051464020FFF728FD09F1010000F0FF09E9
:10928000B9F1100FEBDB681CC5B2022DDEDB07E085
:109290001808024020050108100B0108370B0108CF
:1092A000BDE8FF9F2DE9F04105460E4614461F46D6
:1092B00015E02078A02809DD3B46224631462846A5
:1092C000FFF7A4FFA81CC5B2A41C08E022783B4607
:1092D00031462846FFF76AFF681CC5B2641C207837
:1092E0000028E6D1BDE8F08170B50546002409E00C
:1092F00021462846FFF773FEFF214020FFF7E4FCDC
:10930000601CC4B2082CF3DB70BD2DE9F047824627
:109310000E461746B946002416E0A019C1B25046C1
:10932000FFF75DFE4FF0000809E019F8015B2946E0
:109330004020FFF7C9FC08F1010000F0FF08B8F178
:10934000120FF2DB601CC4B2042CE6DBBDE8F08730
:1093500010B544224FF480510220FDF7C3FB442294
:109360004FF480510020FDF7BDFB442280210220F4
:10937000FDF7B8FB44224FF480710220FDF7B2FBE9
:1093800044224FF400610020FDF7ACFB44224FF46F
:1093900080710020FDF7A6FB4FF480510220FDF7FD
:1093A00017FC4FF480510020FDF71CFC80210220A7
:1093B000FDF718FC4FF480710220FDF713FC4FF409
:1093C00080710020FDF70EFC4FF400610020FDF7D6
:1093D000FFFB0A2001F000FE4FF480710020FDF732
:1093E000F7FB4FF480710220FDF7F2FB10BD10B5C2
:1093F0004FF480710220FDF7F5FB4FF480710020DF
:10940000FDF7F0FB012001F0E7FD4FF48071002033
:10941000FDF7DEFB4FF480710220FDF7D9FB10BD94
:1094200070B504464FF480710220FDF7DBFB102578
:109430001BE080210220FDF7D5FB04F4004028B199
:109440004FF480510020FDF7C3FB04E04FF480513E
:109450000020FDF7C7FB80210220FDF7B9FB4FF686
:10946000FF7000EA4404681EC5B2002DE1DC4FF431
:1094700080710220FDF7ACFB4FF400610020FDF786
:10948000B1FB70BD002108E0002200EB41035A70DF
:10949000FF2200F811204A1CD1B21A29F4DB002265
:1094A00080F8352080F834207047014691F8350067
:1094B000401C1A2290FBF2F302FB130091F83420B7
:1094C000904201D1012070470020FCE7014691F84D
:1094D000350091F83420904201D1012070470020DE
:1094E000FCE713B504462046FFF7DFFF08B314F886
:1094F000340F401C1A2190FBF1F201FB1200207086
:109500009DF804006178343C04F811009DF80500D2
:1095100094F8351004EB4101487094F83500401C74
:109520001A2190FBF1F201FB120084F835000020B3
:109530001CBD9DF8040094F8351004F811009DF846
:10954000050094F8351004EB4101487094F835009B
:10955000401C1A2190FBF1F201FB120084F8350047
:109560000120E5E770B504460D462046FFF7AEFF43
:1095700008B1002070BD94F8340004EB400040783E
:10958000687094F8340014F81000287094F83400CF
:10959000401C1A2190FBF1F201FB120084F8340008
:1095A0000120E7E770B504460D4616462A480068D4
:1095B000A20A01219140084327490860E6622585F7
:1095C000A08820F0F000A080A08840F04000A0809B
:1095D000A08940F00100A0810020606220822088E4
:1095E00040F00100208002231C2203211846FEF7D0
:1095F00099FB70BD018841F0010101807047416213
:109600007047018821F001010180704710B54FF0CB
:109610008040008A00F00100A0B11048007878B9BD
:1096200001200E49087040F2DC504FF08041C862C2
:109630000846008820F0010008800020486201E010
:1096400000F0C3F84FF08040008A20F001004FF096
:109650008041088210BD00002438024070010020C3
:1096600010B5022200210846FEF77EFB02230622E7
:1096700001211846FEF756FB10BD00F0010159B15B
:109680001149096821F001010F4A1160111D096893
:1096900041F00101121D116000F0020159B10A49A7
:1096A000096841F00101084A1160111D096821F0A3
:1096B0000101121D1160704710B500F041F8012042
:1096C00001490C31086010BD0804014010B5FFF7D6
:1096D00085FB10BD10B54FF0FF3400E0641EFB4861
:1096E000008A00F001000028F8D1002CF6D0F848DC
:1096F000FFF7C8FEFFF7B4FF012247F6FF419007CE
:10970000FFF750FF10BD38B504462078FF2816D06B
:109710000025FCF76AFF054620788DF80000607888
:109720008DF80100EA480099FFF7DBFE2846FCF7B8
:1097300059FF207800F073FBFF20207000BF38BD78
:1097400070B5FF250024E3480078012826D10020C9
:10975000E0490870FFF755FB0546012406E0DE48A6
:10976000005DA84200D103E0601CC4B20C2CF6DD01
:1097700000BF0C2C03DDFF20D849087070BDD7480E
:10978000047000214FF08040FFF739FF4FF0804018
:10979000FFF730FF0120FFF770FF14E00120CD49F3
:1097A00008700220FFF769FF0120CC494870084685
:1097B000FFF7A9FF4FF08040FFF723FF00214FF094
:1097C0008040FFF71CFF00BFD8E710B50120C1495A
:1097D00008700220FFF751FF0220C0494870084678
:1097E000FFF791FF4FF08040FFF70BFF00214FF094
:1097F0008040FFF704FF10BD10B50446B84800785C
:1098000010B1012871D111E00120B5490870FFF7AE
:1098100019FB0023B3A219460220FFF743FD0023E2
:10982000B3A202210620FFF73DFD8AE0062C5BDC97
:10983000FFF707F8B0480078B0B10023AFA219468F
:109840000120FFF72FFD0023B0A201210420FFF724
:1098500029FD0023A6A202210620FFF723FD0020F8
:10986000A5490870AC49087004F13001CAB2AA4990
:109870000978891DC8B200230221FFF797FCA74889
:10988000A54909784454A44801780078401CA24AAC
:109890001070032953DB002011460870A04800789F
:1098A0009E490978884238D19D4840789B4949783B
:1098B000884232D19A4880789849897888422CD158
:1098C0009748C0789549C978884226D100209549A3
:1098D0000870FFF7B7FA00209349087093480078A2
:1098E000072803DA00F01AFD29E029E08F484078C4
:1098F000012808D18D4800788D4A52F820100420A4
:10990000FFF7CDFB1BE0894800781030884A52F8F9
:1099100020100420FFF7C3FB11E0002377A21946B3
:109920000120FFF7BFFC002378A201210420FFF7EC
:10993000B9FC00236EA202210620FFF7B3FC00E071
:1099400000BF00BF10BDF8B500250026FCF74DFE96
:10995000064669465E48FFF705FE05463046FCF7B9
:1099600041FE002D07D06F480078002804DD9DF8E7
:109970000000FFF741FF14E19DF80000FF28FAD036
:10998000002404E000206B490855601CC4B20E2C72
:10999000F8DB0020644908709DF8010063494870B5
:1099A0009DF800000870FEF74CFF9DF800000628A7
:1099B00076DD61480078012801D1FFF743FA0020E5
:1099C0005D4908709DF80100012802D0022865D188
:1099D0004AE09DF800005949085CB0B901209DF8A3
:1099E0000010564A50549DF80000514A52F8201079
:1099F0000420FFF754FB9DF800001030C1B2012392
:109A00001A46184601F048FD16E000209DF80010A7
:109A10004A4A50549DF800002030454A52F8201020
:109A20000420FFF73CFB9DF800001030C1B200237A
:109A30000122104601F030FD9DF800003F49095C0D
:109A400002463A48801C815401209DF80010394A92
:109A500050549DF8001001231A46184601F01CFDD1
:109A6000012002F02CFF1AE09DF800001030304A6F
:109A700052F820100420FFF712FB02209DF800107E
:109A80002C4A50549DF8001002230122104601F088
:109A900003FD012002F013FF01E001E000BF80E0C0
:109AA0009DF80000022856D125480078012849D1A8
:109AB000002023490870FFF7C5F91D48D0F8B810F9
:109AC0000420FFF7ECFA00F0B3FA40E00000024097
:109AD000740300207D0100202A0F01087601002078
:109AE0007E010020C7EBCAE4C8EBC3DCC2EB000078
:109AF0002D2D2D2D0000000044000020C7EBD6D8EE
:109B0000D0C2CAE4C8EBC3DCC2EB0000C3DCC2EBCA
:109B1000B4EDCEF3000000007C01002078010020AD
:109B20007101002075010020420000206403002024
:109B30004C00002048030020A00100205603002014
:109B40009901002001202F49087000F05AFB0120E4
:109B50002D49087025E09DF80000062821DC2948E1
:109B60000078012812D12848007810B900F049FB8C
:109B700014E02648007820B100F0D0FB00202349F3
:109B800008709DF8000000F085FA07E01D48007895
:109B900020B901201B49087000F033FB01201A494D
:109BA0000870F8BD70B5FF25FF26FFF72AF90546B6
:109BB000C82001F011FAFFF724F9A8420FD10124BF
:109BC00007E01348005DA84201D1264603E0601C6F
:109BD000C4B20C2CF5DD00BF0C2C00DDFF26304696
:109BE00070BD10B50B4A102144F2080001F04AFA8A
:109BF00010BD10B504462246102144F2080001F0C1
:109C000005FA10BD99010020A001002043000020AA
:109C10002A0F01086403002010B540F21130FFF74D
:109C2000FFFB10BD10B54FF6FF70FFF7F9FB10BD3D
:109C300010B5834908780978491C814A117000EBF6
:109C4000D0714910A0EB410111B1FFF7E5FF01E030
:109C5000FFF7E8FF10BD70B505460C467948415D39
:109C60000120884084432046FFF7DAFB70BD70B5C1
:109C700005460C467348415D01208840204384B26C
:109C80002046FFF7CDFB70BD10B56F480078B8B91E
:109C900040F211306D490880084601886C48007810
:109CA000FFF7E5FF6A4800786A490870684800785D
:109CB00069490870012069490870634908707DE0AE
:109CC0006148007801283BD162480078012803DC14
:109CD0000D206049087004E05E480078401E5D4930
:109CE00008705D4800780D2803DB01205A49087090
:109CF00004E059480078401C5749087051485549BC
:109D00000978415C012088404E49534A12788A5CA8
:109D10000121914008434D49098808434B49088077
:109D200008460088FFF77CFB4C480078401CC0B216
:109D30004A490870072841DB0220434908703DE08A
:109D400041480078022839D13E4842490978415CAF
:109D5000012088403B49404A12788A5C01219140A9
:109D600008433A4909888143384801800088FFF751
:109D700057FB39480078012803DC0D20364908706C
:109D800004E035480078401E3349087031480078B7
:109D90000D2803DB01202F49087004E02D480078CE
:109DA000401C2C4908702D480078401EC0B22B4939
:109DB0000870012802DC00202349087010BD10B58E
:109DC0000446002020490870214804704FF4E061E7
:109DD0002046FFF74CFFAFF24F1346220D21012022
:109DE00002F0FCF910BD10B517490978491CC9B239
:109DF000154A1170084601EBD0714910A0EB4101E2
:109E000031B140F2113112480078FFF724FF05E02C
:109E100040F211310E480078FFF729FF10BD10B550
:109E20000446FFF7F9FE002007490870084804704F
:109E3000AFF24D0364220D21012002F0CFF910BDD5
:109E40009301002082010020810100209401002064
:109E50008001002096010020970100209801002039
:109E600010B5FE4A09214FF4585001F0CFF8FC4AD2
:109E700007214FF4804001F0C9F8F8480078022823
:109E800002DD0120F5490870F4484078042802DD1D
:109E90000020F2494870F148007AF02802DD0120E4
:109EA000EE490872EE480078012802DD0020EC49F6
:109EB0000870EB488078042802DD0020E8498870AB
:109EC000E74840781E2803DCE5484078102802DA8D
:109ED0001E20E3494870E248C078032802DD0020D4
:109EE000DF49C870DE484079232803DCDC4840792C
:109EF0000A2802DA2020DA494871D94880790A28EC
:109F000005DBD7488079D6494979884202DB1020A1
:109F1000D349887110BD10B5FFF7A2FFCF48007874
:109F2000022802DD0020CD490870CC484078042882
:109F300002DD0020C9494870C848D0F8020010F17D
:109F4000100F03D90020C549C1F80200C348C088DA
:109F50004FF6F071884202DD0020C049C880BF483A
:109F6000007A802802DD0020BC490872BC480078D5
:109F7000012802DD0020BA490870B9484078B84984
:109F80004979884205DCB6484078B54989798842E4
:109F900002DA1920B2494870B1488078042802DDFD
:109FA0000020AF498870AE48C078042802DD002048
:109FB000AB49C870AA480079032802DD0020A849EF
:109FC000087110BD10B5A54A09214FF4585001F091
:109FD00059F810BD10B5A24A07214FF4804001F096
:109FE00051F810BD10B586B09D4800788DF80C0072
:109FF0009B4840788DF80D00994880788DF80E00C8
:10A000009748C0788DF80F00954800798DF81000BA
:10A0100003A805215022914CCDE900210290237A1A
:10A02000E288D4F80210607801F008FB06B010BD99
:10A0300010B58A480078012806D18A4B4FF4167271
:10A040000021084602F0CAF810BD08B584484078DF
:10A050000A2190FBF1F0C0B28DF8000080484078F2
:10A0600090FBF1F201FB1200C0B28DF801009DF8E7
:10A0700000007D4951F8202002214220FFF745F9D8
:10A080009DF80100784951F8202002215420FFF763
:10A090003CF908BD38B50446072C7DD2DFE804F052
:10A0A000AB04AB15263D55006D48807850B16C4827
:10A0B00040786B498979884204DD69484078401EC0
:10A0C00067494870FFF7C1FF96E06548807850B156
:10A0D0006348407862494979884204DA60484078A8
:10A0E000401C5F494870FFF7B0FF85E05C4880780E
:10A0F000042805DA5A488078401C5949887002E0E3
:10A1000000205749887056488078584951F82020D7
:10A1100000210846FEF7ECFF6EE05148C0780328A6
:10A1200005DA4F48C078401C4D49C87002E0002055
:10A130004B49C8704A48C078401D4C4951F820200E
:10A1400004210020FEF7D4FF56E04548007903289B
:10A1500005DA43480079401C4149087102E00020BB
:10A160003F4908713E48007930B9002340A20321DD
:10A170000920FFF797F83DE039480079012810D110
:10A180003D4810231722062100900920FEF760FFAA
:10A1900000233AA2032100E02DE00B20FFF782F814
:10A1A00028E02F48007902280FD1002333A2032191
:10A1B0000920FFF777F830482E30102317220621A8
:10A1C00000900B20FEF744FF14E025480079032897
:10A1D00010D1294810231722062100900920FEF7EC
:10A1E00037FF25482E3010231722062100900B2020
:10A1F000FEF72EFF00E038BD00BFFFF719FF00BFDC
:10A20000F9E708B51648007801287ED1FEF71AFE56
:10A2100013488078154951F8202000210846FEF7A0
:10A2200067FF0F48C078401D104951F820200421D5
:10A230000020FEF75DFF4020FFF756F8104802218E
:10A2400002680C20FEF783FFFFF7FFFE0448007949
:10A25000D8B9002306A20321092013E0AA03002095
:10A2600099010020E59F0008340100200C01002026
:10A270002020202020000000CE0E01082020000019
:10A280005C010020FFF70EF845E05D4800790128E9
:10A290000FD15C4810231722062100900920FEF7F9
:10A2A000D7FE0023AFF22C0203210B20FEF7FAFFAA
:10A2B00031E053480079022810D10023AFF2440264
:10A2C00003210920FEF7EEFF4E482E3010231722FF
:10A2D000062100900B20FEF7BBFE1CE048480079E9
:10A2E000032818D14748102317220621009009207F
:10A2F000FEF7AEFE43482E301023172206210090B1
:10A300000B20FEF7A5FE06E0FFE73F48D0F8B810A7
:10A310000420FEF7C4FEFFF78BFE08BD08B53848E1
:10A320000078012864D14020FEF7DEFF3748022183
:10A3300002680C20FEF70BFFFFF787FE304880789D
:10A34000334951F8202000210846FEF7D1FE2C4861
:10A35000C078401D2E4951F8202004210020FEF72E
:10A36000C7FE2748007930B101280CD002281AD046
:10A3700003283BD128E00023AFF20C12032109206F
:10A38000FEF790FF33E01F481023172206210090AC
:10A390000920FEF75DFE0023AFF2201203210B20FF
:10A3A000FEF780FF23E00023AFF2301203210920E3
:10A3B000FEF778FF13482E30102317220621009055
:10A3C0000B20FEF745FE12E00E481023172206214F
:10A3D00000900920FEF73CFE0A482E301023172279
:10A3E000062100900B20FEF733FE00E000BF05E0E1
:10A3F0000548D0F8B8100420FEF751FE08BD000053
:10A4000099010020CE0E01084C0000205C010020C4
:10A410000C0100201320704710B5FFF7C3FBFB4968
:10A42000087008460078FF2801D1FEF718FA10BD21
:10A4300038B50546FEF7D9F9FEF724FDFEF788FF8B
:10A44000FFF7EAFBF248FEF739F8012814D1F0488B
:10A450000078082810DCEF482023382202210090E1
:10A460002420FEF7F5FDEC4B40F6B83200210846FB
:10A4700001F0B4FE00BFFEE7FFF74DFDE74A0421FF
:10A480004FF4505003F095F8E448007806280BDCB0
:10A49000E2484078062807DCE0488078062803DC9C
:10A4A000DE48C078062805DD0020DC4908704870C9
:10A4B0008870C870D948007840B1D848407828B131
:10A4C000D648807810B1D548C07818B90020D44952
:10A4D000087002E00120D2490870D24B0522002109
:10A4E000022001F07BFED04B64220021022001F00B
:10A4F00075FECE4BC8220021022001F06FFECC4831
:10A50000FFF777FBCA4800780E2802DCC8480078BD
:10A5100018B9BE480078C6490870C5484078022876
:10A5200002DCC348407810B90120C1494870C048D6
:10A530004078BF490978BF4A505401240FE0BC4815
:10A54000801C005D012803DD0021B948801C0155F5
:10A55000B748801C005DB8490855601CC4B20E2C79
:10A56000EDDBB3480078072805DAFFF7D7FE0120B6
:10A57000B24908702BE0AE484078012802D002288A
:10A5800023D118E0AA480078AB49085C012808D11B
:10A59000A7480078AA4A52F820100420FEF77FFD51
:10A5A00008E0A34800782030A54A52F82010042083
:10A5B000FEF775FD0AE09E4800781030A04A52F878
:10A5C00020100420FEF76BFD00E000BF00BFFEF787
:10A5D000C1F838BD10B5044600BF00208F4908708F
:10A5E00048708870C8700A4604214FF4505002F039
:10A5F000C9FF00208E494870FF2008700E220021FC
:10A600008B48801C00F04EF9894A102144F2080062
:10A6100002F0B8FF00208B490870202048711020FC
:10A62000887100208870192048700020C870087157
:10A630008549C880C1F8020048700872012008707E
:10A64000FFF7C8FCFFF7BEFC10BD10B503465C78F1
:10A65000012008707748005D1070012010BD014690
:10A6600048781038C2B28878012801DD0F20704781
:10A67000C878714B98540120F9E710B50346587813
:10A680001038C4B2012008706B48005D10700120C2
:10A6900010BD10B50446E078303860490870207964
:10A6A00030384870607930388870A0793038C87098
:10A6B0000A4604214FF4505002F064FF012010BDFF
:10A6C0000346042008705548007830301070534815
:10A6D00040783030507051488078303090704F481A
:10A6E000C0783030D07001207047034607200870D2
:10A6F0005448007802F8010B5248407802F8010BE8
:10A700005048807802F8010B4E48C07802F8010BDF
:10A710004C48007902F8010B4A48407902F8010BD5
:10A720004848807902F8010B0120704710B50446B3
:10A73000E078454948702079887061794248C17055
:10A74000A1790171E1794171207A3F498871617A7B
:10A750003D48C171A07A3C490872FFF733FC0120E3
:10A7600010BD0346082008703748407802F8010BF6
:10A770003548807802F8010B3348C07802F8010BA5
:10A780003148007902F8010B2F48407902F8010B9B
:10A790002D48807902F8010B2B48C07902F8010B93
:10A7A0002948007A02F8010B012070470146C87859
:10A7B000254A107001207047034601200870224886
:10A7C000007810700120704710B50446E078232807
:10A7D00006DC20790A2803DBE1782079814201DA5E
:10A7E0000E2010BDE0781749487120798871FFF775
:10A7F000F1FB0120F5E7034602200870114840797B
:10A80000107010488079507001207047A10100201D
:10A8100040000020EE0D01085F8800087101002053
:10A8200075010020479900080F890008DD8700089E
:10A83000640300204803002056030020A0010020EC
:10A840004C00002099010020AA03002010B5034B02
:10A85000C8220621012001F0C1FC10BD319C000876
:10A8600030B5884209D003460C4604E014F8015B79
:10A8700003F8015B521E002AF8D130BDF0B5034643
:10A880008B420DD01D460C4608E015F8016B14F8FC
:10A89000017BBE4201D00120F0BD521E002AF4D13E
:10A8A0000020F9E710B5034602E003F8011B521E31
:10A8B000002AFAD110BD70B588420AD203460C4670
:10A8C00004E014F8015B03F8015B521E002AF8D182
:10A8D0000DE088420BD983188C1806E0651E2C46C3
:10A8E0002E785D1E2B462E70521E002AF6D170BDAA
:10A8F000F0B505460C4616462F46314614E011F8D1
:10A9000001CB387884450DD1012200E0521CA242CF
:10A9100004D211F801CBB85C8445F7D0A24201D132
:10A92000881AF0BD5B1E491C002BE8D10020F8E717
:10A9300070B5044600260E70254610460AE010F851
:10A94000016B05F8016B0E78761C0E70067806B95F
:10A9500070BD5B1E002BF2D100260E7000BFF7E722
:10A9600070B505460C46607810B1012824D113E07B
:10A970002946A01DD4F80C219047C0B2207000B920
:10A980001FE000206071A078012802D1B148007A50
:10A9900000E00120E07000BF62792178A01DD4F8AA
:10A9A0000831984720B1E078401EC0B2E07010B185
:10A9B0000120607005E000BFFDF7A6FB002060707D
:10A9C00000BF00BF70BD10B5A349A448FFF7C8FF82
:10A9D000A349A448FFF7C4FF10BD2DE9F041044688
:10A9E0000E46174625463146284604F04AF9012806
:10A9F00005D12878032800D100E000BF00BF012066
:10AA0000BDE8F0810146881E0C280FD2DFE800F077
:10AA1000060E0E0A0E070E080E0B0E0C00BF00BF2E
:10AA20000320704700BF00BF0620FAE700BF00BF49
:10AA30000020F6E7F8B504460D26607800EB8000AC
:10AA4000894901EB8000C568002700200090FDF7D0
:10AA5000D5FF617888425EDD00BFA1782868884212
:10AA600045D12078022808D02078042805D0207805
:10AA7000072802D02078092823D1A868F8B1607887
:10AA800000EB8000794901EB4000807920B909266C
:10AA9000607801F014FF29E0601CA9688847064629
:10AAA000022E23D12868CF2800D90126E078009013
:10AAB0009DF80020211D601DFFF7FDFE16E00A260F
:10AAC00014E02078052805D020780B2802D02078C3
:10AAD0000D280AD1E86830B1621D6946601CEB6838
:10AAE0009847064602E00B2600E00C2612E061784B
:10AAF00001EB81015C4A02EB810108698047791C06
:10AB0000C9B20F46884205DD05F11400054600680C
:10AB1000FF28A2D900BF9DF80000401CE0702671FC
:10AB20003046F8BD2DE9F84305460F469046AC1D6A
:10AB300005F11B0004F11103621C39460090284600
:10AB400003F02FFE0646012827D104F11100FFF77C
:10AB500071FF0646032E20D0FDF773FEFCF754FA72
:10AB6000607C022812D0607C05280FD0607C07280A
:10AB700002D0607C0B2801D1012E07D0607C09280F
:10AB800002D0607C0D2808D1012E06D0607CFFF732
:10AB900039FF6074204600F0B7FC0120BDE8F8835F
:10ABA00010B54FF480623249324800F00BFB4FF48D
:10ABB00080623149294800F005FB00BF00202F4981
:10ABC0004870887008712E48C1F808012D48C1F8F6
:10ABD0000C0100BF00BF00201F4948700120887091
:10ABE000002008712848C1F808012848C1F80C0164
:10ABF00000BF80222649274800F0E4FA8022264937
:10AC0000184800F0DFFA00BF00202449487088701F
:10AC1000012008712248C1F808012248C1F80C013E
:10AC200000BF00BF00200E494870012088700871E5
:10AC30001548C1F808011B48C1F80C0100BF1A4BA8
:10AC400005220021022001F0C9FA10BD0249C1F815
:10AC50000801704754140020E40C0020C4030020B5
:10AC600024100020040E0020F80401083403002002
:10AC7000D4030020B4030020D4070020D40B00200C
:10AC800025AB000803AF0008617B00083BAE00085D
:10AC9000140E0020F40D0020940E0020140F00204C
:10ACA000DBA90008CDAC0008C7A9000810B5044610
:10ACB0000622C749204600F0D3FA10BD10B504465D
:10ACC0000622C449204600F0CBFA10BD2DE9F04120
:10ACD00006460C4600BF04B967E000BF00BF20462F
:10ACE00000F086FA012800D15FE000BF0622B849D3
:10ACF000204600F065FB0546A56000BF204600F039
:10AD000077FA012800D150E000BF0725A068284449
:10AD1000401E6168B0FBF1F201FB12002168085C83
:10AD20000830054400BFFA2D00D935E000BF00BF50
:10AD3000204600F086FAA84200D236E000BF00BFED
:10AD4000A0682844801F6168B0FBF1F201FB120784
:10AD50000623A04A3946204600F060FB00B91BE0FC
:10AD600000BF00BF2A463146204600F0AEFA00B9C7
:10AD70001BE000BFB57900BFA81C81B2F01D02F036
:10AD80003BFF00B111E000BF2A46F11D3046FFF73E
:10AD900092FD2846BDE8F081A068801D6168B0FB87
:10ADA000F1F201FB1200A06000BF0020F2E72DE9E4
:10ADB000F04106460F46154600BF06B93BE000BF0E
:10ADC00000BF06228249304600F04AFA00B932E05C
:10ADD00000BFA9B2384602F00FFF044600BFE9B237
:10ADE000304600F0B0FA00B925E000BF00BF2A46A7
:10ADF0003946304600F034FA00B91CE000BF00BF0D
:10AE00002112304600F09FFA00B914E000BF00BFE5
:10AE1000E1B2304600F097FA00B90CE000BF00BF85
:10AE200006226C49304600F01BFA00B903E000BF6F
:10AE30000120BDE8F0810020FBE72DE9F041064646
:10AE40000C4600BF04B95AE000BF00BF204600F026
:10AE5000F8F9062800D852E000BF06225C492046D7
:10AE600000F0AEFA0546A56000BF204600F0C0F92C
:10AE7000012800D143E000BFA068801D6168B0FBDD
:10AE8000F1F201FB120021680D5C00BF012D00D121
:10AE90002CE000BF0C3500BFFA2D00D926E000BF22
:10AEA00000BF204600F0CDF9A84200D227E000BF45
:10AEB00000BFA0682844801F6168B0FBF1F201FB6D
:10AEC00012070623434A3946204600F0A7FA00B984
:10AED0000CE000BF00BF2A463146204600F0F5F9DD
:10AEE00000B90CE000BF2846BDE8F081A068801DD5
:10AEF0006168B0FBF1F201FB1200A06000BF00200E
:10AF0000F2E770B504460E4631462046FFF795FF3E
:10AF1000054665B1A01D02F0D0FD40B9A07E00F14C
:10AF20001D05601906222B49FFF79AFCAD1D284626
:10AF300070BDF0B5C1B006460F46144600BF06B955
:10AF400044E000BF00BFFA2C00D93FE000BF22461A
:10AF5000394601A8FFF784FCA1B201A802F04CFE1B
:10AF6000054600BF06221A49304600F079F900B9BB
:10AF70002CE000BF2A122046641C01A90A54204676
:10AF8000641C0D5400BFE1B201A802F06EFD00B9CF
:10AF90001CE000BF9DF8044000BFFA2C00D915E06A
:10AFA00000BF00BF224601A9304600F059F900B9A0
:10AFB0000CE000BF00BF06220649304600F050F901
:10AFC00000B903E000BF012041B0F0BD0020FBE765
:10AFD000B8100108BE100108014604E00A2000E094
:10AFE000401E0028FCD10A1EA1F10101F6D17047D4
:10AFF00010B5044605E0FDF750F940F2E630FFF7E2
:10B00000EBFF201EA4F10104F5D110BD2DE9F041A4
:10B0100004460D46174628E0B4F5004F03D247F624
:10B020009C70854202D90020BDE8F08104F03F0009
:10B03000C0F14000A84204D204F03F00C0F140003B
:10B0400000E028460646F3B2A1B23A46A020FBF73C
:10B0500039FF00B90BE03444AD1B37444FF0FF31EA
:10B06000A020FBF71BFF00B901E0002DD4D100BFE9
:10B070000DB90120D8E700221146104600F07AF8F9
:10B080000020D1E72DE9F04104460D46174628E09F
:10B09000B4F5004F03D247F69C70854202D90020D8
:10B0A000BDE8F08104F03F00C0F14000A84204D2A6
:10B0B00004F03F00C0F1400000E028460646F3B22D
:10B0C000A1B23A46A020FBF730FF00B90BE03444B0
:10B0D000AD1B37446FF07041A020FBF7DFFE00B9D5
:10B0E00001E0002DD4D100BF0DB90120D8E7002226
:10B0F0001146104600F03EF80020D1E72DE9F0415E
:10B1000004460D46174627E0B4F5004F03D247F634
:10B110009C70854202D90020BDE8F08104F03F0018
:10B12000C0F14000A84204D204F03F00C0F140004A
:10B1300000E028460646F3B2A1B23A46A020FBF74B
:10B140001CFF00B90AE03444AD1B6FF07041A02031
:10B15000FBF7A4FE00B901E0002DD5D100BF0DB969
:10B160000120D9E700221146104600F003F8002024
:10B17000D2E7000070B506460C46154626B1012EF2
:10B1800009D0022E12D109E0022001F0F7FA0C4892
:10B1900001F096F80BE0FDF781F808E02DB12B46A1
:10B1A00005220021084601F019F800E000BF00BFA9
:10B1B00024B1012C02D0204601F008FD70BD000032
:10B1C000D56F0008034600BF0BB90020704700BFD1
:10B1D00019605A600020D86098600120F6E700BF2F
:10B1E00000B9704700BF00218160C16000BFF8E76F
:10B1F0000146D1E90202904201D1012070470020AE
:10B20000FCE70146C868401C4A68B0FBF2F302FB49
:10B2100013008A68904201D1012070470020FCE7AA
:10B220000146D1E90202904204D9D1E90202801A12
:10B23000401E7047D1E901021044CA68801A401EBE
:10B24000F7E70146D1E90220904205D24A68C86872
:10B2500010448A68801A7047D1E90220801AFAE700
:10B260002DE9F04104460F46154600BF14B90020F1
:10B27000BDE8F08100BF00BF2046FFF7D1FFA84224
:10B2800001D20020F4E700BFE1686068401AA842DC
:10B2900003D2E1686068401A00E028460646E2688A
:10B2A0002168881832463946FFF7DAFAAA1BB9191D
:10B2B0002068FFF7D5FAE06828446168B0FBF1F236
:10B2C00001FB1200E0600120D2E72DE9F0410446C5
:10B2D0000E46154600BF14B90020BDE8F08100BF3E
:10B2E00000BF2046FFF784FF012801D10020F4E7CA
:10B2F00000BF00BF2046FFF7A4FFA84201D20020F4
:10B30000EBE700BFD4E90101401AA84203D2D4E917
:10B310000101401A00E028460746A268206881180B
:10B320003A463046FFF79CFAEA1BF0192168FFF70E
:10B3300097FAA06828446168B0FBF1F201FB1200A3
:10B34000A0600120C9E770B504460D4600BF0CB9E6
:10B35000002070BD00BF00BF2046FFF752FF01284C
:10B3600001D10020F5E700BFE16820684554E0689E
:10B37000401C6168B0FBF1F201FB1200E0600120AB
:10B38000E7E710B503460C4600BF0BB9002010BD1F
:10B3900000BF00BF1846FFF72BFF012801D1002096
:10B3A000F5E700BF99681868405C20709868401CF9
:10B3B0005968B0FBF1F201FB120098600120E6E74A
:10B3C000F0B503460C46154600BF0BB104B10DB9EC
:10B3D0000020F0BD00BF9968002212E01868405CB0
:10B3E000A65CB04205D1501C0246A84202D1521EB2
:10B3F0000AE00022481C5E68B0FBF6F706FB170067
:10B400000146D8688842E9D100BF58680844801ACC
:10B410005E68B0FBF6F706FB1700DAE7F0B5044606
:10B420000D4600BF206800B10AB90020F0BD00BF82
:10B4300000210EE068186668B0FBF6F706FB1700FF
:10B440002668365C12F8017BBE4201D00020EDE791
:10B45000491C9942EED30120E8E7000010B5802294
:10B4600023492448FFF7AEFE10BD1CB507226946EC
:10B470002048FFF72AFF58B1DDF803309DF802207D
:10B480009DF801109DF8000002F092FD01201CBD06
:10B49000FFF7E4FF0020FAE72DE9FC4105460C46E2
:10B4A00016461F4605EB8500134901EB40008079E5
:10B4B00018B9C72C16DDDD2C14DA8DF800508DF884
:10B4C00001408DF80260CDF80370072269460948F3
:10B4D000FFF7C6FEAFF26D03C8220021032000F083
:10B4E0007DFE02E0284601F0EAF9BDE8FC8100009B
:10B4F00044110020341100203403002010B56049AD
:10B50000012001F07EFB10BD10B504460120207023
:10B510005B4809380068C4F8010059480938416897
:10B52000E160D4F80600564909394968884202D0DA
:10B53000607901280CDD207D00F11502214651487B
:10B54000FFF7F7FC20B9002203210220FFF712FECB
:10B55000D4F806004A490939496888420CD0207D50
:10B5600000F1150221464848FFF7E3FC20B900220C
:10B5700002210846FFF7FEFD10BDF0B5BFB005463D
:10B580000E4617466C4610222946601CFFF768F9E4
:10B590003B480938407A401CC1B2394809384172E9
:10B5A00021740422314604F11100FFF759F9F278B1
:10B5B00039460DF11500FFF753F92046FFF7A4FFB8
:10B5C0003FB0F0BDF0B585B004460D4616461F46A7
:10B5D00001208DF808004FF08830CDF809000020D8
:10B5E000ADF80D008DF800008DF801408DF8025087
:10B5F0008DF803603A46694601A8FFF7BEFF05B023
:10B60000F0BDF0B591B005460E4614461F46012028
:10B610008DF804008DF805508DF806608DF8074010
:10B620002246394602A8FFF71BF9201DC2B201AB22
:10B6300000210846FFF7C6FF11B0F0BD2DE9F04725
:10B6400086B004460D4616461F46DDE90F9ADDF822
:10B6500038808DF80C40CDF80D50ADF81160042005
:10B660008DF804008DF806808DF805708DF8079030
:10B67000524601A902A8FFF780FF06B0BDE8F08797
:10B680005D140020B4030020C4030020252070476F
:10B6900010B5002001F072F810BD10B5044601F09D
:10B6A00067FA03F0F5FD02F0F7FB01F0F4FCFFF799
:10B6B000D5FEFA4802F02CFA002207210220FFF7FB
:10B6C00059FDAFF233034FF47A720021084600F0BF
:10B6D00085FD10BD2DE9F05F83460C46154600261A
:10B6E00002F080FA0746D7F810A0D7F80080D7F804
:10B6F00004900020207042F2D8702178685220789F
:10B70000801C20702178DAF8080068502078001D2D
:10B710002070E349D9F80000884201D1C01701E048
:10B72000D9F80400217868502078001D2070217815
:10B73000D8F8000068502078001D207008F1240619
:10B7400005E031782278501C2070A954761C30789E
:10B750005A2802DC30783028F3DA0120BDE8F09F67
:10B760002DE9F04105460C46164602F03BFA8046AC
:10B77000D8F81070A87850B1B5F8031078688842EE
:10B7800005D0B5F803004FF6FF71884210D10020B4
:10B790002070B888217870522078801C2070217821
:10B7A000B86870502078001D20700120BDE8F0813D
:10B7B0001220FBE710B50446A078042801DCA0782D
:10B7C00008B90F2010BDD4F80300B449091F086060
:10B7D000042001F016FA08B91020F3E70120F1E780
:10B7E0000346AE48001F0068106004200870012066
:10B7F000704770B504466568E67815B1B5F1FF3F4E
:10B8000001D10E2070BD3146284601F032FAF9E729
:10B8100070B506460C46154601F065FA286004200E
:10B820002070012070BD03469C48001F40681060D6
:10B83000042008700120704710B50446E078052800
:10B8400001DCE07808B90F2010BDE0789349091FAA
:10B8500008720831012001F0D4F908B91020F3E78B
:10B860000120F1E703468D48001F007A1070012087
:10B870000870704770B50546A878192806DCA878C6
:10B88000052190FBF1F201FB120008B10F2070BD01
:10B89000A878052190FBF1F0C6B200240EE004EB7D
:10B8A0008401E81C405C28B104EB8401E81C405C86
:10B8B000052801DD0E20EAE7601CC4B2B442EEDBCD
:10B8C000002410E004EB8400401CE91C0A5804EB3F
:10B8D0008401E81C405C401E7049891D01EB80001A
:10B8E0000260601CC4B2B442ECDB6C49891D1420B8
:10B8F00001F087F908B91020C9E70120C7E7F0B5C2
:10B9000003460C460025D878FF2827D10020207058
:10B91000002120E06148801D00EB81000068C0B17B
:10B920005E48801D00EB81000068401C88B1481C07
:10B9300005EB850690555948801D00EB810006688F
:10B9400005EB8507501CC6512078401D2070681CEF
:10B95000C5B2481CC1B20529DCDB13E0D87810B1B0
:10B96000D878052801DD0F20F0BDD8781070D87880
:10B97000401E4A4EB61D06EB80000068C2F801006A
:10B98000052020700120EFE710B50446E07808B1EB
:10B99000012000E000204149091F88771E31012065
:10B9A00001F02FF908B9102010BD0120FCE7034673
:10B9B0003A48001F807F012800D100E0002010706D
:10B9C00001200870704770B50446A078052801DC96
:10B9D000A07808B90F2070BDE078C0B9012511E04A
:10B9E00005EB85012F4A606842F8110005EB8500E0
:10B9F00002EB4001042001F024F908B91020EAE725
:10BA0000681CC5B2FCF7FAFFA842E9DC18E0FCF7B5
:10BA1000F5FFE178884201DC0E20DCE7E17801EBFC
:10BA20008101204A606842F81100E07800EB800054
:10BA300002EB4001042001F004F908B91020CAE724
:10BA40000120C8E72DE9F04104460D461646A078CE
:10BA5000032801DCA07810B90F20BDE8F081E07860
:10BA6000A0B90127002028700BE007EB87000D49E3
:10BA700051F81000297870502878001D2870781C23
:10BA8000C7B2FCF7BBFFB842EFDC16E0FCF7B6FF2D
:10BA9000E178884208DC0E20DFE70000581400201F
:10BAA000558778AA34030020E07800EB8000F7493E
:10BAB00051F810003060042028700120CDE770B5E7
:10BAC0000446A078032801DCA07808B90F2070BDD7
:10BAD000E078D0B9012513E0A08805EB8501EB4A99
:10BAE00002EB4101888005EB850002EB4000011D5F
:10BAF000022001F0A6F808B91020E8E7681CC5B2DA
:10BB0000FCF77CFFA842E7DC1AE0FCF777FFE1785E
:10BB1000884201DC0E20DAE7A088E17801EB8101A0
:10BB2000DA4A02EB41018880E07800EB800002EB0A
:10BB30004000011D022001F084F808B91020C6E77A
:10BB40000120C4E72DE9F04104460D461646A078D1
:10BB5000032801DCA07810B90F20BDE8F081E0785F
:10BB6000A8B90127002028700CE007EB8700C7491F
:10BB700001EB40008088297870522878801C28705A
:10BB8000781CC7B2FCF73AFFB842EEDC10E0FCF7D5
:10BB900035FFE178884201DC0E20DEE7E07800EB3B
:10BBA0008000BA4901EB4000808830800220287074
:10BBB0000120D2E770B50446A078022801DCA07805
:10BBC00008B90F2070BDE078D0B9012513E02079C5
:10BBD00005EB8501AD4A02EB4101C87105EB85001B
:10BBE00002EB4000C11D012001F02BF808B9102024
:10BBF000E8E7681CC5B2FCF701FFA842E7DC1AE0E1
:10BC0000FCF7FCFEE178884201DC0E20DAE72079BF
:10BC1000E17801EB81019D4A02EB4101C871E078B6
:10BC200000EB800002EB4000C11D012001F009F88B
:10BC300008B91020C6E70120C4E72DE9F041044609
:10BC40000D461646A078022801DCA07810B90F2016
:10BC5000BDE8F081E078A8B90127002028700CE049
:10BC600007EB8700894901EB4000C07929787054BF
:10BC70002878401C2870781CC7B2FCF7BFFEB84279
:10BC8000EEDC10E0FCF7BAFEE178884201DC0E2021
:10BC9000DEE7E07800EB80007C4901EB4000C079F2
:10BCA0003070012028700120D2E770B50446A078DA
:10BCB000032801DCA07808B90F2070BDE07808BB2C
:10BCC00001251AE0207905EB8501704A02EB41015C
:10BCD0000872607905EB850102EB4101487205EBC2
:10BCE000850002EB400000F10801022000F0A9FFEE
:10BCF00008B91020E1E7681CC5B2FCF77FFEA84236
:10BD0000E0DC22E0FCF77AFEE178884201DC0E20DC
:10BD1000D3E72079E17801EB81015C4A02EB410134
:10BD200008726079E17801EB810102EB4101487210
:10BD3000E07800EB800002EB400000F108010220F7
:10BD400000F07FFF08B91020B7E70120B5E72DE923
:10BD5000F04104460D461646A078032802DD0F2068
:10BD6000BDE8F081E07808B1A078F0B901270020A3
:10BD7000287015E007EB8700444901EB4000007A8A
:10BD80002978705407EB8700404901EB4000417A65
:10BD90002878401C31542878801C2870781CC7B241
:10BDA000FCF72CFEB842E5DC17E0FCF727FEE17853
:10BDB000884201DC0E20D3E7E07800EB80003349B5
:10BDC00001EB4000007A3070E07800EB800001EB7E
:10BDD0004000407A7070022028700120C0E770B5E2
:10BDE0000446A078052801DCA07808B90F2070BDB2
:10BDF000E078D0B9012513E0207905EB8501234ACD
:10BE000002EB4101887105EB850002EB4000811DCA
:10BE1000012000F016FF08B91020E8E7681CC5B241
:10BE2000FCF7ECFDA842E7DC1AE0FCF7E7FDE1785F
:10BE3000884201DC0E20DAE72079E17801EB81010C
:10BE4000124A02EB41018871E07800EB800002EBBE
:10BE50004000811D012000F0F4FE08B91020C6E763
:10BE60000120C4E72DE9F04104460D461646A078AE
:10BE7000032802DD0F20BDE8F081E07808B1A0784A
:10BE8000C0B90127002028700FE000003403002013
:10BE900007EB8700A34901EB4000807929787054B3
:10BEA0002878401C2870781CC7B2FCF7A7FDB84260
:10BEB000EEDC10E0FCF7A2FDE178884201DC0E2008
:10BEC000D9E7E07800EB8000964901EB40008079EB
:10BED0003070012028700120CDE72DE9F0410446A3
