:020000040800F2
:10C40000E82500204DC8000855C8000857C8000896
:10C4100059C800085BC800085DC80008000000009B
:10C420000000000000000000000000005FC80008DD
:10C4300061C800080000000063C80008991C0108DA
:10C4400067C8000867C8000867C8000867C8000810
:10C4500067C8000867C80008FD25010867C800080C
:10C4600067C8000867C8000867C8000867C80008F0
:10C4700067C8000867C8000867C8000867C80008E0
:10C4800067C8000867C8000867C8000867C80008D0
:10C4900067C8000867C8000867C8000867C80008C0
:10C4A00067C8000867C8000867C8000867C80008B0
:10C4B00067C8000867C8000867C8000867C80008A0
:10C4C00067C8000867C8000867C8000867C8000890
:10C4D00067C80008B91E010867C8000867C80008D7
:10C4E000FF16010867C8000867C8000867C8000889
:10C4F00067C8000800F002F800F05AF80AA090E8B7
:10C50000000C82448344AAF10107DA4501D100F00E
:10C510004FF8AFF2090EBAE80F0013F0010F18BF81
:10C52000FB1A43F001031847388F0000588F0000B2
:10C530000A444FF0000C10F8013B13F0070408BF49
:10C5400010F8014B1D1108BF10F8015B641E05D0E7
:10C5500010F8016B641E01F8016BF9D113F0080F9C
:10C560001EBF10F8014BAD1C0C1B09D16D1E58BF2E
:10C5700001F801CBFAD505E014F8016B01F8016B65
:10C580006D1EF9D59142D6D37047000000230024D8
:10C5900000250026103A28BF78C1FBD8520728BFD3
:10C5A00030C148BF0B6070471FB51FBD10B510BD2F
:10C5B00007F0C8FE1146FFF7F7FF06F043F807F053
:10C5C000E6FE03B4FFF7F2FF03BC07F0EDFE000048
:10C5D00072B6704762B6704730BF72B662B680F30B
:10C5E0000888704780F310887047EFF3108072B6A8
:10C5F000704700000CB5002001900090874800684B
:10C6000040F480308549086000BF8448006800F429
:10C61000003000900198401C0190009818B90198D2
:10C62000B0F5A04FF1D17D48006800F4003010B1A2
:10C630000120009001E0002000900098012859D1CD
:10C640007748006840F004007549086008460068B3
:10C6500040F0020008600846006840F001000860F1
:10C660006E482430006840F080506C4924310860E6
:10C67000C8146C49086000BF6A48406800F01000A8
:10C680000028F9D16548083000686449083108601D
:10C6900008460068086008460068086008460068A8
:10C6A00020F47D0008600846006840F4110008602E
:10C6B0005A48006840F080705849086000BF5748E9
:10C6C000006800F000700028F9D054480830006875
:10C6D00020F003005149083108600846006840F026
:10C6E0000300086000BF4D480830006800F00C00EF
:10C6F0000C28F8D10CBD10B54848006840F4807093
:10C7000046490860454808300068474908404349A1
:10C710000831086041480068444908403F490860C2
:10C720000846006820F4802008603C480830006813
:10C7300020F47D003949083108600020091D086097
:10C74000FFF758FF3A4800683A49086010BD70B5D5
:10C7500000220020002100240023304D08352D68E0
:10C7600005F00C0232B1042A10D0082A12D00C2A8B
:10C7700039D113E0294D2D1D2D68C5F342335D1CC1
:10C780000126AE40F5032C4E356038E02B4D2A4E85
:10C79000356034E02A4D284E356030E01F4D0835B5
:10C7A0002D6805F470101D4D08352D6805F4400105
:10C7B000244D05EB90452878012505EB9151174D47
:10C7C00008352D6805F4803434B91C4D4543B5FB5C
:10C7D000F1F5194E356005E0194D4543B5FBF1F50E
:10C7E000154E35600BE00D4D2D1D2D68C5F3423300
:10C7F0005D1C0126AE40F5030F4E356000BF00BF43
:10C80000064D08352D68C5F303150F4E725D0A4DB0
:10C810002D68D540084E356070BD000000380240DC
:10C82000003C0240007000400CC0FF88FEFFFEEE9E
:10C830000804000808ED00E0000000200024F400D7
:10C8400000127A00040000200D00002009488047F3
:10C8500009480047FEE7FEE7FEE7FEE7FEE7FEE7E2
:10C86000FEE7FEE7FEE7FEE704480549054A064BFA
:10C8700070470000F7C60008F5C40008E81B002058
:10C88000E8250020E81D0020E81D002030B5884282
:10C8900009D003460C4604E014F8015B03F8015B81
:10C8A000521E002AF8D130BDF0B503468B420DD0A0
:10C8B0001D460C4608E015F8016B14F8017BBE42DA
:10C8C00001D00120F0BD521E002AF4D10020F9E76A
:10C8D00010B5034602E003F8011B521E002AFAD1EC
:10C8E00010BD70B588420AD203460C4604E014F825
:10C8F000015B03F8015B521E002AF8D10DE088426B
:10C900000BD983188C1806E0651E2C462E785D1E08
:10C910002B462E70521E002AF6D170BDF0B505468A
:10C920000C4616462F46314614E011F801CB3878F4
:10C9300084450DD1012200E0521CA24204D211F81C
:10C9400001CBB85C8445F7D0A24201D1881AF0BD72
:10C950005B1E491C002BE8D10020F8E770B50446A7
:10C9600000260E70254610460AE010F8016B05F807
:10C97000016B0E78761C0E70067806B970BD5B1ED2
:10C98000002BF2D100260E7000BFF7E70146B1F18F
:10C99000883F01D102207047AF480068884201D12A
:10C9A0000320F8E70020F6E710B50446607810B1E0
:10C9B000012825D114E0601D00F006FBC0B22070F4
:10C9C00000B920E0A078012802D1A448007A00E054
:10C9D0000120E070D4F81100FFF7D8FF207100BFEC
:10C9E00022792178601DD4F80431984720B1E0788D
:10C9F000401EC0B2E07010B10120607003E000BFC3
:10CA00000020607000BF00BF10BD10B59448FFF754
:10CA1000CBFF10BD0146881E0C280FD2DFE800F0C6
:10CA2000060E0E0A0E070E080E0B0E0C00BF00BFFE
:10CA30000320704700BF00BF0620FAE700BF00BF19
:10CA40000020F6E7F8B504460D266078854901EB2D
:10CA50000010C5680020009005F028FE617888422B
:10CA600052DD00BFA1782868884242D12078022890
:10CA700008D02078042805D02078072802D0207814
:10CA8000092820D1A868E0B16078774901EBC0009F
:10CA9000807918B9092603F07CFA29E0601CA9689E
:10CAA00088470646022E23D12868CF2800D90126C0
:10CAB000E07800909DF80020211D601DFFF711FF18
:10CAC00016E00A2614E02078052805D020780B28E7
:10CAD00002D020780D280AD1E86830B1621D69467D
:10CAE000601CEB689847064602E00B2600E00C2627
:10CAF00009E005F11000296805460068814202D26C
:10CB00002868FF28AED900BF9DF80000401CE070E7
:10CB100026713046F8BD2DE9F8430746884614468D
:10CB20001E4604F11103621C41463846009601F08E
:10CB3000A8FD0546012827D104F11100FFF782FF67
:10CB40000546032D20D005F0C8FC04F055FA607CA2
:10CB5000022812D0607C05280FD0607C072802D004
:10CB6000607C0B2801D1012D07D0607C092802D000
:10CB7000607C0D2808D1012D06D0607CFFF74AFFAC
:10CB80006074204601F00EFCBDE8F8832DE9F04109
:10CB900004460D461746A61D04F11B0332462946DE
:10CBA0002046FFF7B8FF0120BDE8F08110B54FF433
:10CBB00080622E492E4800F025FD00202D49487046
:10CBC0008870AFF23700C1F8040100202449487092
:10CBD000012088702848C1F80401284B0322002155
:10CBE000022002F0B2FD10BD1D49C1F804017047DA
:10CBF00070B505460C46607810B1012826D115E0C5
:10CC00002946601D00F03CF8C0B2207000B920E059
:10CC1000A078012802D11148007A00E00120E070DC
:10CC2000D4F81100FFF7B2FE207100BF22792178FD
:10CC3000601DD4F80431984720B1E078401EC0B29E
:10CC4000E07010B10120607003E000BF0020607050
:10CC500000BF00BF70BD000088000020341A002013
:10CC6000C0060020A04D0108441B0020B801002090
:10CC7000A8010020B8050020A31701080BCA00086E
:10CC80002DE9F04106460C4600BF04B96AE000BF3A
:10CC900000BF204600F0CCFC012800D162E000BFBC
:10CCA0000622F749204600F0ABFD0546A56000BF0F
:10CCB000204600F0BDFC012800D153E000BF1B2539
:10CCC00000BF204600F0DDFCA84200D24AE000BFD1
:10CCD000A0682844401E6168B0FBF1F201FB12001D
:10CCE0002168085C0830054400BFFF2D00D930E002
:10CCF00000BF00BF204600F0C4FCA84200D231E0D3
:10CD000000BF00BFA0682844801F6168B0FBF1F23B
:10CD100001FB12070623DB4A3946204600F09EFD40
:10CD200000B916E000BF00BF2A463146204600F099
:10CD3000ECFC00B916E000BF00BFA5F10C0081B209
:10CD4000B01D00F031FB00B10CE000BF2846BDE88B
:10CD5000F081A068801D6168B0FBF1F201FB120058
:10CD6000A06000BF0020F2E72DE9F04105460E4625
:10CD7000174600BF05B933E000BF00BF0622C04917
:10CD8000284600F08DFC00B92AE000BFB9B2304659
:10CD900000F00AFB044600BF3A463146284600F040
:10CDA0007FFC00B91CE000BF00BF2112284600F044
:10CDB000EAFC00B914E000BF00BFE1B2284600F071
:10CDC000E2FC00B90CE000BF00BF0622AD492846D6
:10CDD00000F066FC00B903E000BF0120BDE8F0816F
:10CDE0000020FBE72DE9F0478246884614461F469F
:10CDF0004FF000092078401EA34951F8200040441C
:10CE0000807E00F123092178491E9F4A52F82110A3
:10CE100001EB080006229A49FFF746FD68B3227825
:10CE2000501EC21700EB5272D210BA5C2378591E02
:10CE3000CB1701EB5373DB10A1EBC30C012303FAF7
:10CE40000CF39A432378581EC31700EB5373DB107F
:10CE5000FA54012503E0605D00B902E06D1C182D55
:10CE6000F9D300BF002603E0701C205CA055761C9F
:10CE7000AE42F9D30020BDE8F0872178491E824AEE
:10CE800052F8211041444944881F06227D49FFF78A
:10CE90000BFD60B32278501EC21700EB5272D21005
:10CEA000BA5C2378591ECB1701EB5373DB10A1EB4F
:10CEB000C30C012303FA0CF39A432378581EC317BB
:10CEC00000EB5373DB10FA54012503E0605D00B9F9
:10CED00002E06D1C182DF9D300BF002603E0701C82
:10CEE000205CA055761CAE42F9D30020C3E7207821
:10CEF000401E654A52F8200000EB08014A465046A1
:10CF0000FFF7C4FCA9F10C0081B20AF1060000F0A1
:10CF10004BFA60B32278501EC21700EB5272D21047
:10CF2000BA5C2378591ECB1701EB5373DB10A1EBCE
:10CF3000C30C012303FA0CF39A432378581EC3173A
:10CF400000EB5373DB10FA54012503E0605D00B978
:10CF500002E06D1C182DF9D300BF002603E0701C01
:10CF6000205CA055761CAE42F9D3002083E72278DE
:10CF7000501EC21700EB5272D210BA5C2378591EB1
:10CF8000CB1701EB5373DB10A1EBC30C012303FAA6
:10CF90000CF39A432378581EC31700EB5373DB102E
:10CFA000FA54012503E0605D00B902E06D1C182D04
:10CFB000F9D300BF002603E0701C205CA055761C4E
:10CFC000AE42F9D3484656E770B5044600250CB981
:10CFD000002070BD2D48007838B92D48007820B960
:10CFE0002C48007808B90020F3E72848007808B1F9
:10CFF000264D08E02648007808B1254D03E0254875
:10D00000007800B1234D244B2A4624492046FFF7DF
:10D01000E9FEDEE72DE9FF4F85B00E4692461D463C
:10D02000002000901FFA8AF1059800F0BDF90190E8
:10D030000198010201EB202080B200900AF10E005D
:10D040001FFA80FBBBF1320F04DC0020039012209A
:10D05000029029E0BBF1320F07DDBBF1640F04DC65
:10D0600010200390182002901EE0BBF1FA0F17DC8D
:10D07000BBF1640F14DD162003901820029013E01A
:10D08000584901085E49010824000020340F00209F
:10D090004C0F0020640F002020000020C807002053
:10D0A000002009B0BDE8F08F039CD0E0E21704EB4C
:10D0B0005272D210B44B9A5CE31704EB5373DB103B
:10D0C000A4EBC30C012303FA0CF31A40002A7CD111
:10D0D000AE4951F8241088190622AD49FFF7D6FB56
:10D0E000AA4951F824103144881D52460599FFF78A
:10D0F000CDFBA64951F824103144891D01EB0A00EB
:10D1000002226946FFF7C2FBA04951F824103144BE
:10D11000891D5144881C06229E49FFF7B7FBE21780
:10D1200004EB5272D210984B9A5C2146E31704EB41
:10D130005373DB10A4EBC30C012303FA0CF31A4363
:10D140002046E31704EB5373DB10DFF83CC20CF806
:10D1500003204FF0000873E015F8080000286BD199
:10D16000601C05F80800C146002762E0874850F8B7
:10D1700024003044D0F80700B0F1FF3F57D0834A75
:10D1800052F824203244911DEA5D521E7F4B53F821
:10D1900022203244901D1022FFF786FB98BB7B4A69
:10D1A00052F82420324402F11701EA5D521E774BF7
:10D1B00053F82220324402F117000322FFF774FBD8
:10D1C00008BBEA5D501EC21700E03EE000EB527261
:10D1D000D310129AD25CEB5D591ECB1701EB53733F
:10D1E000DB10A1EBC30C012303FA0CF39A43EB5DB4
:10D1F000581EC31700EB53734FEAE30C129B03F85E
:10D200000C20049709E012E00498401C295C049863
:10D2100029540498401CC0B2049004984845F3DB9C
:10D22000002005F80900A9F1010000F0FF09781CB1
:10D23000C7B24F459ADB06E008F1010000F0FF0895
:10D24000B8F1180F88DB00BF05E0601CC4B202987B
:10D250008442FFF62BAF00BF172C01DD002020E732
:10D2600001201EE7F8B504460D4600260CB9002043
:10D27000F8BD607C032802D0607C062801D1464EB0
:10D280000AE0607C042801D1444E05E0D4F8060091
:10D29000B0F1883F00D1424E3B4833462A464149CF
:10D2A00000902046FFF7B6FEE2E72DE9F047814601
:10D2B0000D46322D03D800274FF0120812E0322D10
:10D2C00005D9642D03D810274FF018080AE0FA2D6D
:10D2D00005D8642D03D916274FF0180802E0002066
:10D2E000BDE8F0873C4645E0E21704EB5272D210ED
:10D2F000254B9A5CE31704EB5373DB10A4EBC30CD0
:10D30000012303FA0CF31A408ABB204951F8241078
:10D31000244A88182A464946FFF7B8FAE21704EB70
:10D320005272D210184B9A5C2146E31704EB5373E8
:10D33000DB10A4EBC30C012303FA0CF31A432046C1
:10D34000E31704EB5373DB10DFF83CC00CF8032049
:10D35000002608E01048805D18B9601C0E49885509
:10D3600003E0701CC6B2182EF4DB00BF04E0FFE738
:10D37000601CC4B24445B7DB00BF172C01DD0020A0
:10D38000AEE70120ACE700002000002024000020D0
:10D39000584901085E490108340F00204C0F002055
:10D3A000640F0020C807002070B503460C46002516
:10D3B000002600210DE0585C80EA0502154810F8AF
:10D3C000120080EA0605134830F812000612481CC5
:10D3D00081B2A142EFDB46EA052070BDF0B50446FC
:10D3E0000D46002600271612D7B200210DE0605C22
:10D3F00080EA0603074810F8130080EA070605488C
:10D4000030F813000712481C81B2A942EFDB47EA4B
:10D410000620F0BD64490108014604E00A2000E04E
:10D42000401E0028FCD10A1EA1F10101F6D170476F
:10D4300010B5044605E004F057FD40F2E630FFF772
:10D44000EBFF201EA4F10104F5D110BD2DE9F04140
:10D4500004460D46174628E0B4F5004F03D247F6C0
:10D460009C70854202D90020BDE8F08104F03F00A5
:10D47000C0F14000A84204D204F03F00C0F14000D7
:10D4800000E028460646F3B2A1B23A46A02003F0D7
:10D4900011FD00B90BE03444AD1B37444FF0FF31B0
:10D4A000A02003F0F3FC00B901E0002DD4D100BFAF
:10D4B0000DB90120D8E700220121104600F07AF8CA
:10D4C0000020D1E72DE9F04104460D46174628E03B
:10D4D000B4F5004F03D247F69C70854202D9002074
:10D4E000BDE8F08104F03F00C0F14000A84204D242
:10D4F00004F03F00C0F1400000E028460646F3B2C9
:10D50000A1B23A46A02003F008FD00B90BE0344474
:10D51000AD1B37446FF07041A02003F0B7FC00B999
:10D5200001E0002DD4D100BF0DB90120D8E70022C1
:10D530000121104600F03EF80020D1E72DE9F0412E
:10D5400004460D46174627E0B4F5004F03D247F6D0
:10D550009C70854202D90020BDE8F08104F03F00B4
:10D56000C0F14000A84204D204F03F00C0F14000E6
:10D5700000E028460646F3B2A1B23A46A02003F0E6
:10D58000F4FC00B90AE03444AD1B6FF07041A020F8
:10D5900003F07CFC00B901E0002DD5D100BF0DB92E
:10D5A0000120D9E700220121104600F003F80020F5
:10D5B000D2E7000070B506460C46154626B1012E8E
:10D5C00009D0022E12D109E0022002F0B5FC0C486D
:10D5D00002F03DF90BE004F0A5FC08E02DB12B466C
:10D5E00005220021084602F0B0F800E000BF00BFAD
:10D5F000012C04D0022C02D0204602F0DDFD70BDCB
:10D60000C50F0108034600BF0BB90020704700BFDB
:10D6100019605A600020D86098600120F6E700BFCA
:10D6200000B9704700BF00218160C16000BFF8E70A
:10D630000146D1E90202904201D101207047002049
:10D64000FCE70146C868401C4A68B0FBF2F302FBE5
:10D6500013008A68904201D1012070470020FCE746
:10D660000146D1E90202904204D9D1E90202801AAE
:10D67000401E7047D1E901021044CA68801A401E5A
:10D68000F7E70146D1E90220904205D24A68C8680E
:10D6900010448A68801A7047D1E90220801AFAE79C
:10D6A0002DE9F04104460F46154600BF14B900208D
:10D6B000BDE8F08100BF00BF2046FFF7D1FFA842C0
:10D6C00001D20020F4E700BFE1686068401AA84278
:10D6D00003D2E1686068401A00E028460646E26826
:10D6E0002168881832463946FFF7D0F8AA1BB919C5
:10D6F0002068FFF7CBF8E06828446168B0FBF1F2DE
:10D7000001FB1200E0600120D2E72DE9F041044660
:10D710000E46154600BF14B90020BDE8F08100BFD9
:10D7200000BF2046FFF784FF012801D10020F4E765
:10D7300000BF00BF2046FFF7A4FFA84201D200208F
:10D74000EBE700BFD4E90101401AA84203D2D4E9B3
:10D750000101401A00E028460746A26820688118A7
:10D760003A463046FFF792F8EA1BF0192168FFF7B6
:10D770008DF8A06828446168B0FBF1F201FB12004B
:10D78000A0600120C9E770B504460D4600BF0CB982
:10D79000002070BD00BF00BF2046FFF752FF0128E8
:10D7A00001D10020F5E700BFE16820684554E0683A
:10D7B000401C6168B0FBF1F201FB1200E060012047
:10D7C000E7E710B503460C4600BF0BB9002010BDBB
:10D7D00000BF00BF1846FFF72BFF012801D1002032
:10D7E000F5E700BF99681868405C20709868401C95
:10D7F0005968B0FBF1F201FB120098600120E6E7E6
:10D80000F0B503460C46154600BF0BB104B10DB987
:10D810000020F0BD00BF9968002212E01868405C4B
:10D82000A65CB04205D1501C0246A84202D1521E4D
:10D830000AE00022481C5E68B0FBF6F706FB170002
:10D840000146D8688842E9D100BF58680844801A68
:10D850005E68B0FBF6F706FB1700DAE7F0B50446A2
:10D860000D4600BF206800B10AB90020F0BD00BF1E
:10D8700000210EE068186668B0FBF6F706FB17009B
:10D880002668365C12F8017BBE4201D00020EDE72D
:10D89000491C9942EED30120E8E700001FB5044679
:10D8A0007D4904F109020868611D02F0A1F9002810
:10D8B0004DD0B4F8030000900D20005B0390206968
:10D8C00001907548001D0068B0F1082F1FD1552048
:10D8D0007249087072480088402808D0802809D012
:10D8E000B0F5807F09D0B0F5007F0CD108E06D481D
:10D8F00002900BE06C48029008E06C48029005E052
:10D900006B48029002E06748029000BF05E0AA2041
:10D91000624908704FF008200290E07B694602F0EF
:10D9200072F998B1F120634908700720A0705A4835
:10D93000001F0088A4F8030057480168C4F80510C8
:10D94000564801786172022004B010BD00BF0E205D
:10D95000FAE710B5044604F0C7FA56480078F128F3
:10D960000DD1E0784D490978884206D1A278D21EBF
:10D97000D1B2A088A21D02F08DF9012010BD4D4842
:10D980000078F22801D10120F8E700204949087009
:10D990000320F3E770B506460C46154604F0A4FADA
:10D9A00044480078F1280BD12946204602F0AAF914
:10D9B00020B1F2203F490870012070BD0020FCE733
:10D9C0003C480078F22801D10120F6E700203949CF
:10D9D00008700320F1E710B5044636480078F228B5
:10D9E00022D1E079217A4840E071207AE1794840FB
:10D9F0002072E079217A4840E0710722115BD4F867
:10DA0000030002F0A5F9012814D12348001F02F0F9
:10DA1000F3F978B102F003FA60B1F32025490870F8
:10DA200004F080FA012010BD22480078F32801D1CB
:10DA30000120F8E700201F4908701220F3E710B515
:10DA40000446A078012801D00F2010BDE0785128AD
:10DA500002DBE078562801DD0E20F6E702F0B2F98D
:10DA6000E17888420CD0E07802F081F908B9122000
:10DA7000EBE7114B4FF448720021084601F065FEB8
:10DA80000120E2E770B506460C46154602F09AF909
:10DA900028700120207070BD04040008850000205B
:10DAA0004C00F81F0084000800C40008009801081A
:10DAB0000028030884000020ED11010810B5802221
:10DAC00021492248FFF79EFD10BD1CB5072269467B
:10DAD0001E48FFF71AFE58B1DDF803309DF802200A
:10DAE0009DF801109DF8000000F048FA01201CBDCF
:10DAF000FFF7E4FF0020FAE72DE9FC4105460C465C
:10DB000016461F46124800EBC500807918B9C72C8D
:10DB100016DDDD2C14DA8DF800508DF801408DF8FB
:10DB20000260CDF80370072269460848FFF7B8FD88
:10DB3000AFF26903C8220021032001F006FE01E0D4
:10DB400002F027FABDE8FC818C0F00207C0F00203A
:10DB5000441B002038B5A520009000BF4FF40050B2
:10DB600004466A460121FFF7ADFCBC4890F87206F6
:10DB700070B140F273620021B848FEF7A9FE00BF01
:10DB800042F201000446B54A40F27361FFF79AFC85
:10DB900038BD10B500BF42F201000446AF4A40F262
:10DBA0007361FFF753FC00B910BDAC4890F87206E2
:10DBB000322801DDFFF7CEFF00BFF5E72DE9F04188
:10DBC00005460E4600241FE004EB4410A349085C00
:10DBD000C0B104EB44100844C07C1230C7B204EB5F
:10DBE00044100A461044811C3A463046FEF75CFE5B
:10DBF00040B904EB4410994908444078287001204A
:10DC0000BDE8F081601CC4B2944890F87206A0424E
:10DC1000DADC0020F4E710B5034601221FE0002102
:10DC20000DE001EB41108D4C205C30B101EB411057
:10DC300020444078904200D106E0481CC1B2874899
:10DC400090F872068842ECDC00BF844890F87206B7
:10DC5000884202D11A70012010BD501CC2B2FE2AA7
:10DC6000DDDB0020F8E7024600210EE001EB411069
:10DC70007A4B185C38B101EB41101844407890425F
:10DC800001D108467047481CC1B2744890F872062A
:10DC90008842EBDCFF20F5E7704890F872063228E6
:10DCA00001DB012070470020FCE72DE9F04104462C
:10DCB0000D46164604EB441068490844C07C1230F7
:10DCC000C7B204EB44100A461044811C3A46304661
:10DCD000FEF7DCFD2F700120BDE8F0812DE9F04753
:10DCE00004460E4617461D46A5F10209322C3DDCBE
:10DCF00099F81300123000F0FF0804EB4411574A62
:10DD00001144881C42462946FEF7C0FD012004EB61
:10DD10004411524A505404EB4410114608444670D2
:10DD200000BF42F20100212101FB040A04EB441070
:10DD30001146421821215046FFF7C4FB9FB14748C6
:10DD400090F87206401C454981F8720600BF42F205
:10DD500001014348414A801A01EB000A404A01216F
:10DD60005046FFF7AFFB0120BDE8F0870020FBE73E
:10DD700070B50446394890F87206401EA0423AD069
:10DD8000364A92F87226521E02EB4212334BD118D9
:10DD900004EB4412D0182122FEF778FD00BF42F2B6
:10DDA0000100212101FB040504EB44102B4942181A
:10DDB00021212846FFF786FB284991F87216491E53
:10DDC00001EB4111254A881821220021FEF780FD30
:10DDD00000BF42F20101214890F87206401E212244
:10DDE00002FB001504EB44101C494218212128466F
:10DDF000FFF768FB15E004EB4411184A881821224C
:10DE00000021FEF765FD00BF42F20100212101FB68
:10DE1000040504EB44101149421821212846FFF75C
:10DE200051FB0E4890F87206002814DD0B4890F85C
:10DE30007206401E094981F8720600BF42F20101D4
:10DE40000748064A801A0D18054A01212846FFF79F
:10DE500039FB012070BD0020FCE700000C10002001
:10DE60007E16002010B5FFF794FE10BD10B5FFF729
:10DE700071FE10BD10B50446092C3AD2DFE804F05B
:10DE800039050B11171D23293100994201DA0120B0
:10DE900010BD0020FCE7994201DC0120F8E70020DA
:10DEA000F6E7994201DD0120F2E70020F0E7994210
:10DEB00001DB0120ECE70020EAE7994201D10120D3
:10DEC000E6E70020E4E7994201D00120E0E70020E6
:10DED000DEE7994203DC9A4201DB0120D8E700200B
:10DEE000D6E7994201DC9A4201DA0120D0E700200E
:10DEF000CEE70020CCE70146092916D2DFE801F081
:10DF000015090F0D0B05071113000620704705209A
:10DF1000FCE70420FAE70120F8E70220F6E70320F7
:10DF2000F4E70820F2E70720F0E70020EEE70346D9
:10DF3000092B1ED2DFE803F01D05060A0B1D1D0F7D
:10DF4000160000BF0868401C086014E000BF0868A5
:10DF5000401E08600FE00868401C08601068401E02
:10DF6000106008E00868401C08601068401E1060DF
:10DF700001E00020704700BF0120FBE72DE9FE4FC4
:10DF800005460E4691461F46002480E004EB4410EF
:10DF90004349085C012878D14FF0000804EB441095
:10DFA0000844007A010604EB44103D4A1044C0794D
:10DFB00001EB004104EB44101044807901EB002098
:10DFC00004EB44111144497900EB010804EB4410BF
:10DFD000114608448078A84256D104EB4410084406
:10DFE000C078B04250D104EB4411114408793B464B
:10DFF00000224146FFF73EFFE8B304EB44102849F6
:10E000000844007B010604EB4410254A1044C07A02
:10E0100001EB004104EB44101044807A01EB002036
:10E0200004EB44111144497A00EB010804EB44105D
:10E0300011460844143004EB44111144C97C04EB2C
:10E040004412174B1A44927CCDE90021029004EB54
:10E0500044119C46614491F80EC004EB44119A4669
:10E060005144C97B0CEB01218AB204EB44119C465C
:10E0700061444B7C01E007E007E004EB441161449C
:10E08000487B414600F01CFA00BF601CC4B2044843
:10E0900090F87206A0423FF779AF0120BDE8FE8FED
:10E0A0000C10002010B50446012C02D1FFF7F4FD3E
:10E0B00010BDFF20FCE770B504460D46012C03D1CE
:10E0C0002846FFF7D0FD70BDFF20FCE730B50346C2
:10E0D0000C46012B18D100210BE001EB4110AD4D96
:10E0E000285C20B101EB4110284440785054481C72
:10E0F000C1B2A84890F872068842EEDCA54890F8B4
:10E1000072062070012030BDFF20FCE72DE9F041B0
:10E1100004460D4616461F46012C06D13A463146A6
:10E120002846FFF7C2FDBDE8F081FF20FBE72DE99F
:10E13000F04104460D4616461F46DDF81880012CB6
:10E1400012D1FF2D03D1934991F8721600E02946B0
:10E15000084643463A463146FFF7C0FD10B101205C
:10E16000BDE8F0810020FBE7FF20F9E770B5044629
:10E17000012C10D140F2736200218648FEF7A8FB03
:10E1800000BF42F201000546824A40F27361FFF788
:10E1900099F9012070BDFF20FCE770B505460C46DB
:10E1A000012D07D1322C03DA2046FFF7E1FD70BDC7
:10E1B0000020FCE7FF20FAE770B504460D4616463E
:10E1C000012C04D131462846FFF7F8FC70BDFF2032
:10E1D000FCE770B504460D46012C03D12846FFF735
:10E1E0001AFD70BDFF20FCE72DE9FC4107460C46F7
:10E1F000224601A93846FFF7DFFFF0B93846FFF79E
:10E2000051FF012802D11320BDE8FC8101A9384645
:10E21000FFF7DFFF012802D10126FF2501E01420CE
:10E22000F2E7334600949DF8042029463846FFF76C
:10E230007EFF012801D01020E6E7A41E9DF804000F
:10E2400020700120E0E72DE9F84307460D46164609
:10E250004FF0000929463846FFF72DFF8046FF287A
:10E2600001D0002402E001244FF0FF0823462A4693
:10E27000414638460096FFF75AFF81464846BDE8BA
:10E28000F8832DE9F04104460D4616461F462946FF
:10E290002046FFF710FF8046FF2808D03B46324655
:10E2A00041462046FFF732FF0120BDE8F081002003
:10E2B000FBE72DE9F04107460E4614461D46FF2EAA
:10E2C00007D12A4621463846FFF700FF0120BDE866
:10E2D000F08131463846FFF7EEFE2870FF2802D065
:10E2E00001202070F3E70020F1E770B505460C46E9
:10E2F000FF2C03D12846FFF739FF70BD2146284681
:10E30000FFF7D9FE0646FF2804D031462846FFF71E
:10E3100044FFF2E70120F0E72DE9F0410546002433
:10E3200000261C4890F8720610B90120BDE8F08163
:10E330001FE004EB4410174908448078A84216D126
:10E3400001260A4692F87226521E02EB42120B4632
:10E35000D11804EB4412D0182122FEF797FA0D4889
:10E3600090F87206401E0B4981F8720601E0601CAD
:10E37000C4B2084890F87206A042DADC46B100BF89
:10E3800042F201000746034A40F27361FFF79AF830
:10E390000120CBE70C10002010B55A49012001F0F4
:10E3A00026FF10BD70B5044601202070554809387D
:10E3B0000068C4F80100534809384168E160D4F8A6
:10E3C0000600504909394968884211D14D48093839
:10E3D000407A401CC1B24B480938417221744A4D01
:10E3E000207D00F1150221462846FEF7BDFC05E020
:10E3F000207D00F115012046FEF734FF70BDF0B519
:10E40000BFB005460E4617466C4610222946601CD2
:10E41000FEF73CFA3B480938407A401CC1B2394803
:10E420000938417221740422314604F11100FEF7CB
:10E430002DFAF27839460DF11500FEF727FA20463D
:10E44000FFF7B0FF3FB0F0BDF0B585B004460D4614
:10E4500016461F4601208DF808004FF08830CDF891
:10E4600009000020ADF80D008DF800008DF8014086
:10E470008DF802508DF803603A46694601A8FFF70F
:10E48000BEFF05B0F0BDF0B591B005460E4614468E
:10E490001F4601208DF804008DF805508DF80660A8
:10E4A0008DF807402246394602A8FEF7EFF9201DF5
:10E4B000C2B201AB00210846FFF7C6FF11B0F0BDA4
:10E4C0002DE9F04786B004460D4616461F46DDE9A5
:10E4D0000F9ADDF838808DF80C40CDF80D50ADF86E
:10E4E000116004208DF804008DF806808DF8057009
:10E4F0008DF80790524601A902A8FFF780FF06B0E9
:10E50000BDE8F0873D1A0020A80100202DE9F04168
:10E5100006460F46042506E0681E305CFF2800D042
:10E5200003E0681EC5B2002DF6DC00BF0024601EAB
:10E5300038601CE0305DFF2817D004F0B7F8804643
:10E5400010E0A8F10100C0B28046F84901EBC0001C
:10E55000005D315D884205D0012101FA08F138687B
:10E5600088433860B8F1000FEBD1601CC4B2AC42F4
:10E57000E0DB2846BDE8F0810246002120E0EC48BF
:10E5800000EB8100006828B1E94800EB81000068D9
:10E59000401C00B912E0D2F80B30E54800EB8100D6
:10E5A0000068834207D0D2F80530E14800EB8100D3
:10E5B0000068834201D10120704700BF481CC1B2EE
:10E5C0000529DCDB0020F7E730B50246002138E002
:10E5D000D84800EB01100068D2F80B40A0422ED1C1
:10E5E00000230BE0D34800EB01100830C05CD47B63
:10E5F000A04201D1002030BD581CC3B2052BF1DB75
:10E60000CC4800EB0110407B401CC0B2C94C04EB6D
:10E6100001146073052490FBF4F504FB1500C54C50
:10E6200004EB01146073D47BC24800EB0110083086
:10E63000C04D05EB01156D7B44550120DBE7481CFF
:10E64000C1B21429C4DBBC480078401CC0B2BA4C2B
:10E650002070142490FBF4F504FB1500B64C2070D8
:10E66000D07BB44CB44D2D7804EB05142072D2F855
:10E670000B40B048B04D2D7800EB05100460012030
:10E68000B9E72DE9F84F82468B4616461C460A9F8D
:10E690003068A7490A390968884209D03068A74913
:10E6A000884205D0A2480A380068401C002874D16E
:10E6B0003046FFF789FF10B90820BDE8F88F3046D3
:10E6C000FFF75AFF18B159465046FEF7EEFD307974
:10E6D00001280CD1D6F8050095490A3949688842C5
:10E6E00001D00620E9E70020954908602DE1307946
:10E6F000052807D1D6F8050020B9D6F80B009049B7
:10E70000086022E1D6F80B008D4908606946701D4B
:10E71000FFF7FCFE8146009808B90720CDE7307965
:10E72000022831D1E2783946F81CFEF7DAF80322E4
:10E73000611C3846FEF7AAF8E078C01C00F0FF081C
:10E7400000206070A070E070012518E00120A84052
:10E750000099084088B1727A09F0FF01284601F05B
:10E7600055FE50B1E178C81942463946FEF78EF899
:10E77000E0783D54E0784044E070681CC5B203F096
:10E7800095FFA842E2DCDFE0307903282BD100209E
:10E790006070A070E070012520E0DCE00120A8405E
:10E7A00000990840C0B1E078C319727A09F0FF01FE
:10E7B000284601F092FFE078385C68B1E07817F8FD
:10E7C0000080E2783A44511CE278D0194246FEF7C4
:10E7D00088F8E0784044E070681CC5B203F066FF3A
:10E7E000A842DBDCB0E03079042832D1E278394647
:10E7F000F81CFEF776F80322611C3846FEF746F84F
:10E80000E078C01C00F0FF0800206070A070E0708D
:10E81000012519E00120A8400099084090B1B6F800
:10E820000900424901EBC501898888420AD1E17893
:10E83000C81942463946FEF729F8E0783D54E07899
:10E840004044E070681CC5B203F030FFA842E1DC30
:10E850007AE03079062832D1E2783946F81CFEF7A2
:10E8600040F80322611C3846FEF710F8E078C01C1F
:10E8700000F0FF0800206070A070E070012519E032
:10E880000120A8400099084090B1B6F80900274936
:10E8900001EBC501898888420AD1E178C81942464E
:10E8A0003946FDF7F3FFE0783D54E0784044E070EE
:10E8B000681CC5B203F0FAFEA842E1DC44E03079FE
:10E8C00007283FD1E2783946F81CFEF70AF8032200
:10E8D000611C3846FDF7DAFFE078C01C00F0FF0845
:10E8E00000206070A070E070012519E00120A840B0
:10E8F0000099084090B1B6F809000C4901EBC50138
:10E90000C97988420AD1E178C81942463946FDF7EB
:10E91000BDFFE0783D54E0784044E070681CC5B22B
:10E9200003F0C4FEA842E1DC0EE00000441B00201E
:10E930003E1A0020801600208C00002042455354CF
:10E94000880000200520B8E600BFD6F80B00C6F806
:10E9500005000120B1E60420AFE6F8B5044669469B
:10E96000201DFFF7D3FD0646A078032801DA0F200B
:10E97000F8BD03F09BFEE178491CC9B2884204DB74
:10E98000207A401CC0B2102801DD0E20F0E7A07AEA
:10E99000012828D1E07828B1E078FF2802D0207A39
:10E9A000FF2801D10E20E3E7E1780120884000999B
:10E9B0000840B0B1A0780938E072E07A20280EDA79
:10E9C000207A012802D1A0780938E072227AE07812
:10E9D00004F10B03314601F038FEC0B2C8E70F2046
:10E9E000C6E70720C4E7A07A002869D1E078FF28AD
:10E9F0003BD1C6B9207AFF2802D101F0EFFA5FE0DF
:10EA000001250BE00120A8400099084020B1227A9E
:10EA10003146284601F07DFD681CC5B203F046FE74
:10EA2000A842EFDC4CE001251AE00120A840009943
:10EA3000084098B1207AFF280BD1002706E0E07843
:10EA40003A46314601F065FD781CC7B2102FF6DB5F
:10EA500004E0227A3146284601F05BFD681CC5B20D
:10EA600003F024FEA842E0DC2AE0E178012088409F
:10EA70000099084010B366B9207AFF2803D1E078E6
:10EA800001F023FD1CE0227AE078314601F041FDDF
:10EA900016E0207AFF280BD1002506E0E0782A4610
:10EAA000314601F036FD681CC5B2102DF6DB07E0DB
:10EAB000227AE078314601F02CFD01E0072057E78B
:10EAC000012055E7F8B504460E4615466946201D57
:10EAD000FFF71CFD0746A078032801DA0F20F8BDD8
:10EAE000E07838B103F0E2FDE178884202DD207A77
:10EAF000102801DA0E20F2E7E17801208840009921
:10EB0000084068B1227AE0782B46394601F0E5FDED
:10EB1000287830703278691C2846FDF7E2FE03E061
:10EB2000002030700720DAE70120D8E7F8B5044666
:10EB30006946201DFFF7EAFC0646A078032801DAA3
:10EB40000F20F8BD03F0B2FDE178491CC9B288423C
:10EB500004DB207A401CC0B2102801DD0E20F0E753
:10EB6000A07A012817D1E07828B1E078FF2802D0F8
:10EB7000207AFF2801D10E20E3E7E17801208840C8
:10EB80000099084028B1227AE078314601F0CBFBA9
:10EB90006EE00720D5E7A07A002869D1E078FF2849
:10EBA0003BD1C6B9207AFF2802D101F047FA5FE0D5
:10EBB00001250BE00120A8400099084020B1227AED
:10EBC0003146284601F041FB681CC5B203F06EFDDA
:10EBD000A842EFDC4CE001251AE00120A840009992
:10EBE000084098B1207AFF280BD1002706E03A466A
:10EBF0003146284601F029FB781CC7B2102FF6DBFE
:10EC000004E0227A3146284601F01FFB681CC5B299
:10EC100003F04CFDA842E0DC2AE0E17801208840C6
:10EC20000099084010B366B9207AFF2803D1E07834
:10EC300001F0E9F91CE0227AE078314601F005FBA9
:10EC400016E0207AFF280BD1002506E0E0782A465E
:10EC5000314601F0FAFA681CC5B2102DF6DB07E068
:10EC6000227AE078314601F0F0FA01E0072068E707
:10EC7000012066E7F8B504460D4616466946201D94
:10EC8000FFF744FC0746A078032801DA0F20F8BDFF
:10EC9000E07838B103F00AFDE178884202DD207A9D
:10ECA000102801DA0E20F2E7E1780120884000996F
:10ECB000084040B101202870227AE078394601F0FE
:10ECC000A5FB307003E0002028700720DFE701205B
:10ECD000DDE7000010B5C4B02D48447A03F0FDFB19
:10ECE000BB208DF810002B4800788DF811002948C2
:10ECF0000078401C274908702548007A0978884226
:10ED000003DAFF208DF81000022404A8B521CDE914
:10ED1000001402901E480123002201681846FFF7E4
:10ED2000CFFB44B010BD10B500201A490870184838
:10ED30004289007A811CAFF26303012000F005FDD7
:10ED400010BD3EB5002402F0B0F904461048007A28
:10ED5000401CC0B2B621CDE9010400910C4801234A
:10ED6000002201681846FFF7ABFB0948007A401CF7
:10ED7000C0B2B621CDE9010400910548012300226B
:10ED800001681846FFF79CFB002002F087F93EBDA2
:10ED9000C01700208E00002010B504464C480078B3
:10EDA00008B1122010BD012049490870D4F80300B1
:10EDB00048490860072000594860E07A0872217BC2
:10EDC000444841720D20015B42484181FFF7ABFF8F
:10EDD0000120E7E73F480068704703460D200870B0
:10EDE0003C48006810603B48406850603948007AF1
:10EDF00010723848407A5072364840895081344801
:10EE0000007810730120704770B504460025304823
:10EE10000078012801D0122070BD02202C49087012
:10EE2000D4F803002B490860072000594860E07AB5
:10EE30000872217B274841720D20015B25484181E2
:10EE4000012002F02BF902F030F905462148007A42
:10EE5000421C00212846FDF73BFD0120DCE703466C
:10EE60000D2008701B48006810601A484068506008
:10EE70001848007A10721748407A50721548408935
:10EE800050811348007810730120704710B5044674
:10EE9000E078FF280CD10E480078022808D10E4BEC
:10EEA00032220021084600F050FC0020084908707A
:10EEB000012010BD01460020054A10700120704756
:10EEC0000346012008700248007810700120704746
:10EED0008D000020C017002043ED000810B5044647
:10EEE00001F03CF901F050FCFEF7BCFFFEF7E6FD37
:10EEF000002001F021F810BD70B504460020087014
:10EF000042F281700D7850530878801C0870FA48DE
:10EF100000680D7850510878001D0870F648001DF3
:10EF200000680D7850510878001D08704FF000609F
:10EF3000D0F800030D7850510878001D0870EE4B92
:10EF4000F43B05E01D780E78701C087095555B1C2D
:10EF500018785A2802DC18783028F3DA012070BDBE
:10EF600010B50346987860B1E348001F0068B3F815
:10EF70000340A04205D0B3F803004FF6FF74A0424F
:10EF800012D100200870DC48001F00880C78105354
:10EF90000878801C0870D84800680C7810510878F0
:10EFA000001D0870012010BD1220FCE710B50446BA
:10EFB000A078042801DCA07808B90F2010BDD4F88F
:10EFC0000300CE490860042001F011F908B91020AF
:10EFD000F4E70120F2E70346C84800681060042007
:10EFE0000870012070470346C44840681060042040
:10EFF00008700120704710B50446E078052801DC50
:10F00000E07808B90F2010BDE078BC4908720831DB
:10F01000012001F0ECF808B91020F4E70120F2E734
:10F020000346B648007A107001200870704770B52A
:10F030000546A878192806DCA878052190FBF1F28E
:10F0400001FB120008B10F2070BDA878052190FBCC
:10F05000F1F0C6B200240EE004EB8401E81C405C31
:10F0600028B104EB8401E81C405C052801DD0E207A
:10F07000EAE7601CC4B2B442EEDB002410E004EB0B
:10F080008400401CE91C0A5804EB8401E81C405C25
:10F09000401E9A490A3101EB80000260601CC4B234
:10F0A000B442ECDB95490A31142001F0A0F808B90C
:10F0B0001020C9E70120C7E7F0B503460C4600253C
:10F0C000D878FF2827D100202070002120E08B482D
:10F0D0000A3000EB81000068C0B188480A3000EBBC
:10F0E00081000068401C88B1481C05EB85069055DE
:10F0F00082480A3000EB8100066805EB8507501C4A
:10F10000C6512078401D2070681CC5B2481CC1B291
:10F110000529DCDB13E0D87810B1D878052801DDAB
:10F120000F20F0BDD8781070D878401E734E0A3684
:10F1300006EB80000068C2F8010005202070012065
:10F14000EFE770B50446A078052801DCA07808B97F
:10F150000F2070BDE078A8B901250EE0684960680D
:10F1600041F83500084600EBC501042001F05DF8C8
:10F1700008B91020EDE7681CC5B203F097FAA84261
:10F18000ECDC14E003F092FAE178884201DC0E2016
:10F19000DFE7E1785A4A606842F83100E07802EB34
:10F1A000C001042001F041F808B91020D1E7012086
:10F1B000CFE72DE9F04104460D461646A078032816
:10F1C00001DCA07810B90F20BDE8F081E07890B99B
:10F1D00001270020287009E0494850F837002978B5
:10F1E00070502878001D2870781CC7B203F05EFAB2
:10F1F000B842F1DC0DE003F059FAE178884201DC15
:10F200000E20E1E7E0783E4951F8300030600420FC
:10F2100028700120D8E770B50446A078032801DCE7
:10F22000A07808B90F2070BDE078B8B9012510E0CA
:10F23000A088334901EBC5018880314800EBC50047
:10F24000011D022000F0F1FF08B91020EBE7681C57
:10F25000C5B203F02BFAA842EADC16E003F026FA66
:10F26000E178884201DC0E20DDE7A088E178244ABD
:10F2700002EBC1018880E07802EBC000011D022092
:10F2800000F0D3FF08B91020CDE70120CBE72DE92E
:10F29000F04104460D461646A078032801DCA0780C
:10F2A00010B90F20BDE8F081E07898B9012700205F
:10F2B00028700AE0124800EBC70080882978705255
:10F2C0002878801C2870781CC7B203F0EFF9B84288
:10F2D000F0DC0EE003F0EAF9E178884201DC0E2070
:10F2E000E0E7E078064901EBC0008088308002202A
:10F2F00028700120D6E7000004040008341A00201A
:10F30000441B002070B50446A078022801DCA078D8
:10F3100008B90F2070BDE078B8B9012510E0207958
:10F32000BB4901EBC501C871B94800EBC500C11D5F
:10F33000012000F07AFF08B91020EBE7681CC5B285
:10F3400003F0B4F9A842EADC16E003F0AFF9E17883
:10F35000884201DC0E20DDE72079E178AC4A02EB3F
:10F36000C101C871E07802EBC000C11D012000F0AE
:10F370005CFF08B91020CDE70120CBE72DE9F04173
:10F3800004460D461646A078022801DCA07810B984
:10F390000F20BDE8F081E07898B90127002028709F
:10F3A0000AE09B4800EBC700C079297870542878A0
:10F3B000401C2870781CC7B203F078F9B842F0DC22
:10F3C0000EE003F073F9E178884201DC0E20E0E7FB
:10F3D000E0788F4901EBC000C079307001202870BF
:10F3E0000120D6E770B50446A078052801DCA07896
:10F3F00008B90F2070BDE078B8B9012510E0207978
:10F40000834901EBC5018871814800EBC500811D6E
:10F41000012000F00AFF08B91020EBE7681CC5B214
:10F4200003F044F9A842EADC16E003F03FF9E17882
:10F43000884201DC0E20DDE72079E178744A02EB96
:10F44000C1018871E07802EBC000811D012000F04D
:10F45000ECFE08B91020CDE70120CBE72DE9F04103
:10F4600004460D461646A078032802DD0F20BDE8AD
:10F47000F081E07808B1A07898B9012700202870C1
:10F480000AE0634800EBC700807929787054287837
:10F49000401C2870781CC7B203F008F9B842F0DCB1
:10F4A0000EE003F003F9E178884201DC0E20DEE78C
:10F4B000E078574901EBC000807930700120287056
:10F4C0000120D4E710B5044600F041FE012010BD34
:10F4D00070B506460C4615462946204600F07CFECF
:10F4E000012070BD10B50446A078012801DD0F2071
:10F4F00010BDA078012805D1E07818B9022000F0ED
:10F500000BFE1CE0A07818B9012000F005FE16E003
:10F5100003F0CCF8E17888420FDDE07800F0B6FD2A
:10F52000E07800F098FDE07800F06DFDE07800F004
:10F53000CCFFE078FEF7F0FE01E00E20D8E70120D6
:10F54000D6E770B50446A07808B90F2070BDE07802
:10F55000022804D003280ED005281FD114E02079FA
:10F56000611DFEF741FE0546012D02D1A07002206B
:10F57000ECE72846EAE761792079FEF7B6FE012834
:10F5800000D1E3E71520E1E761792079A21DFEF7BC
:10F590005AFE012800D1D9E71620D7E700BF00BFE7
:10F5A0000E20D3E770B504460D461646E0780128D4
:10F5B00002D0042814D109E06179207933462A4623
:10F5C000FEF75FFE012800D170BD0AE06179207965
:10F5D00033462A46FEF76DFE08B10120F4E700E04D
:10F5E00000BF00BF1520EFE710B50446A07808B9AA
:10F5F0000F2010BDE07818B90120FEF7B7FD05E037
:10F60000E078FEF789FE08B91720F2E70120F0E75D
:10F61000441B002010B5032000F08EFC1248FDF7BB
:10F62000E3FA10BD10B5044610480068B0F15A3F27
:10F6300001D0122010BD0E48D0F804010A498842BA
:10F640000BD10C48FDF7D0FAAFF237034FF49662B6
:10F650000021084600F079F804E00348FDF7C4FAF9
:10F6600001F0A1FD0120E5E78D1E0108A8000020A2
:10F67000C0060020A31701080020D6490860704783
:10F6800030B503460C4619460CE00846491C00EB11
:10F690004005D048001D00EB85008068904201D1F4
:10F6A000C8B230BDA142F0D30020FAE7FEB505464E
:10F6B000C84A1288C74B5B88D118C64A10882A46A8
:10F6C000FFF7DEFF0446002C3ED0C2480088201A17
:10F6D000012830D9601E00EB4002BE48001D00EB3F
:10F6E00082010C226846FDF7D1F8BA4B1B88E31A59
:10F6F00003EB43039A00B74B1B8803EB4306B54B60
:10F700001B1D03EB86011B1F1B885B1C03EB4306C1
:10F71000B04B1B1D03EB8600FDF7E3F8AD490988EC
:10F7200001EB4102AB49091D01EB82000C22694645
:10F73000FDF7ACF800BFA7480088401CA549088029
:10F7400008464088401E4880FEBD2DE9F04107462E
:10F75000884615461E4600BF9E4800889D49498838
:10F760000844142802DB0020BDE8F08100BF99485E
:10F770000088984A5288811832460020FFF780FF9F
:10F7800028BB944B5B8803EB43039A00914B1B8887
:10F7900003EB430C8F4B1B1D03EB8C011B1F1B88C2
:10F7A0005B1C03EB430C8B4B1B1D03EB8C00FDF729
:10F7B00098F8884804880088401C86490880002101
:10F7C00004EB44028348001D00F822100CE0304690
:10F7D000FFF76CFF7F4800887E4A528881183246C6
:10F7E0000020FFF74DFF441E04EB44017948001D43
:10F7F00000EB8100477004EB44017648001D00EBEC
:10F800008100866097B905B96D1C02F042FA284460
:10F810007149B0FBF1F201FB12054FF00108002124
:10F8200004EB44026B48001D00F8221004EB440175
:10F830006848001D00EB8100A0F8028004EB440141
:10F840006448001D00EB8100456001208CE770B525
:10F850000546604800885F4A528881182A46002081
:10F86000FFF70EFF044604B35A4B1B88594E7688A7
:10F8700033441B1B03EB43039A0004EB4406554B34
:10F880001B1D03EB8601631E03EB4306514B1B1D3F
:10F8900003EB8600FDF725F84E480088A04205D20C
:10F8A0004C484088401E4B49488004E04948008845
:10F8B000401E4849088070BDFEB505464548018890
:10F8C0002A460020FFF7DCFE0446ACB3601E00EBC6
:10F8D00040024048001D00EB82010C226846FCF704
:10F8E000D5FF3C4B1B881B1B03EB43039A0004EB27
:10F8F0004406384B1B1D03EB8601631E03EB4306D6
:10F90000344B1B1D03EB8600FCF7EBFF31490988E4
:10F91000491E89B22F4A118001EB41022D49091D70
:10F9200001EB82000C226946FCF7B0FF29484088B1
:10F93000401C2849488000BFFEBD70B5254C241DE1
:10F9400025E0207810B3A56800202070607830B1E1
:10F95000012807D002280ED0032814D10DE0012081
:10F96000207000BF6188481E608019B92846FFF7E3
:10F970006EFF09E000BFA84706E0A84710B9284677
:10F98000FFF765FF00E000BF00BF00BF0C34114867
:10F99000008800EB40010F48001D00EB8100A042F1
:10F9A000CFD870BD01460B48001D08E04268B1FB8E
:10F9B000F2F302FB13120AB9012202700C30054A5D
:10F9C000128802EB4203034A121D02EB83028242B9
:10F9D000ECD87047301800200084D717F0B585B0F8
:10F9E0000446A07800282ADDA778E51C21E0A87845
:10F9F000102802DD0F2005B0F0BD02208DF80000B8
:10FA0000A878C21C29460DF10100FCF73FFF6846AB
:10FA1000FDF718F80646012E08D0BDF80100A4F83D
:10FA2000030066710320A0700220E4E7A878C01CE0
:10FA30000544E01C3844A842D9D80120DBE70F2058
:10FA4000D9E72DE9F043C1B080460C4616460020A8
:10FA5000207098F80200002841DD98F8029001A873
:10FA600000EB090501AF4A4608F103013846FCF7EF
:10FA70000DFF2EE00520287017F8010B687017F8AD
:10FA8000010BA8700020E8702846FCF7DBFF012876
:10FA90001FD169782278501C2070B154A97822783F
:10FAA000501C2070B154E878401EC1B2E970227831
:10FAB000501C2070B154EA7821788819691DFCF730
:10FAC000E5FE2078E9780844207020785A2800DD87
:10FAD00003E001A84844B842CCD800BF48E002F097
:10FAE000E5FD07463EE0404800EB0710C56800BF53
:10FAF000287901282BD18DF8007128788DF8010123
:10FB000000208DF80201E86808B32078C01C821933
:10FB10000DF2031140A8EB689847012817D121780E
:10FB2000481C2070775429782278501C2070B154DA
:10FB30009DF803112278501C2070B15420789DF854
:10FB400003110844207020785A2800DD09E005F1EF
:10FB50001000296805460068814202D22868FF2803
:10FB6000C6D900BF381EA7F10101CFB2BBD100BF7B
:10FB7000012041B0BDE8F08370B5044602F096FD67
:10FB80000546A078012801D00F2070BDE078A8427A
:10FB900001D30E20F9E7E07888B902F087FD054629
:10FBA0000AE06D1E104800EB0510806820B10E4978
:10FBB00001EB051188688047002DF2D10BE0E07859
:10FBC000094901EB0010806828B1E178064A02EB90
:10FBD000011188688047054B3222C8210120FFF7B8
:10FBE000B4FD0120D1E70000A04D0108C50F0108B8
:10FBF00003460868984202D81068984201D2002053
:10FC000070470120FCE72DE9F04106460D4606F05D
:10FC1000030010B10020BDE8F081B94800884028F9
:10FC200008D0802809D0B0F5807F09D0B0F5007FDA
:10FC30000CD108E04FF4F8440AE04FF43C4407E0EC
:10FC40004FF4C83404E04FF4483401E0002400BF0E
:10FC500000BFE8687043A04201D90020DBE7A94853
:10FC60000670A9492868086068684860A8688860C4
:10FC7000E868C860002705E00020A44941F8270093
:10FC8000781CC7B2402FF7D39F498868214601F0FE
:10FC9000BFF9C0E72DE9F04104460D4617469A48E2
:10FCA000C068A04201D3C82D01DDBDE8F081600924
:10FCB000964951F8200004F01F02012191400840AC
:10FCC000F0B9914880688F49097804FB01063A46EB
:10FCD0002946304601F0BBF968B160098B4951F8FB
:10FCE000200004F01F020121914008436109874A66
:10FCF00042F8210004E086480078401C84490870DE
:10FD000000BFD2E730B502460B460021002010703C
:10FD100013E048097D4C54F8200001F01F05012430
:10FD2000AC40204040B923F8021B1078801C1070B2
:10FD30001078642800DD04E0491C7348C0688842DC
:10FD4000E7D800BF107808B9012030BD0020FCE7DB
:10FD500070B505460C46A9B26B4A9068FDF724FBC6
:10FD6000201A84B20CB9012070BD0020FCE738B520
:10FD700005460095674C0BE001F08CF9216888423C
:10FD800005D16A460421204601F061F938BD241DE1
:10FD90006048E0308442EFD35B4A10215D48203850
:10FDA00001F06DF94FF480715A48203801F030F9B4
:10FDB000554A10215748203801F049F92846FFF7E5
:10FDC000D6FFE3E710B5534C0FE001F063F921686B
:10FDD000884209D1241F2068512802D32068562860
:10FDE00000D906E0207810BD241D4A48E030844246
:10FDF000EBD300BF5320F6E770B50446FFF7E2FFF0
:10FE000005464FF48071204601F002F93E4A102168
:10FE1000204601F01CF92846FFF7A9FF70BD30B558
:10FE2000ADF2044D02F060F802F057FB3448008850
:10FE3000402804D0802801D1374C02E000BF374C65
:10FE400000BF00BF01AA10213248203801F017F985
:10FE500001F020F9C5B24022294605A8FCF738FD7B
:10FE60002F4805900199069101F014F9079001F0CF
:10FE700011F90890FFF7A6FF159005AA4421204626
:10FE800001F0E5F8C8B301AA4FF4806104F5806081
:10FE900001F0F5F8C2AA7421224801F0F0F8C298E6
:10FEA000BD9001F0F7F8BE9001F0F4F8C29001F0B7
:10FEB000F1F8C3904FF40061080401F0A9F8E0B133
:10FEC00001AA4FF48061480401F0C1F8A8B10E48BE
:10FED000406802900A480088402802D14FF49040C0
:10FEE00001E04FF4B040039002AA082109481C38F1
:10FEF00001F0ADF80DF2044D30BDFFE70020F9E749
:10FF00004C00F81F8F000020241900203419002015
:10FF10009000002020040008006000080050000845
:10FF2000A53CC35A0003000810B5254B0122FF2150
:10FF30000020FEF7A8FA10BD70B5054620480570F0
:10FF4000012D02D14FF47A7400E005241D4B2246A6
:10FF500000210846FFF7F9FB70BD00B5B3B00020E3
:10FF60008DF8060002AA911E01A8FFF76AFD8DF820
:10FF700007009DF80600401CC0B28DF806009DF8F1
:10FF800006200DF1070300210846FEF75DFA33B0A5
:10FF900000BD10B501F07DFE4FF49671B0FBF1F29B
:10FFA00001FB120000EB800040F6C41101EB40049D
:10FFB000054B224600210846FFF7C7FB10BD000095
:10FFC0009100002029FF00085BFF000810B5002207
:10FFD00020214FF43F60FDF7B1FA10BD10B50124A8
:10FFE0000AE004EB8401090101F580600022502140
:10FFF000FDF7A4FA601CC4B202F058FBA042F0DC8A
:020000040801F1
:10000000FFF7E4FF10BD2DE9F05F8246504604F093
:10001000A8FA80460022F74B04F0B6FA0646002202
:100020004FF0814304F0C8F9044604F06DFA8346AA
:1000300000220A21FDF782FABDE8F09F10B50124E5
:1000400004E02046FFF7DFFF601CC4B202F02EFB85
:10005000A042F6DC10BD10B50446E74800EB0410E2
:10006000406828B1E44800EB041041682046884706
:1000700010BD10B5002404E02046FFF7ECFF601C23
:10008000C4B202F013FBA042F6DC10BD10B504466A
:100090004FF0FF30D94941F83400002001EBC40192
:1000A00088800120D54901EBC40188710020D34923
:1000B00001EBC401C871D14901EBC402210101F176
:1000C00080000821FDF7FEF910BD10B5002404E002
:1000D0002046FFF7DBFF601CC4B202F0E7FAA04243
:1000E000F6DC10BD10B54FF0FF30C54908600020A8
:1000F00001F0ADFDC249486002200872002048723C
:1001000014220021BE480A30FCF7E2FBBC4A1E2143
:100110004020FDF7D7F910BD38B50446B9A00068F6
:100120000090FFF7DFFFFFF7D0FFFFF7A2FFFFF719
:1001300085FFFFF753FF0120FEF718F8022C02D1CC
:100140006846FDF77CFC0120FFF7F6FE38BD10B5D0
:10015000002240211046FDF7F1F910BD10B5A84A64
:100160001E214020FDF772F9A549486801F06FFD96
:10017000C0B1AFF21703322200210846FFF7E5FABB
:10018000A1480078401CC0B29F490870032812DDC6
:10019000AFF23700FFF75BFBFFF7D9FF0120FFF756
:1001A000BBFF08E098480078002804DD002096494D
:1001B000087002F07DFA10BD38B50446A0006A460A
:1001C0000421FDF743F90098401C0090A0006A4606
:1001D0000421FDF777F938BD70B504460D4640207F
:1001E000207021782A460020FDF730F970BD70B5E7
:1001F00005460C468249611A01F140002246294613
:10020000FDF760F970BD70B504460D4607E005EBDB
:10021000C402210101F180000821FDF717F9201E19
:10022000A4F10101CCB2F2D170BD70B505460C4607
:100230007248261AF1080901803106F00702881871
:1002400022462946FDF73EF970BD2DE9F74F86B0ED
:1002500089461446484604F084F9054600224FF0CA
:10026000804304F091F982468B46069804F079F9B0
:10027000074600225F4B04F087F9054600224FF045
:10028000814304F099F852465B46CDE9000104F041
:1002900093F8CDE9020104F037F905AA0221049090
:1002A000FDF7D4F8102C0CDA0120A040BDF8141092
:1002B000084030B10120A040BDF8141081430591E1
:1002C00007E0FF2C02D10020059002E009B0BDE854
:1002D000F08F484604F045F9054600224FF0804370
:1002E00004F052F982468B46069804F03AF9074624
:1002F0000022404B04F048F9054600224FF08143AC
:1003000004F05AF852465B46CDE9000104F054F877
:10031000CDE9020104F0F8F805AA02210490FDF7E6
:10032000D1F800BFD2E72DE9F74F86B089461446D1
:10033000484604F016F9054600224FF0804304F0C9
:1003400023F982468B46069804F00BF907460022F3
:10035000284B04F019F9054600224FF0814304F0C0
:100360002BF852465B46CDE9000104F025F8CDE9B3
:10037000020104F0C9F805AA02210490FDF766F80D
:10038000102C34DA0120A040BDF81410084070BBD6
:100390000120A040BDF81410084380B205904846E3
:1003A00004F0DFF8054600224FF0804304F0ECF83B
:1003B00082468B46069804F0D4F8074600220D4B7F
:1003C00004F0E2F8054600224FF0814303F0F4FF09
:1003D00052465B46CDE9000103F0EEFFCDE9020194
:1003E00004F092F805AA02210490FDF76BF809B019
:1003F000BDE8F08F00002440A04D0108441B002000
:10040000341A002000F80153920000202DE9F74F24
:1004100086B00C469146204604F0A3F8054600221B
:100420004FF0804304F0B0F8CDE90201069804F0E3
:1004300098F807460022D34B04F0A6F805460022A0
:100440004FF0814303F0B8FFCDE90001DDE902235D
:1004500003F0B2FF824604F057F805AA0221049087
:10046000FCF7F4FF012000FA09F0BDF81410084071
:1004700018B1012009B0BDE8F08F0020FAE738B5C7
:1004800004462546E11704EB5171C91001F53F60A0
:100490006A460121FCF7DAFF2046E11704EB5171AF
:1004A000C910A4EBC102012191409DF800208A43AC
:1004B00000922546E11704EB5171C91001F53F6028
:1004C0006A460121FCF7FEFF38BD30B595B0054600
:1004D00005EB8501090101F5806001AA5021FCF7B7
:1004E000B5FF002408E001A8005D18B101A9085D6E
:1004F000FFF7C5FF601CC4B2502CF4DB05EB85018F
:10050000090101F5806000225021FDF717F815B0B0
:1005100030BDF8B504460D46164604EB84010901CA
:1005200001F58061102202FB0511012202FB061079
:100530006A460121FCF78AFF9DF8000090B104EBA8
:100540008401090101F58061102202FB05110122DD
:1005500002FB061000220121FCF7F0FF9DF80000CD
:10056000FFF78DFFF8BD01464FF44060802902DAA5
:1005700000EBC10014E000F58060A1F18002D1B26F
:10058000402902DA00EB01100AE000F58060A1F1D9
:100590004002D1B2402902DA00EB411000E000BF76
:1005A000704770B505460C462078411C2246284607
:1005B000FCF788FF70BD0146082901DA0120704769
:1005C000102901DA8020FAE7202901DAC020F6E7B5
:1005D0004FF48070F3E770B588B006460D466A4662
:1005E00020214FF43F60FCF731FF3046FFF7E3FF77
:1005F00004460020287023E0684600EBD400007811
:1006000004F00702012191400840C0B92C706846EF
:1006100000EBD400007804F0070201219140084368
:10062000694601EBD4010870694601EBD4024FF42E
:100630003F6101EBD4000121FCF744FF02E0641CA0
:10064000FF2CD9D900BF08B070BD2DE9F84305468D
:100650000E4617461C4605EB8501090101F5806130
:10066000102202FB0611012202FB07106A4601213B
:10067000FCF7ECFE2078FFF79EFF9DF80010884203
:1006800005D99DF80000FFF7FAFE002000909DF8C4
:100690000000C0B920786946FFF79DFF9DF8000073
:1006A00010B91120BDE8F88305EB8501090101F5BA
:1006B0008061102202FB0611012202FB07106A462C
:1006C0000121FCF7FFFE9DF80000FFF74CFF80467C
:1006D0002146FFF766FF0120E4E72DE9F8430546D0
:1006E0000E4617461C4605EB8501090101F58061A0
:1006F000102202FB0611012202FB07106A460121AB
:10070000FCF7A4FE9DF8000048B19DF80000FFF73B
:100710002AFF804622462021FCF798FE01E00020B7
:100720002070BDE8F88370B504460D461646601982
:10073000B0F5004F02D8B4F5405F01D2112070BD72
:10074000324629462046FCF7BDFE08B91020F6E7E0
:100750000120F4E770B504460D4616466019B0F561
:10076000004F02D8B4F5405F01D2112070BD32466F
:1007700029462046FCF76AFE08B91020F6E701205A
:10078000F4E700000000244010B58C2200217548D9
:10079000FCF79EF800207349886010BD2DE9F041F8
:1007A0000446A0780A2802DA0F20BDE8F081D4F8C8
:1007B0000350E0796B490880D4F809004860084686
:1007C0000088B5FBF0F0488008460088B5FBF0F1E2
:1007D00000FB115020B163484088401C61494880AB
:1007E000802200215F480C30FCF772F85D48408899
:1007F000B0F5806F01D90E20D7E7207A5A2830D182
:1008000059485849886059480088402808D08028AD
:1008100009D0B0F5807F09D0B0F5007F0CD108E099
:10082000534E37460BE0534E534F08E0534E544F50
:1008300005E0544E544F02E00026002700BF00BFE1
:1008400048484068B0420BD3464840682844B84204
:1008500006D244494868294600F0DAFB0120A4E7A3
:1008600012E0207AA5280FD148483E498860084602
:100870004068B0F5405F07D3084640682844B0F5AB
:10088000004F01D2012090E7FFF77EFF0E208CE79A
:1008900070B50446B4F80350A078801EA070A0780C
:1008A00030490988884202DC2E48806808B90D204A
:1008B00070BD2C484088A84201DA0E20F8E7691183
:1008C00028480C3050F8210005F01F02012191400A
:1008D0000840F0B9234840682249098805FB010611
:1008E000A1782048621D836830469847012801D0CE
:1008F0001220DDE769111B480C3050F8210005F08B
:100900001F020121914008436A1116490C3141F838
:1009100022000120CCE770B50446134600220020D7
:10092000087014E055090F480C3050F8250002F00B
:100930001F060125B540284040B90D785A53087864
:10094000801C08700878642800DD04E0521C05480B
:1009500040889042E6D800BF087808B9012070BDF1
:100960000020FCE7541A00204F1001084C00F81F2B
:1009700000000108008001080000020800280308A8
:1009800000000408004806080000080827070108BE
:10099000704700004A48006800F0010028B149484B
:1009A00047490831086048480860704700B5444826
:1009B000006800F0020038B1FFF7ECFF43484049FF
:1009C0000C3108604248086000BD3D48006840F0B6
:1009D00002003B490860704739481430006800F055
:1009E000020028B102203649143108600120704706
:1009F0000020FCE7014600E0491E31B130481430C8
:100A0000006800F001000028F6D109B90120704704
:100A10002B481430006800F4F85030B14FF4F8500F
:100A2000274A143210600120F1E70020EFE770B58B
:100A300004464FF40050FFF7DDFF0546E5B92048B6
:100A4000006840F400701E4908600846006840F0E5
:100A500008000860002020604FF40050FFF7CAFF34
:100A600005461748006820F0080015490860084648
:100A7000006820F40070086015B9FFF7ADFF70BD85
:100A80000020FCE770B505460C4616464FF4405072
:100A9000FFF7B0FF70B90AE030682860361D2D1DE1
:100AA000241F4FF44050FFF7A5FF00B101E0002CD8
:100AB000F2DC00BF0CB9012070BD0020FCE7000093
:100AC000043C0240EFCDAB8905040302BFAE9D8C10
:100AD00016151413F0B504460B46494D05EB84205A
:100AE000484D2D680126A6403543464E356000210D
:100AF00035E003F0010585B305684F000326BE40CD
:100B0000B5430560868801258D40AE4386808568A3
:100B10004F000326BE40B5438560C5684F000326DD
:100B2000BE40B543C56095094E00B54006683543E3
:100B300005608688C2F300158D402E438680856847
:100B40004F00C2F38106BE403543856002F00305C5
:100B50004E00B540C6683543C5605B10491C002B8C
:100B6000C7DCF0BDF0B503461446254D05EB8322E6
:100B7000002022E001F00105EDB1C60802F12005D8
:100B800055F826504607F70E0F26BE40B543C70856
:100B900002F1200646F82750C60802F1200555F854
:100BA00026504607F60E04FA06F63543C70802F14A
:100BB000200646F827504910401C0029DADCF0BD19
:100BC00002460B460E4800EB8221888A1843888231
:100BD000888A70470A4B03EB8022938A8B43938267
:100BE0007047074B03EB8022938A4B4093827047F8
:100BF0000246034800EB8223188A08407047000031
:100C0000000002401C380240002107E0052101E0FD
:100C10004A1E91B20029FBDC421E90B20028F5DC8E
:100C2000704710B54D224FF440710120FFF752FF7D
:100C30004FF440710120FFF7C3FF10BD10B54FF412
:100C400000710120FFF7BCFF4FF480710120FFF716
:100C5000B7FF0220FFF7D8FF4FF400710120FFF724
:100C6000B9FF0220FFF7D0FF4FF480710120FFF79A
:100C7000B1FF10BD10B54FF400710120FFF7AAFFBE
:100C80000220FFF7C1FF4FF480710120FFF798FFAA
:100C90000220FFF7B9FF4FF400710120FFF790FF2A
:100CA0000220FFF7B1FF10BD10B504464FF480716C
:100CB0000120FFF78FFF0220FFF7A6FF2CB14FF4B2
:100CC00000710120FFF77CFF04E04FF40071012068
:100CD000FFF780FF0220FFF797FF4FF4807101209C
:100CE000FFF76EFF0220FFF78FFF4FF480710120A6
:100CF000FFF770FF10BD10B500240122510210460D
:100D0000FFF7E8FE4FF400710120FFF759FF0220C2
:100D1000FFF77AFF4FF480710120FFF751FF0220A7
:100D2000FFF772FF12E0601C80B20446B0F5FA7F54
:100D30000CDD4D224FF400710120FFF7CBFE4FF484
:100D400000710120FFF73CFF002010BD4FF400713F
:100D50000120FFF74DFF0028E5D14FF480710120FD
:100D6000FFF738FF0220FFF74FFF4D224FF40071CD
:100D70000120FFF7AFFE4FF400710120FFF720FFC5
:100D80000220FFF741FF0120DFE770B504464FF472
:100D900080710120FFF71EFF0220FFF735FF0025BD
:100DA00024E004F0800028B14FF400710120FFF727
:100DB00007FF04E04FF400710120FFF70BFF60060E
:100DC000040E0220FFF720FF4FF480710120FFF78F
:100DD000F7FE0220FFF718FF4FF480710120FFF7A4
:100DE000F9FE0220FFF710FF681CC5B2082DD8DB02
:100DF000FFF781FF70BD70B5064600240122510245
:100E00001046FFF767FE4FF400710120FFF7D8FE90
:100E100000251EE04FF480710120FFF7DBFE022069
:100E2000FFF7F2FE4FF480710120FFF7C9FE0220A8
:100E3000FFF7EAFE6006040E4FF400710120FFF791
:100E4000D7FE08B1601CC4B20220FFF7DDFE681CAB
:100E5000C5B2082DDEDB4FF480710120FFF7BAFE2A
:100E60000220FFF7D1FE4D224FF400710120FFF761
:100E700031FE4FF400710120FFF7A2FE0220FFF7C0
:100E8000C3FE3046FFF710FF204670BD70B5054623
:100E90000C4600BFFFF7D2FE2846FFF776FF10B9D9
:100EA000601E041EF6D1FFF7E5FE0CB1012070BDF7
:100EB0000020FCE72DE9F04107460E4615461C468A
:100EC000FFF7BCFE3846FFF760FFF0B13012FFF7C6
:100ED0005CFFD0B1F0B2FFF758FFB0B1FFF7AEFE44
:100EE00047F00100FFF751FF78B106E00020FFF75F
:100EF00082FF05F8010B601EC4B2012CF6DC601EF7
:100F0000C4B20120FFF777FF2870FFF7B3FE14B9D2
:100F10000120BDE8F0810020FBE72DE9F041074604
:100F20000D4616461C46FFF789FE3846FFF72DFF93
:100F300098B12812FFF729FF78B1E8B2FFF725FF33
:100F400058B107E016F8010BFFF71FFF00B903E0E7
:100F5000601EC4B2002CF5DC00BFFFF78BFE14B995
:100F60000120BDE8F0810020FBE72DE9F0410746B4
:100F70000D4616461C46FFF761FE3846FFF705FF93
:100F800090B12812FFF701FF70B1E8B2FFF7FDFE44
:100F900050B106E03046FFF7F8FE00B903E0601EEE
:100FA000C4B2002CF6DC00BFFFF764FE14B90120C8
:100FB000BDE8F0810020FBE710B504210020FFF719
:100FC000FFFD10BD10B504210020FFF703FE0F4BFD
:100FD000022200210846FEF7B8FB10BD10B54422DE
:100FE00004210020FFF776FDAFF22703FA2210213B
:100FF0000120FEF7AAFB10BD10B5AFF23703642243
:1010000014210120FEF7A1FB10BD0000B90F01085B
:1010100070B505460C464FF480701F490860FFF715
:10102000C5FC03E0A4F5807405F580752846FFF73C
:10103000FEFC012802D1B4F5807FF3D8FFF7C5FC90
:10104000B4F5807F01D8012070BD0020FCE72DE9B8
:10105000F04106460C46174604F0030010B124F098
:101060000304241DFFF7A2FC3A4621463046FFF751
:1010700009FD0546FFF7A9FC2846BDE8F0810346B7
:1010800004E018681060121D1B1D091F0029F8D10B
:101090000120704700207047183C024008B1012130
:1010A00000E00021FA4A11707047FA487047FA4888
:1010B0000078704770B505460C464FF4805101200A
:1010C000FFF788FD284600F0B1FB204600F0AEFB9C
:1010D00006464FF480510120FFF772FD304670BD87
:1010E00010B5EE48006820F48060EC4908604422A6
:1010F000C9140120FFF7EEFC44224FF48051012077
:10110000FFF7E8FC00224FF480610120FFF7E2FCCA
:10111000002202210120FFF7DDFC4FF48061012055
:10112000FFF74EFD02210120FFF74AFD44224FF454
:1011300000710220FFF7CEFC4FF400710220FFF790
:101140003FFD00F09EFB042000F0E2FB10BD0120FB
:10115000D3490870704710B505218720FFF7AAFF13
:1011600002218E20FFF7A6FF02218820FFF7A2FFB1
:1011700000218820FFF79EFF13218520FFF79AFFAB
:1011800080218620FFF796FF00210320FFF792FFC2
:1011900000210420FFF78EFFC048006840F4806003
:1011A000BE49086010BD10B5BC48006820F48060DE
:1011B000BA49086000218E20FFF77CFF01218720BB
:1011C000FFF778FF00218520FFF774FF00218620BC
:1011D000FFF770FF00210320FFF76CFF00210420C0
:1011E000FFF768FF0220FCF723F910BD10B5FFF7E9
:1011F00077FF4FF480510120FFF7E2FC4FF40061CC
:101200000120FFF7DDFC0220FCF712F94FF400612A
:101210000120FFF7DFFC3220FCF70AF90021032050
:10122000FFF748FF00210420FFF744FF80218720BB
:10123000FFF740FF0220FCF7FBF800218720FFF7B3
:1012400039FF00218520FFF735FF00218620FFF7B9
:1012500031FF00210320FFF72DFF00210420FFF7BD
:1012600029FF79218920FFF725FF06218A20FFF732
:1012700021FFEA218B20FFF71DFFEA218C20FFF7D9
:1012800019FFFC218D20FFF715FF00218E20FFF7AD
:1012900011FF844801789C20FFF70CFF81484178BA
:1012A0009D20FFF707FF7F4881789E20FFF702FF10
:1012B0007C48C1789F20FFF7FDFE7A480179A02085
:1012C000FFF7F8FE77484179A120FFF7F3FE754854
:1012D0008179A220FFF7EEFE7248C179A320FFF7C3
:1012E000E9FE7048017AA420FFF7E4FE6D48417AD8
:1012F000A520FFF7DFFE6B48817AAA20FFF7DAFE10
:10130000AC21B020FFF7D6FE0021B220FFF7D2FEBD
:101310000221B320FFF7CEFE1021B420FFF7CAFE52
:101320002821B520FFF7C6FE2D21B620FFF7C2FE0B
:10133000D421B720FFF7BEFE0021B820FFF7BAFE88
:101340000021B920FFF7B6FE4221BA20FFF7B2FE16
:101350004521BB20FFF7AEFE5321BC20FFF7AAFEBC
:101360005421BD20FFF7A6FE4221BF20FFF7A2FEB9
:101370004521C020FFF79EFE5321C120FFF79AFEB2
:101380005421C220FFF796FEFF21C320FFF792FEF3
:10139000FF21C420FFF78EFEFF21C520FFF78AFE44
:1013A000FF21C620FFF786FE3E48C17AD820FFF70E
:1013B00081FE3C48017BE920FFF77CFE3948417BF8
:1013C000EE20FFF777FE3748817BEF20FFF772FEB4
:1013D0003448C17BF020FFF76DFE3248017CF120DC
:1013E000FFF768FE2F48417CF220FFF763FE522191
:1013F000F520FFF75FFEFEF7E5FC493800EB8000C3
:101400004006040E2146F920FFF754FE0A21FA2077
:10141000FFF750FE2348C17CF620FFF74BFE214822
:10142000017DF720FFF746FE0021F320FFF742FE83
:101430000021F420FFF73EFE0721ED20FFF73AFEE2
:101440004E21A720FFF736FE1E21FC20FFF732FEBB
:101450000C21FD20FFF72EFE3221FE20FFF72AFE91
:1014600001220A21104600F0CEFA02232822002190
:10147000184600F07FFA0948006820F480600749A8
:101480000860FFF790FEFFF766FEFFF760FE10BDF5
:1014900096000020E01A0020940000200004014083
:1014A00095000020544D010810B503218820FFF756
:1014B00001FE08218820FFF7FDFD01218E20FFF7A6
:1014C000F9FD10BD10B50446AFF2DF22214602201F
:1014D000FCF770F810BD2DE9F04106460C46904629
:1014E0000025FFF760FEFFF7DFFF2146BE20FFF774
:1014F000E1FD1DE04FF4805503E01420FBF78CFF65
:101500006D1E00210320FFF7D5FD00F0200008B973
:10151000002DF2D1002707E016F8011BFF20FFF78E
:10152000C9FD601EC4B27F1C322F01D2002CF3D142
:10153000002CDFD109218720FFF7BCFD4FF4C870D4
:10154000FBF76AFF4FF4805506E0681E051E03D1C5
:101550000320FFF7B7FF08E000210320FFF7AAFDF3
:1015600000F0040008B9002DEFD100BFFFF71BFE0B
:10157000FFF7F1FDBDE8F0812DE9F04391B007469A
:101580004FF00008AAE04046411C01F0FF08052882
:1015900006DD0420FFF796FF002091490870A5E0C2
:1015A00000210320FFF786FD044600210420FFF7F9
:1015B00081FD054605F0800028B100212620FFF7B7
:1015C00079FD8849087004F0010018B100208449B1
:1015D00008708BE004F01000E0B100260AE0002162
:1015E0007F20FFF767FD814649463846FCF7CBF878
:1015F000701CC6B2322EF2DB79480078CD2803DDAC
:1016000000207749087071E07548007832307449DD
:10161000087000BF04F0020000285FD07248007814
:10162000C0B900214B20FFF745FD04460DE0002125
:101630007F20FFF73FFD064631463846FCF7A3F80A
:1016400067480078401C6649087065480078A042E9
:10165000EDDB40E000214B20FFF72CFD044600208D
:101660005F4908700CE000217F20FFF723FD01A9EE
:101670005B4A127888545A480078401C58490870D0
:1016800057480078A042EEDB9DF81D00B2280FD12C
:101690009DF81F00BB280BD1FDF79CFBDDF8161051
:1016A000884205D14F4800789DF820104F4A505489
:1016B000FDF790FBDDF81610884206D04B4890F8F5
:1016C0005000401C494981F85000224601A9384683
:1016D000FBF7E6FF00BF0020414908704FF480612E
:1016E0000120FFF785FA00283FF44DAF00BF3C48CA
:1016F000007808B9FFF72FFD11B0BDE8F08310B5F1
:101700003B48FFF739FF4FF480603A49086010BD4D
:1017100010B504463848008870B9082C00D301245D
:1017200000F0B7FA354931F81410B0FBF1F201FBC3
:101730001200801C3049088002210120FFF758FA6E
:10174000D0B92D480088401E80B22B49088030BB9C
:101750002B480088401C80B229490880642804DD99
:10176000002008800320FFF7ADFE002022490880FA
:1017700024490880012010BD00201F49088020490D
:10178000088020480088401C80B21E490880B0F5BF
:101790007A7F04DD002008800320FFF793FE0020FD
:1017A000E9E770B505460E4614461748007801284B
:1017B00013D12046FFF7ACFF78B10022314628460E
:1017C000FFF789FE002010490870104BC822002145
:1017D0000846FDF7BAFF012070BD0020FCE70000BD
:1017E000970000209400002096000020E01A0020BE
:1017F000A8010020140401409C0000206A4D01084B
:101800009A00002098000020950000204F11010848
:1018100010B585224FF460410120FFF75BF90522E6
:101820004FF460410120FFF79DF910BD01460022F1
:1018300008E01046531C9AB24FF6FE73984201DB43
:10184000002070473D48008800F002000028F0D0DA
:101850003A48001D0180002208E01046531C9AB24D
:101860004FF6FE73984201DB0020EAE73348008818
:1018700000F001000028F0D03048001D0088C0B200
:10188000DFE710B52E48006840F480402C4908601E
:101890000846006820F48040086029480C30006841
:1018A00040F4804026490C3108602548001D00683E
:1018B00040F002002249091D0860FFF7A9FF1F48F8
:1018C000083800881D49083908800846008840F417
:1018D000007008800846008840F480700880084640
:1018E000008840F004000880084600880880084608
:1018F000008840F0080008800846008808800846F4
:10190000008840F040000880FF20FFF78FFF10BDE7
:1019100000F0070009490839098821F03801074A11
:10192000083A11801146098841EAC0011180114628
:10193000098841F0400111807047000008380040DC
:1019400018380240B04A0A400243B04B1A60704750
:101950000146072323EA01021202AC4B1B1D186843
:101960004FF6FF031840AA4B18431043A74B1B1D0B
:10197000186070472DE9F0478046894614461D4699
:101980002046E11704EB9171C1F3870AE11704EBDC
:1019900091718910A4EB8101CFB2042000EBC70044
:1019A000C7B22846FFF7D4FFC5F1040008FA00F6D5
:1019B0000F20284100EA0900064306F00F06202CFC
:1019C00009DA944801680120A04001434FF0E0206B
:1019D000C0F800110BE08F48001D0068A4F1200141
:1019E00001228A4010434FF0E021C1F804018A48E7
:1019F00010F80A0006FA07F10843C1B2864800F859
:101A00000A10BDE8F08770B504460B46CE1701EB0F
:101A10009676C6F38700CE1701EB9676B610A1EB4B
:101A20008606B606350E7D4B1B6843F001037B4EE0
:101A300033607B4B53F820300F26AE40B343784ED3
:101A400046F82030334653F8203004FA05F61E439A
:101A5000734B43F82060734B1B6801268E40334361
:101A6000704E336002F0010343B16E4B0C331B68C0
:101A700001268E4033436B4E0C36336002F0020376
:101A800043B1684B08331E6801238B401E43654BEE
:101A900008331E6070BD0020604908390860091FC6
:101AA000086014205D49091F08600020091D0860B6
:101AB000091D086059482038006840F00100574966
:101AC000203908605548183800685749084053497C
:101AD00018390860514820380068544908404F4977
:101AE000203908600846006820F4802008604B48D0
:101AF0001838006820F4FE004849183908600020B2
:101B0000091D0860704710B540480830006840F073
:101B100004003E49083108604048001D006840F05C
:101B200080503E49091D08604148406840F480707B
:101B30003F4948600846006840F0040008600846D5
:101B4000006840F002000860FAF746FD10BD30481A
:101B5000001D2E49091D08607047014649062F4A9D
:101B6000126842F001022D4B1A60704700B5024620
:101B70000023FFF790FF29482038006840F48030A8
:101B800026492039086000BF244820380068400CEE
:101B90000028F9D04FF48060204918390860901E61
:101BA000C2B20846006840EA824008600846006801
:101BB00040F4803008601F48006840F032001D4942
:101BC000086016482038006840F0807013492039BA
:101BD000086000BF114820380068400E0028F9D086
:101BE0000E481838006840F002000C4918390860A7
:101BF00006E00A4818380068C0F3870303F00303BF
:101C0000022BF6D100BD000080FFFF1F08ED00E0B1
:101C10000000FA0500E100E000E400E020380240A6
:101C200008000140000401400000FFF8FFFFF6FE3D
:101C300000700040003C024010B500F0FBFC20208A
:101C400000F012F8FEF7EDFFFFF7D0FA10BD0146E5
:101C50000448406E884202D00248406E704700201F
:101C6000FCE700000000F81F4FF0E021096921F0B7
:101C700004014FF0E02211614FF47A714143C90829
:101C8000516100219161032111610021324A1160EB
:101C9000704731480068704738B52F4800682F49B1
:101CA000B0FBF1F201FB12002B4908600846006806
:101CB000401C08602A480078401C294908702649C1
:101CC0000868FDF76FFE26480078052843DB0020F2
:101CD0002349087023480078D0B10DF1010001F0CC
:101CE000FDFD8DF800009DF80000FF2833D0002492
:101CF000FAF77BFC04461C48009901F02AFA2046BA
:101D0000FAF770FC00201749087002F00FF822E083
:101D10000DF1010001F081FD8DF800009DF800003B
:101D2000FF2818D00024FAF760FC04460E480099FA
:101D300001F00FFA2046FAF755FC0A48007828B15E
:101D400000200849087001F0F1FF03E09DF8000051
:101D500002F0EFF800BF38BDA00000200084D717C4
:101D6000A4000020A50000206B1B002010B501225C
:101D700080210220FEF7AEFE80210220FEF738FF10
:101D8000B0B90A20FBF754FB80210220FEF730FF98
:101D900070B94FF05A30094908604FF41651482085
:101DA00000F010F80648FAF71FFFFFF7FCF910BD26
:101DB00000200249086000BFF9E70000A8000020E9
:101DC0008D1E010870B505460C464348006840F476
:101DD0008040414908600846006820F4804008605F
:101DE0003D480C30006840F004003B490C3108606D
:101DF0000846006840F4804008608C2249150020A5
:101E0000FEF768FE8C224FF480610020FEF762FE30
:101E100007224FF4C0610020FEF7A4FE2F4868435C
:101E2000B0FBF4F02E490880081D008842F20C0136
:101E300008432B49091D08800846008840F480703B
:101E400008800846008840F02000088002232522F0
:101E500003210846FFF78EFD70BD0246002100E019
:101E6000491C1F480838008800F0400018B944F6A3
:101E700020608142F4D344F62060814204D21848A5
:101E8000001F0280012070470020FCE770B5044667
:101E90000D46164609E014F8010BFFF7DEFF20B9E6
:101EA0004FF416514820FFF78DFF281EA5F10101C0
:101EB000CDB2F0D1012070BD10B5094808380088B6
:101EC00000F0200030B10648001F0088C1B205486C
