:020000040800F2
:10000000600600207D0100088101000883010008CE
:100010008501000887010008890100080000000030
:100020000000000000000000000000008B0100083C
:100030008D010008000000008F01000891010008F8
:100040009301000893010008930100089301000840
:100050009301000893010008930100089301000830
:100060009301000893010008930100089301000820
:100070009301000893010008930100089301000810
:100080009301000893010008930100089301000800
:1000900093010008930100089301000893010008F0
:1000A00093010008930100089301000893010008E0
:1000B00093010008930100089301000893010008D0
:1000C00093010008930100089301000893010008C0
:1000D00093010008930100089301000893010008B0
:1000E00093010008930100089301000893010008A0
:1000F0009301000800F002F800F02CF80AA090E844
:10010000000C82448344AAF10107DA4501D100F0D2
:1001100021F8AFF2090EBAE80F0013F0010F18BF73
:10012000FB1A43F00103184744010000540100008A
:100130000023002400250026103A28BF78C1FBD8F0
:10014000520728BF30C148BF0B6070471FB51FBDA5
:1001500010B510BD00F031F81146FFF7F7FF00F0C1
:100160006FF800F04FF803B4FFF7F2FF03BC00F0A4
:1001700057F8000080F308887047000008480047DF
:10018000FEE7FEE7FEE7FEE7FEE7FEE7FEE7FEE747
:10019000FEE7FEE703480449044A054B70470000A8
:1001A000F5000008600000206006002060020020CA
:1001B00060020020704770477047754600F02CF8C9
:1001C000AE4605006946534620F00700854618B044
:1001D00020B5FFF7DFFFBDE820404FF000064FF0ED
:1001E00000074FF000084FF0000B21F00701AC466C
:1001F000ACE8C009ACE8C009ACE8C009ACE8C0098B
:100200008D46704710B50446AFF300802046BDE828
:100210001040FFF7A8BF0000004870470000002012
:1002200001491820ABBEFEE726000200704770B5FA
:10023000044625462868FFF79DFF6868804770BD23
:1002400008480468084A2168914203D105490C31E5
:10025000096802E00349091D09680846FFF7E7FF3E
:1002600000BFFEE784030008558778AA7C020008D7
:0C027000000000206006000030010008C3
:04000005080000F5FA
:1002F00012270000000000001200000000000000B3
:1003000000000000000000000000000008071000CE
:0B0310000807E00049474C3132303252
:1003800000000008000400080008000800600008E1
:0C03900000640008008001080000020862
:0804040010270000D690000053
:020000040800F2
:10080000101F0020D1090008D9090008DB090008E1
:10081000DD090008DF090008E10900080000000008
:10082000000000000000000000000000E3090008D4
:10083000E509000800000000E70900081D2C000879
:10084000EB090008EB090008EB090008EB090008B8
:10085000EB090008EB090008EB090008EB090008A8
:10086000EB090008EB090008EB090008EB09000898
:10087000EB090008EB090008EB090008EB09000888
:10088000EB090008EB090008EB090008EB09000878
:10089000EB090008EB090008EB090008EB09000868
:1008A000EB090008EB090008EB090008EB09000858
:1008B000EB090008EB090008EB090008EB09000848
:1008C000EB090008EB090008EB090008EB09000838
:1008D000EB090008F12E0008EB090008EB090008FD
:1008E000FD100008EB090008EB090008EB090008FF
:1008F000EB09000800F002F800F05AF80AA090E8AE
:10090000000C82448344AAF10107DA4501D100F0CA
:100910004FF8AFF2090EBAE80F0013F0010F18BF3D
:10092000FB1A43F001031847003200002032000098
:100930000A444FF0000C10F8013B13F0070408BF05
:1009400010F8014B1D1108BF10F8015B641E05D0A3
:1009500010F8016B641E01F8016BF9D113F0080F58
:100960001EBF10F8014BAD1C0C1B09D16D1E58BFEA
:1009700001F801CBFAD505E014F8016B01F8016B21
:100980006D1EF9D59142D6D3704700000023002494
:1009900000250026103A28BF78C1FBD8520728BF8F
:1009A00030C148BF0B6070471FB51FBD10B510BDEB
:1009B00000F027FA1146FFF7F7FF02F0EBFE00F018
:1009C00045FA03B4FFF7F2FF03BC00F04DFA000054
:1009D0000948804709480047FEE7FEE7FEE7FEE7D3
:1009E000FEE7FEE7FEE7FEE7FEE7FEE7044805490F
:1009F000054A064B70470000692C0008F5080008FE
:100A000010190020101F0020101B0020101B0020B8
:100A1000EFF3108072B6704780F31088704730BFD4
:100A200080F3088870474FF0010080F31388024874
:100A30000249016000BFFEE70CED00E00400FA058A
:100A400008B50146002000BF0CE00A5C02F0F0028D
:100A5000C0F10303CB5C03F00F031A430DF8002031
:100A6000421CD0B20328F0DD002004E01DF8002075
:100A70000A54421CD0B20328F8DD08BD03784B406D
:100A8000037043785340437083784B408370C3783E
:100A90005340C3707047F8B513460022072900DCA5
:100AA00001B9F8BD012B60D10578C1F10806012418
:100AB000B440641E2C408C404678C1F108070125E3
:100AC000BD406D1EC5F1FF053540C1F10806354139
:100AD0002C43E4B28DF800404578C1F108060124AA
:100AE000B440641E2C408C408678C1F10807012573
:100AF000BD406D1EC5F1FF053540C1F10806354109
:100B00002C43E4B28DF801408578C1F10806012438
:100B1000B440641E2C408C40C678C1F10807012502
:100B2000BD406D1EC5F1FF053540C1F108063541D8
:100B30002C43E4B28DF80240C578C1F108060124C7
:100B4000B440641E2C408C400678C1F10807012592
:100B5000BD406D1EC5F1FF053540C1F108063541A8
:100B60002C43E4B28DF8034053E0022B50D1C578FA
:100B700001248C40641E2C40C1F10805AC4006786D
:100B800001258D406D1EC5F1FF0535400D412C43FB
:100B9000E4B28DF80040057801248C40641E2C409E
:100BA000C1F10805AC40467801258D406D1EC5F1A8
:100BB000FF0535400D412C43E4B28DF801404578E6
:100BC00001248C40641E2C40C1F10805AC4086789D
:100BD00001258D406D1EC5F1FF0535400D412C43AB
:100BE000E4B28DF80240857801248C40641E2C40CC
:100BF000C1F10805AC40C67801258D406D1EC5F1D8
:100C0000FF0535400D412C43E4B28DF8034000E070
:100C100047E7002204E01DF802408454541CE2B26D
:100C2000032AF8DD00BF3CE710B504462046FFF775
:100C300007FF6C4802786C4801782046FFF72BFFCD
:100C40006A4802786A4801782046FFF717FF65482E
:100C50004278654841782046FFF71DFF2046FFF7A0
:100C6000EFFE62484278624841782046FFF706FF6F
:100C70002046FFF7E5FE5D4882785D488178204692
:100C8000FFF7FCFE57488278574881782046FFF7E7
:100C900002FF5648C2785648C1782046FFF7EEFE5C
:100CA0005048C2785048C1782046FFF7F4FE2046ED
:100CB000FFF7C6FE10BD30B50346002000BF07E0B9
:100CC0001C5C00F00305555D6C401C54441CE0B2F4
:100CD0008842F5DB30BD70B504460D4629462046F6
:100CE00000F092F908B9012070BD0020FCE770B552
:100CF00004460D46042229463E4802F05CFD28B910
:100D000004223D49204602F067FD07E004222946FF
:100D1000204602F061FD2046FFF786FF70BD70B5EA
:100D200004460D4600262A462146A01D02F060FD1D
:100D300005F1080020700220607004222D49A01CDB
:100D400002F056FD2C4A2946A01DFFF7B4FF20787B
:100D5000801E81B2204600F057F9064631122078F5
:100D6000801E21542078401E2654012070BDF8B505
:100D700004462178204600F047F908B10220F8BD6A
:100D800025786678022E1BD1A11C6846FFF7AFFFBD
:100D9000A5F10800C1B26A46A01DFFF78CFFA5F1BE
:100DA0000800C1B2A01DFFF796FF38B1A5F10802F7
:100DB000A11D204602F01CFD0020E0E70120DEE737
:100DC0000320DCE710B5044604222146094802F05E
:100DD00003FD04222146084802F0FEFC0648FFF706
:100DE00023FF10BD1C3B0008183B0008243B0008F3
:100DF000203B00086001002064010020704770471C
:100E00007047754600F02CF8AE460500694653461B
:100E100020F00700854618B020B5FFF7E7FDBDE8D4
:100E200020404FF000064FF000074FF000084FF051
:100E3000000B21F00701AC46ACE8C009ACE8C009E2
:100E4000ACE8C009ACE8C0098D46704710B504464F
:100E5000AFF300802046BDE81040FFF7B2BD0000B0
:100E600000487047AC18002001491820ABBEFEE7CF
:100E7000260002007047000010B500F067FB006913
:100E800005490068884205D004480068BDE8104064
:100E900000F040BE10BD0000A53CC35A90030008FE
:100EA00070B500F053FB44694FF0006505E000F0B9
:100EB00059FA2168884204D01034D5F89003A04232
:100EC000F5D8103C074A1021204601F089F8206827
:100ED000A0F14901142901D8C0B270BD01495320C5
:100EE000086070BD7C18002070B50446204D28892C
:100EF00000280DD1082C00D3012401F0F3FF1D4977
:100F000031F81410B0FBF1F201FB1200801C2881B3
:100F10000221012000F0E0FA4FF4C872002480B1F1
:100F20002C81EC80A888401C80B2A880B0F57A7F24
:100F300005D9AC80104B0021032001F0D7FE002022
:100F400070BD2889401E0004000C2881F7D1E88874
:100F5000401C80B2E880642805D9EC80064B002153
:100F6000032001F0C3FE2C81AC80012070BD000085
:100F700040010020FC3A0008B12A000870B50021A9
:100F8000D0F80B401E4DC1EBC10305EB43021668C0
:100F9000A6421CD10021C47B5618367AA64201D144
:100FA000002070BD491CC9B20529F5D3517B491CED
:100FB000C9B20524B1FBF4F604FB161151730822E3
:100FC000294402EB4302C07B8854012070BD491CB8
:100FD000C9B21429D7D30B4B1978491CC9B21422B2
:100FE000B1FBF2F402FB14111970C1EBC10105EB66
:100FF0004101C27B0A72D0F80B000860012070BD6D
:10100000A80500202400002070B500230024002241
:10101000074E08E0855C5D4036F81550EBB2634042
:101020002C0A521C92B28A42F4D344EA032070BDC7
:101030004838000810B50549054800F087FFBDE8AD
:1010400010400449044800F081BF000078020020ED
:10105000F806002098040020180F002006E0052163
:10106000491E89B20029FBD1401E80B20028F6D16A
:101070007047000070B500F06FF980B24FF48072D5
:101080004FF4C07354005D009600402811D08028B2
:101090000FD090420DD098420BD0A04209D0A84268
:1010A00007D0B04205D0124881690068081AC0F321
:1010B0008F20104998420DD006DC40280DD08028A2
:1010C0000FD0904211D105E0A04203D0A84201D038
:1010D000B0420AD10848086070BD0748303808603F
:1010E00070BD05481838086070BD0020086070BDEC
:1010F0008003000838010020E43A000810B50448D5
:1011000001F01CF803494FF48060086010BD000036
:10111000E80600201404014070B58B088C07240FEA
:10112000124D2E6846F001062E609D00104B2B4498
:101130009D680F26A640B5439D609D68A04005436D
:101140009D600C4B1C680120884004431C60D10743
:1011500004D0084B0C33196801431960910704D57A
:10116000044908310A6802430A6070BD2038024011
:101170000000014000040140F0B5C1B0064614462D
:10118000002E32D0FA2C30D8224601A802F024FBDF
:10119000A1B201A8FFF738FF0546FFF739FC074663
:1011A00006221349304602F0ACFAF0B12A0A01A82F
:1011B000611C02554A1C4554D1B2FFF7B0FDA0B1E5
:1011C0009DF80420FA2A10D801A9304602F099FAB5
:1011D00058B106220749304602F093FA28B1384642
:1011E000FFF71AFC012041B0F0BD0020FBE7000032
:1011F000483A00084E3A000870B500F07FFE1949E1
:1012000000204870887001224A71174DC1F80C51B6
:10121000164BC1F8083101F5887148708A704A711F
:10122000134AC1F80C21134CC1F8084101F588712B
:101230004870887002244C71C1F80C51C1F8083113
:1012400001F58871487088704C71C1F80C210A480A
:10125000C1F80801BDE8704005220021074B0220BB
:1012600001F044BD68010020453500088D1D0008CF
:10127000AD340008F11E0008491F000835100008B1
:1012800070B505464FF40056304600F079F8A8B91D
:101290000E4C206840F400702060206840F0080088
:1012A000206000202860304600F06AF8216821F0B4
:1012B00008012160216821F40071216008B100203B
:1012C00070BDBDE8704000F04FB80000043C024023
:1012D00000224021104602F0B6B838B504466A46EE
:1012E0000121204600F0F6FE9DF80010491C0091F7
:1012F0006A460121204602F073F838BD0122FF2121
:10130000014B002000F085BD3601002010B50C46D1
:10131000002804D0012809D0022811D109E00220B8
:1013200001F0FCFF0B4801F027FD09E000F0D8FBBD
:1013300006E02AB1134600210522084601F0D6FC3A
:10134000002C06D0012C04D02046BDE81040FFF749
:10135000C4BF10BDF51A000801480088704700009E
:101360004C00F81F0020704704480168890703D526
:10137000022101600120704700207047183C0240A4
:101380000A4900E0401E10B10A68D207FAD140B104
:10139000086810F4F85F06D04FF4F8500860012098
:1013A000704703207047002070470000183C02403F
:1013B0000948016889070ED50068C00705D00648AE
:1013C00006490830016006490160034805490C30B0
:1013D0000160054901607047043C0240EFCDAB89D4
:1013E00005040302BFAE9D8C161514132DE9F041C0
:1013F00005460C4616464FF440573846FFF7C0FFE7
:1014000038B108E001CE01C5241F3846FFF7B8FF08
:1014100008B9002CF6DC14B10020BDE8F0810120F1
:10142000FBE700000248016841F0020101607047DB
:10143000043C02402DE9F0470024254B03EB8023B8
:10144000244E37684FF0010808FA00F52F4202D108
:101450003068284330604FF0030902F0030531E0A3
:1014600008FA04F70F422CD0D3F800C0600009FA44
:1014700000F62CEA060C05FA00FA4AEA0C0AC3F850
:1014800000A0012D01D0022D15D1D3F808C02CEAFF
:10149000060CC2F3C10A0AFA00FA4AEA0C0AC3F8B7
:1014A00008A0B3F804C02CEA070CC2F38007A740D9
:1014B00047EA0C079F80DF68B743560986403E43E2
:1014C000DE60641C31FA04F0CAD1BDE8F087000088
:1014D000000002401C38024002460020034B03EB90
:1014E0008222128A0A4200D0012070470000024086
:1014F000024A02EB80204183704700000000024056
:10150000024A02EB80200183704700000000024085
:101510000C4902280AD0032088770220C87701F1FD
:1015200028000862103048621A3870470920087095
:10153000082048700448C1F802001030C1F80600C5
:1015400000487047C0060020080F002001480068CE
:10155000704700003801002070B50D461446FFF7B3
:101560009FFC20700120287070BD70B506460D46A6
:101570001446FFF7EBFF026900687379012B03D073
:10158000022B0FD00E2070BD0B2129709188218075
:101590000168C4F802109168C4F80610007AA072BD
:1015A000012070BD1E2070BD70B506460C46154664
:1015B000FFF7CCFF0169F07848B1B0884A688242F1
:1015C00005D0A0F57F42FF3A01D0122070BD002067
:1015D0002070888828802078801CC0B2207089689C
:1015E00029502078001D2070012070BD10B50B46D9
:1015F0000D4900780978884214D10C4C2078F128E4
:1016000005D0F2280CD000202070222010BD1146F9
:10161000184601F0DFFD08B1F2202070012010BD56
:10162000012010BD032010BD2D0000202C00002043
:1016300070B504460D46164600F04AFA2379F02BA1
:1016400003D0F22B08D00E2070BD3246294620462A
:10165000BDE87040FFF789BF324629462046BDE805
:101660007040FFF7C3BF00002DE9F0410C4615465E
:10167000FFF76CFF026901684368002020704FF695
:10168000FF7028802078801CC0B22070134F16682D
:10169000BE4202D14FF0FF3200E092682A5020781B
:1016A000001DC0B220705A682A502078001DC0B2B8
:1016B000207051F8242B2A502078001D207004E05F
:1016C0002078431C23702A54491C0A78A2F1300068
:1016D0002A28F5D90120BDE8F0810000A53CC35AB5
:1016E00010B50446FFF732FF8168104A086890423F
:1016F00013D14868421C10D078B1B0F1443F0CD0EF
:10170000B0F1883F09D00A4A904206D08968C9439F
:10171000884202D1A04205D105E00648416EA142AF
:1017200001D0406E10BD002010BD00005A3CC3A582
:10173000424553540000F81F70B504464FF48075BD
:1017400029460120FFF7D4FE0220FFF787FC69003D
:101750001CB10120FFF7D4FE02E00120FFF7C8FE14
:101760000220FFF77BFC29460120FFF7C9FE02207B
:10177000FFF774FC2946BDE870400120FFF7B8BEB2
:1017800010B539224FF440710120FFF753FE4FF49A
:1017900000710120FFF7B4FEBDE810404FF48071E6
:1017A0000120FFF7ADBE2DE9F04180460024202244
:1017B000170139460120FFF73DFE00257E10314616
:1017C0000120FFF795FE0220FFF748FC314601207B
:1017D000FFF796FE0220FFF741FC6006040E394633
:1017E0000120FFF779FE08B1641CE4B20220FFF784
:1017F00035FC6D1CEDB2082DE1D331460120FFF719
:1018000077FE0220FFF72AFC392239460120FFF734
:1018100011FE39460120FFF773FE0220FFF71EFC80
:101820004046FFF789FF2046BDE8F0812DE9F041F1
:1018300005464FF4807631460120FFF759FE02201D
:10184000FFF70CFC00247700280604D53946012058
:10185000FFF756FE03E039460120FFF749FE680610
:10186000050E0220FFF7FAFB31460120FFF748FE84
:101870000220FFF7F3FB31460120FFF739FE02207B
:10188000FFF7ECFB641CE4B2082CDDD3BDE8F041AB
:1018900000F036B870B54FF4007421460120FFF710
:1018A0002FFE651029460120FFF72AFE0220FFF7D0
:1018B000D5FB21460120FFF71BFE0220FFF7CEFBE0
:1018C0002946BDE870400120FFF712BE10B54FF465
:1018D000007421460120FFF70BFE0220FFF7BEFB3C
:1018E00061100120FFF70CFE0220FFF7B7FB214635
:1018F0000120FFF705FEBDE810400220FFF7AEBB58
:101900002DE9F04100242022150129460120FFF78E
:1019100091FD0220FFF7A2FB6F1039460120FFF76F
:10192000EFFD0220FFF79AFB4FF4FA760FE0641CFC
:10193000A4B2B4420BD9392229460120FFF77AFD1F
:1019400029460120FFF7DCFD0020BDE8F081294693
:101950000120FFF7C1FD0028E9D139460120FFF73A
:10196000C7FD0220FFF77AFB392229460120FFF745
:1019700061FD29460120FFF7C3FD0220FFF76EFB42
:101980000120E2E770B505460C46FFF783FF2846C5
:10199000FFF74CFF08B9641EF7D1FFF797FF0CB1B2
:1019A000012070BD002070BD2DE9F04107460E46B4
:1019B00015461C46FFF76EFF3846FFF737FFF0B1BC
:1019C000300AFFF733FFD0B1F0B2FFF72FFFB0B10D
:1019D000FFF760FF47F00100FFF728FF38B90EE07E
:1019E0000020FFF7E0FE05F8010B641EE4B2012CB5
:1019F000F6D8641EE4B20120FFF7D5FE2870FFF789
:101A000065FF14B10020BDE8F0810120FBE72DE95E
:101A1000F04107460E4615461C46FFF73BFF384689
:101A2000FFF704FF88B1300AFFF700FF68B1F0B29A
:101A3000FFF7FCFE38B908E015F8010BFFF7F6FEDA
:101A400018B1641EE4B2002CF6D1FFF73FFF14B1C9
:101A50000020BDE8F0810120FBE72DE9F0410746B9
:101A60000D4616461C46FFF715FF3846FFF7DEFE0B
:101A700080B1280AFFF7DAFE60B1E8B2FFF7D6FEC0
:101A800030B907E03046FFF7D1FE18B1641EE4B26A
:101A9000002CF7D1FFF71AFF14B10020BDE8F08148
:101AA0000120FBE7084A45F25553136050609160EE
:101AB000580010604CF6CC4010600021034B4FF4EE
:101AC0004872022001F012B900300040D11A00081B
:101AD00002494AF6AA200860704700000030004022
:101AE000014801F049B90000D11A00080421002082
:101AF000FFF706BD10B504210020FFF7F9FC022214
:101B00000021BDE81040024B084601F0EFB800008C
:101B1000ED1A000810B50446006806490840B0F107
:101B2000005F06D12068FEF77BFF6068BDE81040CB
:101B3000004710BD0000FE2FF0B505460F461446C5
:101B40001E46304600F018F8C6F1040085400F200C
:101B5000F04038402843000104F1E02181F80004FE
:101B600004F01F01012088406109890001F1E02192
:101B7000C1F80001F0BD0000072181430902054AB8
:101B800010684FF6FF031840034B184308431060DA
:101B9000704700000CED00E00000FA0510B50549A3
:101BA000054800F0D3F9BDE810400449044800F0AE
:101BB000CDB9000068010020E8060020880300205D
:101BC000080F00202DE9F843044688460D2660786A
:101BD000DFF8F09000EB800009EB8000C56800277B
:101BE0000020009001F026FA6178884262D9A1783D
:101BF000286888424FD1207802280DD004280BD0C5
:101C0000072809D0092807D005282CD00B282AD06E
:101C10000D2828D00C264DE0A86810B360782A491A
:101C200001EBC000807998B1E278611CD21CA01C45
:101C300001F0DEFD84F80180A968601C8847064633
:101C40000322A11C601C01F0D3FD022E02D031E062
:101C500009262FE02868CF2800D90126E0780090D7
:101C600028E00A2626E0E86898B1E278611CD21CD8
:101C7000A01C01F0BDFD84F80180621DEB6869467F
:101C8000601C984706460322A11C601C01F0B0FDB1
:101C900010E00B260EE0607800EB800009EB80007E
:101CA000006980477F1CFFB2B84203D955F8100F76
:101CB000FF289CD99DF80000401CE070267130463A
:101CC000BDE8F883043B00085801002070B50446C5
:101CD0000846FFF71DFC054601202070184E3068AD
:101CE000C4F801007068E060D4F8060071688842AA
:101CF00002D0607901280CD9227DD5F80200153276
:101D00002146FFF739FA20B9297800220220FFF78F
:101D1000FDFAD4F80600716888420FD0227DD5F80C
:101D2000060015322146FFF727FA002806D1697808
:101D3000BDE8704000220220FFF7E8BA70BD000045
:101D40008C18002070B5C0B00E46154601AC014697
:101D50001022601C01F040FD0B49487A401C48727B
:101D60008DF814000422314604F1110001F034FD15
:101D7000F27829460DF1190001F02EFD01212046CF
:101D8000FFF7A4FF40B070BD8C180020F8B50E46D8
:101D900010F8015C841D00F11B0104F11103009196
:101DA0001F46621C314600F069F801281ED1294601
:101DB0003846FFF707FF0246032A17D0607C022847
:101DC0000DD005280BD0072801D00B2801D1012AFE
:101DD00005D0092801D00D2808D1012A06D000F02D
:101DE00007F8607429462046FFF770FF0120F8BD10
:101DF000801E0C280BD2DFE800F0060A0A080A064B
:101E00000A060A080A0803207047062070470020C7
:101E1000704710B590B0144601228DF800208DF85F
:101E200001008DF802108DF803402246194601A8E2
:101E300001F0D2FC241D0021E2B26B46084600F0FE
:101E400002F810B010BD10B586B001248DF80C401A
:101E50004FF08834CDF80D400024ADF811408DF8D6
:101E600004408DF805008DF806108DF807201A46FD
:101E700001A902A8FFF766FF06B010BD70B51446B1
:101E8000184D20682968884206D0174A904203D02E
:101E9000491C01D0042070BD2046FFF76FF830B117
:101EA00020791249012804D005280CD00EE0082022
:101EB00070BDD4F805006A68904201D0062070BD5C
:101EC0000020486007E0D4F8050008B10D2070BD7F
:101ED000D4F80B004860D4F80B00C4F805000120CA
:101EE00070BD00008C18002042455354240000208F
:101EF0000C39C9B2801D00F0B7BD000010B50E4905
:101F00004FF480642246A1F1200001F04AFB0B4906
:101F10002246A1F5826001F044FB09492246A1F165
:101F2000200001F03EFB22460649BDE81040A1F525
:101F3000826001F036BB000008070020080B00207B
:101F4000280F00202813002001F04CB870B50C4673
:101F500000256178002902D0012922D10EE0014636
:101F6000D4F80C21A01D904710F0FF00207014D071
:101F70002571A078012811D00120E070D4F8083133
:101F800022792178A01D984728B1E078401E10F0F2
:101F9000FF00E07005D00120607070BD0248007A3B
:101FA000EBE7657070BD00008C18002070B5054629
:101FB0000C46FFF7FDF94FF4807603E0A4F580743A
:101FC00005F580752846FFF75BF908B1B442F5D8EE
:101FD000FFF728FAB44201D8012070BD002070BD7F
:101FE0008B0707D021F0030141F0040102E008C88B
:101FF00008C2091F0029FAD10120704770B50546B3
:102000000C461646E10700D0641CFFF7D1F93246B2
:1020100021462846FFF7EAF90446FFF703FA20466F
:1020200070BD000030B5274B196801F00C01264C3B
:10203000042928D0082928D00C2929D0191F09687B
:10204000C1F34231491C4FF400428A4002601968D2
:1020500001F0F00109091D4A525C0168D14041605C
:102060001A6802F4E062120A184D113DAA5C21FAC6
:1020700002F282601A6802F46052D20AAA5CD1406D
:10208000C160046130BD0460E1E711490160DEE731
:1020900019680E4AC1F38341093A515C1A68C2F3C8
:1020A0008152521C1D68ED0305D4074D6943B1FBF5
:1020B000F2F10160CBE7064D6943B1FBF2F101603B
:1020C000C5E70000083802400024F4001100002099
:1020D00000127A002DE9F04105460C46174620E033
:1020E000B5F5004F03D247F69C70844202D9002018
:1020F000BDE8F08105F03F00C0F14006A64200D3E4
:102100002646F3B2A9B23A46A020FFF74DFC50B1E3
:102110003544A41B37444FF0FF31A020FFF732FCB9
:1021200008B1002CDCD134B1002211461046FFF773
:10213000EDF80020DCE70120DAE700002DE9F04FA0
:1021400091B0834600253227A946424E4FF4806A5B
:1021500071E028466D1CEDB2052805D9052000F078
:10216000D1FA86F801906CE00021032000F060F9BC
:1021700080460021042000F05BF95FEAC87002D0BD
:1021800086F801905DE05FEAC86019D5707810B9F3
:10219000584601F0F9FA002400217F2000F048F9A8
:1021A0000146584601F092FA641CE4B2322CF3D393
:1021B0007078CD2802D986F8019042E032307070F4
:1021C0005FEA887037D500214B2000F031F90446D2
:1021D0000DF104080DE000217F2000F029F90146EF
:1021E0007078B0FBF7F207FB120208F80210401CEF
:1021F00070707078A042EED3322C02D8584601F0AD
:10220000C3FAB4FBF7F007FB104020B1B4FBF7F0C2
:1022100007FB104200E0322201A9584601F071FA92
:10222000584601F00BFB86F8019020B900220321EB
:102230000220FFF76BF851460120FFF74DF9002807
:1022400087D07078002801D100F008F911B0BDE8FE
:10225000F08F000040010020014901208870704784
:10226000400100202DE9F04107460D4600F052FAEA
:1022700000F01EF92946BE2000F0DAF84FF480582D
:102280001BE0444603E0142001F082F9641E0021A3
:10229000032000F0CDF8800601D4002CF3D10026F5
:1022A00007E017F8011BFF2000F0C2F86D1EEDB229
:1022B000761C322E01D2002DF3D1002DE1D109215F
:1022C000872000F0B5F84FF4C87001F061F902E022
:1022D000B8F101080ED00021032000F0A9F8400752
:1022E00002D4B8F1000FF3D100F014FABDE8F041C8
:1022F00000F0B4B8042000F005FAF5E72D480168B5
:1023000041F480410160016821F480410160001DB9
:10231000016841F00201016026480C30016841F477
:10232000804101602448016821F07C41016001681E
:1023300041F028410160001D018821F460410180C5
:10234000001D016821F07C410160016841F07C4181
:102350000160001D016821F07C410160016841F0CD
:10236000A8410160144824300168C1F313010160E1
:102370000168124A114301601148018801800188F7
:1023800041F400710180018841F48071018001886D
:1023900041F00401018001880180018841F00801B9
:1023A000018001880180018841F040010180FF2007
:1023B00000F008B8183802400004024000005055F0
:1023C0000038004010B500214FF6FE730E4A06E0BB
:1023D0000C46491C89B29C4201D3002010BD1488D0
:1023E000A407F5D5084C241D2080002006E00146F6
:1023F000401C80B2994201D3002010BD1188C9074A
:10240000F5D02088C0B210BD0838004000F00701A8
:102410000648028822F038020280028842EAC1019E
:102420000180018841F04001018070470038004080
:1024300070B506460D464FF4805421460120FFF743
:1024400057F83046FFF7BEFF2846FFF7BBFF0546AB
:1024500021460120FFF754F8284670BD10B505212C
:102460008720FFF7E5FF02218E20FFF7E1FF022121
:102470008820FFF7DDFF00218820FFF7D9FF132117
:102480008520FFF7D5FF80218620FFF7D1FF0021AF
:102490000320FFF7CDFF00210420FFF7C9FF034809
:1024A000016841F48061016010BD0000000401403A
:1024B00010B503218820FFF7BBFF08218820FFF714
:1024C000B7FF0121BDE810408E20FFF7B1BF00002B
:1024D0000CB50022019200922D49086840F480302A
:1024E00008604FF4A043086800F4003000900198A1
:1024F000401C0190009810B901989842F3D10868E7
:10250000800302D50120009000E00092009801288D
:102510003CD12048026842F004020260026842F0A6
:1025200002020260026842F0010202601848243090
:10253000026842F080520260C2141748026042688A
:10254000D206FCD4124808300268026002680260B9
:1025500002680260026822F47D020260026842F4AE
:10256000110202600A6842F080720A600A689201F1
:10257000FCD5016821F003010160016841F003010D
:1025800001600168C1F381010329FAD10CBD00008B
:1025900000380240003C02400070004010B5044684
:1025A000E078012801D00F2010BD20794938152886
:1025B00001D30E2010BDFEF773FC01462079814245
:1025C00009D000F0ADFD40B10021054B4FF4487239
:1025D000084600F08BFB012010BD122010BD00004A
:1025E0006127000810B5184A01781278914229D164
:1025F000164C2178F22905D0F32921D00020207033
:10260000222010BD401D0179427951404A4042715B
:10261000514001718188006800F072FD012811D1DC
:1026200000F0B8FD70B1F3202070FFF759FA084BA5
:102630004FF448720121002000F058FB012010BD2A
:10264000012010BD032010BD2D0000202C00002013
:10265000270A000810B50446FFF73AFA0D4920781A
:102660000978884214D10C490878F12805D0F2285D
:102670000CD000200870222010BDE078801EC1B26E
:10268000A088A21DBDE8104000F0CABD012010BD09
:10269000032010BD2D0000202C00002010B50446A2
:1026A000FFF716FA2179F12903D0F32906D00E207D
:1026B00010BD204600F0E0FDC0B210BD2046BDE8D0
:1026C0001040FFF78FBF10B50446E078012801D114
:1026D000217961B178B100F0ADFC014620798142E9
:1026E0000ED900F0E1FC207900F0B4FC06E00220F5
:1026F00000F05CFE02E0012000F058FE012010BD59
:102700000E2010BD0146024A0220FEF7FFBD000068
:102710006127000810B51148016821F4806101604B
:1027200000218E20FFF784FE01218720FFF780FE25
:1027300000218520FFF77CFE00218620FFF778FE30
:1027400000210320FFF774FE00210420FFF770FE34
:10275000BDE81040022000F00DBF00000004014061
:1027600010B500F049F94FF480510120FEF7C8FE82
:102770004FF4006421460120FEF7C2FE022000F063
:10278000F9FE21460120FEF7B3FE322000F0F2FEF2
:1027900000210320FFF74CFE00210420FFF748FE34
:1027A00080218720FFF744FE022000F0E3FE002195
:1027B0008720FFF73DFE00218520FFF739FE00212D
:1027C0008620FFF735FE00210320FFF731FE0021B0
:1027D0000420FFF72DFE79218920FFF729FE06212D
:1027E0008A20FFF725FEEA218B20FFF721FEEA2150
:1027F0008C20FFF71DFEFC218D20FFF719FE002124
:102800008E20FFF715FE2B219C20FFF711FE4021A3
:102810009D20FFF70DFE0A219E20FFF709FE0321F0
:102820009F20FFF705FE6821A020FFF701FE012190
:10283000A120FFF7FDFD3A21A220FFF7F9FD93212A
:10284000A320FFF7F5FD0221A420FFF7F1FDF621FB
:10285000A520FFF7EDFD1D21AA20FFF7E9FDAC2122
:10286000B020FFF7E5FD0021B220FFF7E1FD0221D6
:10287000B320FFF7DDFD1021B420FFF7D9FD28219B
:10288000B520FFF7D5FD2D21B620FFF7D1FDD421CE
:10289000B720FFF7CDFD0021B820FFF7C9FD0021CB
:1028A000B920FFF7C5FD4221BA20FFF7C1FD452140
:1028B000BB20FFF7BDFD5321BC20FFF7B9FD54211C
:1028C000BD20FFF7B5FD4221BF20FFF7B1FD452137
:1028D000C020FFF7ADFD5321C120FFF7A9FD542112
:1028E000C220FFF7A5FDFF21C320FFF7A1FDFF21B7
:1028F000C420FFF79DFDFF21C520FFF799FDFF21B3
:10290000C620FFF795FD8021D820FFF791FD6021BB
:10291000E920FFF78DFD4E21EE20FFF789FDA5216F
:10292000EF20FFF785FD2D21F020FFF781FD23210A
:10293000F120FFF77DFD0D21F220FFF779FD5221F7
:10294000F520FFF775FDFEF7ABFA493800EB800084
:102950004006010EF920FFF76BFD0A21FA20FFF770
:1029600067FD0021F320FFF763FD0021F420FFF74E
:102970005FFD6221F620FFF75BFD0021F720FFF7E6
:1029800057FD0721ED20FFF753FD18480178A720D8
:10299000FFF74EFD164B4FF4C8720021032000F0E4
:1029A000A5F91E21FC20FFF743FD0C21FD20FFF7B8
:1029B0003FFD3221FE20FFF73BFD01220A21104698
:1029C000FEF7AAFB0223282200211846FFF7B4F8DD
:1029D0000848016821F480610160FFF79BFEFFF762
:1029E0003DFDBDE81040FFF737BC0000400100206E
:1029F000B12A00080004014010B51A48016821F40A
:102A000080610160C11409220120FEF713FD092233
:102A10004FF480510120FEF70DFD4FF48064002239
:102A200021460120FEF706FD002202210120FEF7CB
:102A300001FD21460120FEF763FD02210120FEF782
:102A40005FFD6410092221460220FEF7F3FC2146B7
:102A50000220FEF755FDFFF751FCBDE810400420B1
:102A6000FFF7D4BC000401402DE9F04106460F46B3
:102A700015460D4CA078012813D12846FEF734FAEC
:102A800078B10020A0700021084BC822084600F051
:102A90002DF92A4639463046FFF7E4FB0120BDE810
:102AA000F0810020FBE700004001002059220008CF
:102AB00070B500212620FFF7BBFC324B197881420C
:102AC00001D2421A00E00A1A2E4C00250A3C082ABC
:102AD00036DA400800EB5100C0B21870D978491CB2
:102AE000C9B2D97014293FD9A0F10A01D32924D23F
:102AF0001430C1B22170A720FFF79AFC6069C8B1F9
:102B000000F0F0F96169884204D200F0EBF96169E4
:102B1000081A03E000F0E6F96169401A1A49884290
:102B200004D20420FFF7EEFD656106E000F0DAF95B
:102B3000606102E000F0D6F960612561002070BD9F
:102B40005978814201D2411A00E0091A322909DA82
:102B50009978491CC9B29970042905D91870DD709B
:102B60009D7001E058709D702069401C2061B0F597
:102B7000167F05D925610420FFF7C4FD002070BD34
:102B8000012070BD4A010020A068060010B500F0C9
:102B9000DBFB002207210220FEF7B8FB0021054BDA
:102BA0004FF47A72084600F0A1F8BDE810400248E0
:102BB000FEF708B9413300089018002070B50D4C9D
:102BC0004FF0FF3020600020FEF78AFD6060022099
:102BD0002072002565721422002104F10A0000F021
:102BE00024FEA5772246BDE870401F21402000F05A
:102BF000F7BB00008C18002010B500F021F8FEF79C
:102C0000BFFDFFF7ADFD4FF4165000F08BF9BDE8A6
:102C100010404FF4FA610520FEF744BF064A1068E1
:102C20000649B0FBF1F301FB130010601068401C73
:102C3000106000F005B900003C0100200084D717A7
:102C400000B585B06846FFF7EDF901984FF47A7149
:102C5000B0FBF1F14FF0E020491E41610721016115
:102C600005B000BD0620704710B51048016841F45A
:102C7000807101600D4908310A680D4B1A400A60E5
:102C800002680C4B1A400260026822F48022026043
:102C9000086820F47D000860091D00200860FFF727
:102CA00017FC054805490068086010BD003802405F
:102CB0000CC0FF88FEFFFEEE8803000808ED00E070
:102CC00010B5064B06E0044603EB0414401C2469CF
:102CD000944202D08842F6D3002010BD281700206D
:102CE0000149002008607047281700202DE9F047AF
:102CF00006460F46144699464FF001081D4D288898
:102D000069880144142902D30220BDE8F0874A46AD
:102D10000020FFF7D5FF98B1484600F0AFF82888AB
:102D200069884A4601440020FFF7CAFF401E4FF061
:102D3000030805EB00100671C0F8109086B112E090
:102D400068880201288805EB0011401C05EB001083
:102D5000091D001D00F04CFD2888411C2980E8E772
:102D600004B90124012700214171C7808460C1603A
:102D70004046CAE72817002010B50F4C0246002035
:102D8000218863881944FFF79BFF002812D021880F
:102D90006288114481420AD9091A0A0104EB001120
:102DA000401E04EB0010091D001D00F021FD2088CD
:102DB000401E208010BD0000281700202DE9F041A2
:102DC0001E4F3C1D13E0607880B1FDF721FE0646E2
:102DD000E56800206070217889B1012911D00229AD
:102DE0001BD003291ED03046FDF716FE103438885C
:102DF00007EB0010001DA042E5D8BDE8F0810120DE
:102E000060706088411E618007D22846FFF7B4FFDA
:102E1000103C3046FDF700FEE8E73046FDF7FCFDCC
:102E2000A847E3E73046FDF7F7FDA8470028DDD1C6
:102E30002846FFF7A1FF103CD8E700002817002024
:102E400070B5FDF7E5FD0C4B191D0024012508E0C8
:102E50008A68521C8A604E68B24201D38C604D7001
:102E600010311A8803EB0212121D8A42F0D8BDE815
:102E70007040FDF7D1BD0000281700207FB5024645
:102E8000174D288869880144FFF71AFF0446002C73
:102E900025D02888201A01281BD9601E05EB0011B7
:102EA000091D1022684600F097FC2888211A0A01A3
:102EB00005EB0011401C05EB0010091D001D00F082
:102EC00097FC2888102205EB0010001D694600F0D1
:102ED00083FC2888401C28806888401E68807FBD4D
:102EE0002817002001480068704700003C010020BE
:102EF00070B50A4C208880060BD5FDF789FD054684
:102F0000211D09880648C9B200F0E0FB2846FDF7FC
:102F100083FD208820F02000208070BD0038014013
:102F2000080F002010B586B0044601A8FFF77AF814
:102F30002949086840F480400860086820F480400F
:102F4000086025490831086840F001000860091D43
:102F5000086840F4804008602049086820F4701038
:102F60000860086840F420100860888820F4C06079
:102F70008880886820F470108860886840F4701039
:102F80008860C86820F47010C860486A4862486A5F
:102F900040F4EE60486204981149B0FBF4F00880F8
:102FA000081D018842F20C0211430180018841F49E
:102FB00080710180018841F02001018008494FF6AD
:102FC000BF70083908800321022325220846FEF736
:102FD000B3FD06B010BD00001438024000000240EE
:102FE0000838014070B505460C4604E015F8010BA1
:102FF00000F008F820B1641EE4B2F7D2012070BDE1
:10300000002070BD10B5002144F62062084B00E09E
:10301000491C1C88640601D49142F9D3914204D220
:103020000349091D0880012010BD002010BD0000CB
:10303000003801400120704710B5002404E020460C
:1030400000F008F8641CE4B2FFF7F4FFA042F6D8E1
:1030500010BD0000044900EB800201EB82014968C9
:10306000002900D008477047043B000870B50446AB
:103070000E46802506E006EBC40205EB041008218D
:10308000FFF728F8641EE4B2F5D270BD10B5002435
:1030900004E0204600F008F8641CE4B2FFF7CAFF21
:1030A000A042F6D810BD0000084A4FF0FF3142F8A8
:1030B000301002EBC0020021918001239371D17185
:1030C000802101EB0010082100F08AB9580100208E
:1030D00070B5012408490120FFF7C8FF074D08E03B
:1030E000641EE4B204EB840055F8201009B12046B8
:1030F0008847002CF4D170BD58010020043B000823
:1031000010B50C4681B205480068FDF77DFF201A16
:1031100080B208B1002010BD012010BD900300084E
:103120002DE9F0410746FEF711FA05466C69DFF814
:103130006080C8F800704FF0006612E0FEF712F9E8
:103140002168884206D12046BDE8F041104A04219A
:10315000FEF754BF08F104020C21201DFEF740FFCA
:103160001034D6F89003A042E8D8094A1021103A4A
:103170002869FEF735FFD6F890132869091AFEF77B
:1031800015FF034A1021103A2869FEF737FFCAE7F6
:103190007C18002070B5FEF7D9F90446FDF780FED3
:1031A0000546FEF7DFF80A4908604FF00060D0F8E6
:1031B00090132069091AFEF7F9FE054A10212069CB
:1031C000FEF71CFF2846BDE87040FFF7A9BF0000CE
:1031D0006C180020F0B50022002303700F4C01256D
:1031E00013E0530904EB830302F01F07D3F80760D1
:1031F00005FA07F31E4207D121F8022B03789B1C26
:10320000DBB20370642B03D8521CA3889342E8D826
:10321000007808B10020F0BD0120F0BD2E00002094
:103220002DE9F041134B9C88641E844201D3C829C8
:1032300002D90020BDE8F081440903EB840400F0CA
:103240001F07D4F807600125BD402E420DD14FF075
:1032500000669B79D6F8906300FB0360FEF7CEFE14
:1032600028B154F8070F284320600120E2E700202E
:10327000E0E700002E00002070B54179012901D05F
:103280001E2070BD134C01786170A11CC2880B68B0
:103290005A600B688268DA600B68D0F80D209A607B
:1032A000007B88710A68D268B2FBF0F3B2FBF0F5DC
:1032B00000FB152008B1012000E0002018448880A0
:1032C0000448801C00F008F80128DAD1F1202070B1
:1032D000012070BD2C00002070B50446A079800745
:1032E00001D0212070BD4FF00065D5F89013D5F8BE
:1032F0009403401A2168C968814201D9202070BD19
:103300004FF480720021E01D00F08FFA2068C16840
:10331000D5F89003BDE87040FEF748BE0649087036
:10332000012805D005220021044B0846FFF7DEBC2A
:103330004FF47A72F7E7000036010020FD12000812
:103340000020FFF7EBBF000010B5164A1F214020F8
:10335000FEF7C0FE13484068FEF7C2F9124CB8B140
:10336000AFF21B03002132220846FFF7BFFC207892
:10337000401CC0B22070032813D9AFF23300FFF70E
:10338000FBFCFDF7A5FFBDE81040012000F00EB8E2
:103390002078002805D000202070BDE81040FFF7FD
:1033A00097BE10BD8C180020350100201CB50446C6
:1033B00009A106C9CDE90012FFF700FCFFF766FE80
:1033C000FFF73AFE022C02D16846FFF7E7F801202A
:1033D000FFF7A4FF1CBD00000100F801530000002E
:1033E0002DE9F04105460C46174620E0B5F5004FA3
:1033F00003D247F69C70844202D90020BDE8F081D8
:1034000005F03F00C0F14006A64200D32646F3B2C5
:10341000A9B23A46A020FEF7FAFA50B13544A41BEF
:1034200037446FF07041A020FEF7ACFA08B1002CD1
:10343000DCD134B1002211461046FDF767FF0020B1
:10344000DCE70120DAE72DE9F04105460C46174696
:103450001FE0B5F5004F03D247F69C70844202D9B5
:103460000020BDE8F08105F03F00C0F14006A64213
:1034700000D32646F3B2A9B23A46A020FEF7EDFAF1
:1034800048B13544A41B6FF07041A020FEF77AFAD2
:1034900008B1002CDDD134B1002211461046FDF7F1
:1034A00035FF0020DDE70120DBE7000070B50646B0
:1034B0000C46002C40D0204600F05BF906283BD992
:1034C00006221E49204600F09AF8A060204600F02F
:1034D0008EF8012830D0A0686168801DB0FBF1F241
:1034E00001FB120021680D5C012D1DD90C35FA2D50
:1034F0001AD8204600F03DF9A8421DD3A168A81FA4
:10350000084461680623B0FBF1F201FB12010C4A8A
:10351000204600F051F838B12A463146204600F0E6
:10352000A2F848B1284670BDA0686168801DB0FB54
:10353000F1F201FB1200A060002070BD483A0008C3
:103540004E3A000870B505462846FFF7AFFF04461F
:103550005CB1A81DFDF70BFC38B9AC7E1D342819F1
:103560000622034900F038F9A41D204670BD000072
:103570004E3A000870B5044640F2E63504E0FEF726
:10358000A7FA284600F004F8641E601CF7D170BD4D
:1035900003E00A21491E0029FCD1401E411CF8D13C
:1035A0007047002806D0016042600021C160816040
:1035B0000120704700207047F0B50768002F02D047
:1035C0000AB100240FE00020F0BD46680D19B5FBDC
:1035D000F6FC06FB1C5512F8016B7D5DB54201D06F
:1035E0000020F0BD641C9C42EFD30120F0BDD0E967
:1035F0000210814201D10120704700207047F0B5D0
:10360000002806D029B122B184680023C668456825
:1036100012E00020F0BD076811F803C03F5D674568
:1036200004D15B1C934202D15B1E07E00023641CA3
:10363000B4FBF5F705FB1744A642ECD12819C01AD4
:10364000B0FBF5F105FB1100F0BDC1684268491CF3
:10365000B1FBF2F302FB13118068814201D101201A
:103660007047002070472DE9F04104460F4615468B
:10367000002C0CD02046FFF7BAFF012809D02046C5
:1036800000F077F8A84206D20020BDE8F0810020C3
:10369000FBE70020F9E7D4E901100E1AAE4200D38F
:1036A0002E46216832460144384600F095F8AA1BA0
:1036B000B819216800F090F8A06861682844B0FB50
:1036C000F1F201FB1200A0600120DEE770B50446B4
:1036D0000D46002C11D02046FFF7B7FF01280ED071
:1036E000E16820684554E0686168401CB0FBF1F275
:1036F00001FB1200E060012070BD002070BD0020C1
:1037000070BD2DE9F04104460F461546002C07D048
:10371000204600F022F8A84204D20020BDE8F08143
:103720000020FBE76168E0680E1AAE4200D32E4627
:10373000216832460844394600F04EF8AA1BB919F0
:10374000206800F049F8E06861682844B0FBF1F2B5
:1037500001FB1200E0600120E0E7D0E90212914293
:1037600002D9881A401E704740680844801A401EDB
:103770007047D0E90221914203D240680844801A80
:103780007047881A7047000006220149FFF7B9BF49
:10379000483A0008FDF76EFCFDF76EFBFFF7A0FA54
:1037A000FFF72AFAFDF728FDFFF792FCFEF7F6F97E
:1037B000FFF704FBFAE710B588420BD052B110F8BE
:1037C000013B11F8014BA34201D0012010BD521E54
:1037D000002AF4D1002010BD884208D0002A06D06B
:1037E00011F8013B00F8013B521E002AF8D1704746
:1037F00088420AD2002A07D011F8013B00F8013BA9
:10380000A2F10102002AF7D17047FDD900EB0203B3
:1038100001EB0200002AF7D010F8011D03F8011D8A
:10382000A2F10102002AF7D17047002A04D000F863
:10383000011B521E002AFAD17047000006220149DE
:10384000FFF75FBF4E3A00080000C1C081C14001D0
:1038500001C3C003800241C201C6C006800741C740
:103860000005C1C581C4400401CCC00C800D41CD10
:10387000000FC1CF81CE400E000AC1CA81CB400BE0
:1038800001C9C009800841C801D8C018801941D9B0
:10389000001BC1DB81DA401A001EC1DE81DF401F40
:1038A00001DDC01D801C41DC0014C1D481D5401550
:1038B00001D7C017801641D601D2C012801341D360
:1038C0000011C1D181D0401001F0C030803141F1F0
:1038D0000033C1F381F240320036C1F681F7403740
:1038E00001F5C035803441F4003CC1FC81FD403D10
:1038F00001FFC03F803E41FE01FAC03A803B41FBE0
:103900000039C1F981F840380028C1E881E940292F
:1039100001EBC02B802A41EA01EEC02E802F41EF3F
:10392000002DC1ED81EC402C01E4C024802541E54F
:103930000027C1E781E640260022C1E281E340235F
:1039400001E1C021802041E001A0C060806141A16F
:103950000063C1A381A240620066C1A681A740673F
:1039600001A5C065806441A4006CC1AC81AD406D0F
:1039700001AFC06F806E41AE01AAC06A806B41ABDF
:103980000069C1A981A840680078C1B881B94079AF
:1039900001BBC07B807A41BA01BEC07E807F41BF3F
:1039A000007DC1BD81BC407C01B4C074807541B54F
:1039B0000077C1B781B640760072C1B281B340735F
:1039C00001B1C071807041B00050C19081914051EF
:1039D0000193C053805241920196C056805741973F
:1039E0000055C19581944054019CC05C805D419D0F
:1039F000005FC19F819E405E005AC19A819B405BDF
:103A00000199C059805841980188C048804941892E
:103A1000004BC18B818A404A004EC18E818F404F3E
:103A2000018DC04D804C418C0044C184818540454E
:103A30000187C047804641860182C042804341835E
:103A40000041C18181804040F1F1F1F2F1F1F2F2E7
:103A5000F2F1F2F2C00000000000000000000000DF
:103A6000A9150008C10000000000000000000000CF
:103A700069160008C900000000000000C726000801
:103A800000000000F4000000000000009D26000877
:103A900031160008F500000000000000552600085F
:103AA00000000000F8000000000000009D25000854
:103AB00059150008F002000800040008300400084E
:103AC0003C0400080050000840500008F0020008C4
:103AD00000040008300400083C04000800600008EE
:103AE00040600008F00200080008000830080008E4
:103AF0003C08000800680008406800080500050050
:103B0000050005008D2B00080000000000000000EB
:103B1000543A0008652C000804030207020201025F
:103B200054F139CDE3A3A432483B00080000002043
:103B300068010000300900086C3B000868010020A3
:103B4000A81D00008C09000841800E010203040337
:103B50000406080C101820302915B50607080915A9
:0C3B6000EF016C1802FF20F10227A0000A
:04000005080008F5F2
:0C6004007A01000030750000EF7C040001
:046040005300000009
:020000040800F2
:10640000A02C0020656900086D6900086F6900080C
:1064100071690008736900087569000800000000D0
:106420000000000000000000000000007769000884
:1064300079690008000000007B69000819810008E4
:106440007F6900087F6900087F6900087F6900088C
:106450007F6900087F690008859600087F69000849
:106460007F6900087F6900087F6900087F6900086C
:106470007F6900087F6900087F6900087F6900085C
:106480007F6900087F6900087F6900087F6900084C
:106490007F6900087F6900087F6900087F6900083C
:1064A0007F6900087F6900087F6900087F6900082C
:1064B000039600087F6900087F6900087F6900086B
:1064C0007F6900087F6900087F6900087F6900080C
:1064D0007F690008698200087F6900087F690008F9
:1064E000757A00087F6900087F6900087F690008E5
:1064F0007F69000800F002F800F05AF80AA090E85E
:10650000000C82448344AAF10107DA4501D100F06E
:106510004FF8AFF2090EBAE80F0013F0010F18BFE1
:10652000FB1A43F001031847A4B00000C4B00000F8
:106530000A444FF0000C10F8013B13F0070408BFA9
:1065400010F8014B1D1108BF10F8015B641E05D047
:1065500010F8016B641E01F8016BF9D113F0080FFC
:106560001EBF10F8014BAD1C0C1B09D16D1E58BF8E
:1065700001F801CBFAD505E014F8016B01F8016BC5
:106580006D1EF9D59142D6D3704700000023002438
:1065900000250026103A28BF78C1FBD8520728BF33
:1065A00030C148BF0B6070471FB51FBD10B510BD8F
:1065B00009F028FC1146FFF7F7FF02F0EDF909F0AA
:1065C00046FC03B4FFF7F2FF03BC09F04DFC0000EA
:1065D00072B6704762B6704730BF72B662B680F36B
:1065E0000888704780F310887047EFF3108072B608
:1065F000704700000EB50020029001900090CE4838
:10660000006840F48030CC49086000BFCA48006888
:1066100000F4003001900298401C0290019818B9D3
:106620000298B0F5A04FF1D1C348006800F40030E3
:1066300010B10120019001E0002001900198012893
:106640005AD1BE48006840F00400BC4908600846C2
:10665000006840F0020008600846006840F0010051
:106660000860B5482430006840F08050B2492431B9
:106670000860C814B249086000BFB148406800F023
:1066800010000028F9D1AC4808300068AA49083148
:106690000860084600680860084600680860084608
:1066A000006820F47D0008600846006840F411008E
:1066B0000860A148006840F080709F49086000BFF2
:1066C0009D48006800F000700028F9D09A48083012
:1066D000006820F003009849083108600846006807
:1066E00040F00300086000BF93480830006800F0E5
:1066F0000C000C28F8D187E08F48006820F4803027
:106700008D4908600846006840F0010008600020DC
:10671000029000BF8848006800F0020000900298D4
:10672000401C0290009818B90298B0F5A04FF1D122
:106730008148006800F0020010B10120009001E0E3
:1067400000200090009801285ED17C48006840F04D
:1067500004007A4908600846006840F002000860BA
:106760000846006840F00100086073482430006863
:1067700040F08050704924310860C81470490860A6
:1067800000BF6F48406800F010000028F9D16A4847
:1067900008300068684908310860084600680860E9
:1067A0000846006808600846006820F47D0008601C
:1067B0000846006820F4803008600846006840F40D
:1067C000080008605C48006840F080705A49086022
:1067D00000BF5948006800F000700028F9D0564802
:1067E0000830006820F0030053490831086008466B
:1067F000006840F00300086000BF4F4808300068A0
:1068000000F00C000C28F8D10EBD10B54A48006805
:1068100040F480704849086047480830006849499A
:106820000840454908310860434800684649084027
:10683000414908600846006820F4802008603E480E
:106840000830006820F47D003B49083108600020D2
:10685000091D0860FFF7CEFE3C4800683C4908600F
:1068600010BD2DE9F04105460A460026002300240C
:106870009C460027002130480830006800F00C06D4
:1068800036B1042E11D0082E11D00C2E38D110E0C4
:106890002948001D0068C0F34237781C4FF00108FA
:1068A00008FA00F84FEAC83137E02A4935E02A49AA
:1068B00033E021480830006800F470131E480830A7
:1068C000006800F44004254800EB93400378012061
:1068D00000EB945418480830006800F4803CBCF188
:1068E000000F06D11B485843B0FBF4F10020107094
:1068F00005E019485843B0FBF4F1012010700CE09A
:106900000D48001D0068C0F34237781C4FF00108A5
:1069100008FA00F84FEAC83100BF00BF0648083047
:106920000068C0F30310DFF8388018F80060F14009
:1069300029600120BDE8F08100380240003C02409F
:10694000007000400CC0FF88FEFFFEEE90030008C0
:1069500008ED00E00024F40000127A00000000209E
:10696000090000200948804709480047FEE7FEE784
:10697000FEE7FEE7FEE7FEE7FEE7FEE7FEE7FEE7EF
:1069800004480549034A054B704700000B6800089E
:10699000F5640008A0200020A02C0020A0200020EA
:1069A000704700004A48006800F0010028B14948DB
:1069B00047490831086048480860704700B54448B6
:1069C000006800F0020038B1FFF7ECFF434840498F
:1069D0000C3108604248086000BD3D48006840F046
:1069E00002003B490860704739481430006800F0E5
:1069F000020028B102203649143108600120704796
:106A00000020FCE7014600E0491E31B13048143057
:106A1000006800F001000028F6D109B90320704792
:106A20002B481430006800F4F85030B14FF4F8509F
:106A3000274A143210600120F1E70020EFE770B51B
:106A400004464FF40050FFF7DDFF0546E5B9204846
:106A5000006840F400701E4908600846006840F075
:106A600008000860002020604FF40050FFF7CAFFC4
:106A700005461748006820F00800154908600846D8
:106A8000006820F40070086015B9FFF7ADFF70BD15
:106A90000020FCE770B505460C4616464FF4405002
:106AA000FFF7B0FF70B90AE030682860361D2D1D71
:106AB000241F4FF44050FFF7A5FF00B101E0002C68
:106AC000F2DC00BF0CB9012070BD0020FCE7000023
:106AD000043C0240EFCDAB8905040302BFAE9D8CA0
:106AE00016151413F0B504460B46494D05EB8420EA
:106AF000484D2D680126A6403543464E356000219D
:106B000035E003F0010585B305684F000326BE405C
:106B1000B5430560868801258D40AE438680856833
:106B20004F000326BE40B5438560C5684F0003266D
:106B3000BE40B543C56095094E00B5400668354373
:106B400005608688C2F300158D402E4386808568D7
:106B50004F00C2F38106BE403543856002F0030555
:106B60004E00B540C6683543C5605B10491C002B1C
:106B7000C7DCF0BDF0B503461446254D05EB832276
:106B8000002022E001F00105EDB1C60802F1200568
:106B900055F826504607F70E0F26BE40B543C708E6
:106BA00002F1200646F82750C60802F1200555F8E4
:106BB00026504607F60E04FA06F63543C70802F1DA
:106BC000200646F827504910401C0029DADCF0BDA9
:106BD00002460B460E4800EB8221888A18438882C1
:106BE000888A70470A4B03EB8022938A8B439382F7
:106BF0007047074B03EB8022938A4B409382704788
:106C00000246034800EB8223188A084070470000C0
:106C1000000002401C380240002107E0052101E08D
:106C20004A1E91B20029FBDC421E90B20028F5DC1E
:106C3000704710B54D224FF440710120FFF752FF0D
:106C40004FF440710120FFF7C3FF10BD10B54FF4A2
:106C500000710120FFF7BCFF4FF480710120FFF7A6
:106C6000B7FF0220FFF7D8FF4FF400710120FFF7B4
:106C7000B9FF0220FFF7D0FF4FF480710120FFF72A
:106C8000B1FF10BD10B54FF400710120FFF7AAFF4E
:106C90000220FFF7C1FF4FF480710120FFF798FF3A
:106CA0000220FFF7B9FF4FF400710120FFF790FFBA
:106CB0000220FFF7B1FF10BD10B504464FF48071FC
:106CC0000120FFF78FFF0220FFF7A6FF2CB14FF442
:106CD00000710120FFF77CFF04E04FF400710120F8
:106CE000FFF780FF0220FFF797FF4FF4807101202C
:106CF000FFF76EFF0220FFF78FFF4FF48071012036
:106D0000FFF770FF10BD10B500240122510210469C
:106D1000FFF7E8FE4FF400710120FFF759FF022052
:106D2000FFF77AFF4FF480710120FFF751FF022037
:106D3000FFF772FF12E0601C80B20446B0F5FA7FE4
:106D40000CDD4D224FF400710120FFF7CBFE4FF414
:106D500000710120FFF73CFF002010BD4FF40071CF
:106D60000120FFF74DFF0028E5D14FF4807101208D
:106D7000FFF738FF0220FFF74FFF4D224FF400715D
:106D80000120FFF7AFFE4FF400710120FFF720FF55
:106D90000220FFF741FF0120DFE770B504464FF402
:106DA00080710120FFF71EFF0220FFF735FF00254D
:106DB00024E004F0800028B14FF400710120FFF7B7
:106DC00007FF04E04FF400710120FFF70BFF60069E
:106DD000040E0220FFF720FF4FF480710120FFF71F
:106DE000F7FE0220FFF718FF4FF480710120FFF734
:106DF000F9FE0220FFF710FF681CC5B2082DD8DB92
:106E0000FFF781FF70BD70B50646002401225102D4
:106E10001046FFF767FE4FF400710120FFF7D8FE20
:106E200000251EE04FF480710120FFF7DBFE0220F9
:106E3000FFF7F2FE4FF480710120FFF7C9FE022038
:106E4000FFF7EAFE6006040E4FF400710120FFF721
:106E5000D7FE08B1601CC4B20220FFF7DDFE681C3B
:106E6000C5B2082DDEDB4FF480710120FFF7BAFEBA
:106E70000220FFF7D1FE4D224FF400710120FFF7F1
:106E800031FE4FF400710120FFF7A2FE0220FFF750
:106E9000C3FE3046FFF710FF204670BD70B50546B3
:106EA0000C4600BFFFF7D2FE2846FFF776FF10B969
:106EB000601E041EF6D1FFF7E5FE0CB1012070BD87
:106EC0000020FCE72DE9F04107460E4615461C461A
:106ED000FFF7BCFE3846FFF760FFF0B13012FFF756
:106EE0005CFFD0B1F0B2FFF758FFB0B1FFF7AEFED4
:106EF00047F00100FFF751FF78B106E00020FFF7EF
:106F000082FF05F8010B601EC4B2012CF6DC601E86
:106F1000C4B20120FFF777FF2870FFF7B3FE14B962
:106F20000120BDE8F0810020FBE72DE9F041074694
:106F30000D4616461C46FFF789FE3846FFF72DFF23
:106F400098B12812FFF729FF78B1E8B2FFF725FFC3
:106F500058B107E016F8010BFFF71FFF00B903E077
:106F6000601EC4B2002CF5DC00BFFFF78BFE14B925
:106F70000120BDE8F0810020FBE72DE9F041074644
:106F80000D4616461C46FFF761FE3846FFF705FF23
:106F900090B12812FFF701FF70B1E8B2FFF7FDFED4
:106FA00050B106E03046FFF7F8FE00B903E0601E7E
:106FB000C4B2002CF6DC00BFFFF764FE14B9012058
:106FC000BDE8F0810020FBE710B504210020FFF7A9
:106FD000FFFD10BD10B504210020FFF703FE0F4B8D
:106FE00002220021084605F0DFF810BD10B544224A
:106FF00004210020FFF776FDAFF22703FA221021CB
:10700000012005F0D1F810BD10B5AFF237036422AE
:107010001421012005F0C8F810BD0000C96F000858
:1070200070B505460C464FF480707D490860FFF747
:10703000C5FC03E0A4F5807405F580752846FFF7CC
:10704000FEFC012802D1B4F5807FF3D8FFF7C5FC20
:10705000B4F5807F01D8012070BD0020FCE72DE948
:10706000F04106460C46174604F0030010B124F028
:107070000304241DFFF7A2FC3A4621463046FFF7E1
:1070800009FD0546FFF7A9FC2846BDE8F081034647
:1070900004E018681060121D1B1D091F0029F8D19B
:1070A000012070472DE9F04FC1B080460D46924651
:1070B00005F0030010B125F003052D1DFFF77EFC40
:1070C000B8F1006F02D35748804503D3002041B088
:1070D000BDE8F08FA8F1006B4FEA1B260BF0FF090B
:1070E000C9F58074A54200D8ACB249E04FF0006108
:1070F00001EB06206A46C914FFF7C9FF002707E025
:1071000009EB07001DF8000000B103E0781C87B20E
:10711000A742F5DB00BFA7421CDA4FF0006101EB8C
:107120000620FFF78CFC4090002707E01AF80700C4
:1071300007EB09010DF80100781C87B2A742F5DBC7
:107140004FF0006101EB06206A46C914FFF7A2FC6C
:10715000409005E0524621464046FFF79BFC409098
:10716000A54200D10DE0761C4FF00009A244A044D6
:107170002D1BB5F5807F02D94FF4807400E0ACB2CE
:10718000B4E700BFFFF729FC4098A0E71CB52649EB
:1071900003C9CDE900012548006840F48050234927
:1071A00008602348806840F0010021498860084653
:1071B000007940F0FF0008711E4800681E498842AF
:1071C0001AD01C49083908681949896841F0010139
:1071D000174A91601949096D11601849496D11608C
:1071E0001649496E116011460860096801916A46A6
:1071F00008211048FFF756FF1CBD1049096D0160BA
:107200000E49496D41600D49496E8160704700200B
:1072100070474FF48070704708484C3000887047C2
:10722000183C024000000608880401081C3802408F
:10723000003002403C040008A542BD5A0000F81F7F
:1072400008B1012100E00021FE4A11707047FE489C
:107250007047FE480078704770B505460C464FF4FD
:1072600080510120FFF7BEFC284600F0B7FC204605
:1072700000F0B4FC06464FF480510120FFF7A8FC53
:10728000304670BD10B5F248006820F48060F049C7
:1072900008604422C9140120FFF724FC44224FF463
:1072A00080510120FFF71EFC00224FF48061012075
:1072B000FFF718FC002202210120FFF713FC4FF416
:1072C00080610120FFF784FC02210120FFF780FC90
:1072D00044224FF400710220FFF704FC4FF40071C8
:1072E0000220FFF775FC00F0A4FC042000F0E8FC8D
:1072F00010BD0120D7490870704710B505218720BF
:10730000FFF7AAFF02218E20FFF7A6FF02218820A7
:10731000FFF7A2FF00218820FFF79EFF13218520A1
:10732000FFF79AFF80218620FFF796FF00210320B8
:10733000FFF792FF00210420FFF78EFFC44800688A
:1073400040F48060C249086010BD10B5C0480068B4
:1073500020F48060BE49086000218E20FFF77CFF8A
:1073600001218720FFF778FF00218520FFF774FFB8
:1073700000218620FFF770FF00210320FFF76CFF3C
:1073800000210420FFF768FF022003F017FE10BD64
:1073900010B50446B04A2146022003F0D1FE10BDCC
:1073A00010B500212620FFF757FF0446AB480078B0
:1073B000A04203DAA9480078201A02E0A748007822
:1073C000001B08284EDA6410A448007804EB600023
:1073D000A24908700846C078401CC0B2C870142882
:1073E00060DD084600780A2803DB08460078DC28C0
:1073F00003DD0420FFF7CCFF30E09848007814301C
:107400009249087008460178A720FFF725FF9448A5
:107410000068F8B100F075FE91490968884205D20C
:1074200000F06FFE8E490968081A04E000F069FE5A
:107430008B490968401A8B49884206D20420FFF71D
:10744000A7FF00208649086008E000F05AFE844942
:10745000086003E000F055FE814908600020824981
:10746000086010BD7D484078A04203DA7B48407830
:10747000201A02E079484078001B32280DDA77485C
:107480008078401CC0B27549887004280ADD08461F
:1074900004700020C870887004E0704844700020B8
:1074A0006E49887070480068401C6F490860B0F5EC
:1074B000167F06D9002008600420FFF769FF00202E
:1074C000CFE70120CDE710B5FFF7DCFE4FF4805188
:1074D0000120FFF77DFB4FF400610120FFF778FBEF
:1074E000022003F06BFD4FF400610120FFF77AFBEF
:1074F000322003F063FD00210320FFF7ADFE0021E1
:107500000420FFF7A9FE80218720FFF7A5FE0220B7
:1075100003F054FD00218720FFF79EFE0021852007
:10752000FFF79AFE00218620FFF796FE0021032038
:10753000FFF792FE00210420FFF78EFE79218920BB
:10754000FFF78AFE06218A20FFF786FEEA218B20BC
:10755000FFF782FEEA218C20FFF77EFEFC218D20C2
:10756000FFF77AFE00218E20FFF776FE3F48017874
:107570009C20FFF771FE3D4841789D20FFF76CFE8F
:107580003A4881789E20FFF767FE3848C1789F20EF
:10759000FFF762FE35480179A020FFF75DFE334812
:1075A0004179A120FFF758FE30488179A220FFF7EA
:1075B00053FE2E48C179A320FFF74EFE2B48017AD7
:1075C000A420FFF749FE2948417AA520FFF744FE91
:1075D0002648817AAA20FFF73FFEAC21B020FFF7B2
:1075E0003BFE0021B220FFF737FE0221B320FFF758
:1075F00033FE1021B420FFF72FFE2821B520FFF71E
:107600002BFE2D21B620FFF727FED421B720FFF750
:1076100023FE0021B820FFF71FFE0021B920FFF74D
:107620001BFE4221BA20FFF717FE4521BB20FFF7C2
:1076300013FE5321BC20FFF70FFE5421BD20FFF79E
:107640000BFE15E01F000020CC0200201E000020D1
:10765000000401401D000020C7740008280000201D
:1076600030000020A06806002C00002090040108D3
:107670004221BF20FFF7F0FD4521C020FFF7ECFDC0
:107680005321C120FFF7E8FD5421C220FFF7E4FD9C
:10769000FF21C320FFF7E0FDFF21C420FFF7DCFD41
:1076A000FF21C520FFF7D8FDFF21C620FFF7D4FD3D
:1076B000FE48C17AD820FFF7CFFDFC48017BE920C6
:1076C000FFF7CAFDF948417BEE20FFF7C5FDF748FB
:1076D000817BEF20FFF7C0FDF448C17BF020FFF76E
:1076E000BBFDF248017CF120FFF7B6FDEF48417C7D
:1076F000F220FFF7B1FD5221F520FFF7ADFD04F0B8
:10770000EDFF493800EB80004006040E2146F920C9
:10771000FFF7A2FD0A21FA20FFF79EFD0021F320CA
:10772000FFF79AFD0021F420FFF796FDDF48C17CAA
:10773000F620FFF791FDDD48017DF720FFF78CFD76
:107740000721ED20FFF788FDD9480178A720FFF732
:1077500083FDD84B4FF4C8720021032004F024FDB0
:107760001E21FC20FFF778FD0C21FD20FFF774FDA2
:107770003221FE20FFF770FD01220A21104600F0A1
:10778000F3FA022328220021184600F0CBFACA4857
:10779000006820F48060C8490860FFF7D6FDFFF755
:1077A000ACFDFFF7A6FD10BD10B503218820FFF743
:1077B00053FD08218820FFF74FFD01218E20FFF7A0
:1077C0004BFD10BD2DE9F04106460C4690460025C4
:1077D000FFF7BBFDFFF7E8FF2146BE20FFF73CFDAA
:1077E0001DE04FF4805503E0142003F0DBFB6D1E19
:1077F00000210320FFF730FD00F0200008B9002D24
:10780000F2D1002707E016F8011BFF20FFF724FD47
:10781000601EC4B27F1C322F01D2002CF3D1002C89
:10782000DFD109218720FFF717FD4FF4C87003F05F
:10783000B9FB4FF4805506E0681E051E03D10420F5
:10784000FFF7A6FD08E000210320FFF705FD00F08B
:10785000040008B9002DEFD100BFFFF776FDFFF758
:107860004CFDBDE8F0812DE9F04105460F462C4660
:1078700004F11206322F2FDC204606F004F910B175
:107880000020BDE8F081E07CB2280FD1F078BB2861
:107890000CD105F0B0FEE168884207D13079642848
:1078A00004DA864801783079854A115405F0A3FE40
:1078B000E16888420AD005F0A1FE8046804810F8B1
:1078C0000800401C7E4901F8080000BF207D1730E9
:1078D000C1B2204606F0AFF80120D2E72DE9F04F03
:1078E00091B080460F464FF000094FF0010AB1E019
:1078F0004846411C01F0FF09052806DD0520FFF779
:1079000047FD00206F490870ACE000210320FFF71D
:10791000A3FC044600210420FFF79EFC054605F069
:10792000800028B100212620FFF796FC63490870EB
:1079300004F0010018B100206249087092E004F0E0
:10794000100020B35F48007818B9404603F094F95E
:10795000824600260BE000217F20FFF77DFC834656
:107960005946404603F0D5FC8246701CC6B2322E02
:10797000F1DB54480078CD2803DD00205149087020
:1079800070E05048007832304E49087000BF04F073
:10799000020000285ED000214B20FFF75DFC04466A
:1079A00011E000217F20FFF757FC46490978322279
:1079B00091FBF2F302FB131101AA505441480078E5
:1079C000401C404908703F480078A042E9DB172C72
:1079D0002EDB3D48007860B1214601A8FFF743FF48
:1079E00038B9002037490870FFF787FC11B0BDE8AF
:1079F000F08F322C03DC404603F03EF98246322001
:107A000094FBF0F100FB114028B1322094FBF0F11F
:107A100000FB114000E032200646324601A94046F4
:107A200003F004FC8246404603F02EF9824606E04D
:107A3000224601A9384603F0A0F900F0FF0A002011
:107A400020490870BAF1000F04D10022032102205E
:107A500003F076FB4FF480610120FFF7D1F8002896
:107A60003FF446AF00BF1748007808B9FFF745FC60
:107A700000BFBBE710B515491548FFF72FFF4FF4BE
:107A800080600D491431086010BD10B504461148DE
:107A9000008850B9082C00D3012400F032FB0E49B5
:107AA00031F81410B0FBF1F218E01CE0900401086A
:107AB0001E000020A1730008000401401C000020EB
:107AC000CC020020200000201F000020F00D00202C
:107AD000B003002026000020A604010801FB1200CC
:107AE000801C3149088002210120FFF789F8F0B994
:107AF0002D480088401E80B22B49088070BB2B485F
:107B00000088401C80B229490880642808DD0020D4
:107B10000880274B4FF4C8720021032004F044FB77
:107B200000202149088023490880012010BD002041
:107B30001D4908801D4908801E480088401C80B2ED
:107B40001C490880B0F57A7F08DD00200880184BBA
:107B50004FF4C8720021032004F026FB0020E5E763
:107B600070B506460C46154613480078012819D111
:107B70002846FFF78AFFA8B100200F4908700F4B75
:107B8000C8220021084604F00FFB172C03DBB61DAA
:107B9000A4F10C00C4B22A4621463046FFF712FE7B
:107BA000012070BD0020FCE72600002024000020FA
:107BB000A1730008220000201D000020F3720008BD
:107BC00010B585224FF460410120FEF78BFF05229E
:107BD0004FF460410120FEF7CDFF10BD01460022A9
:107BE00008E01046531C9AB24FF6FE73984201DB30
:107BF000002070473D48008800F002000028F0D0C7
:107C00003A48001D0180002208E01046531C9AB239
:107C10004FF6FE73984201DB0020EAE73348008804
:107C200000F001000028F0D03048001D0088C0B2EC
:107C3000DFE710B52E48006840F480402C4908600A
:107C40000846006820F48040086029480C3000682D
:107C500040F4804026490C3108602548001D00682A
:107C600040F002002249091D0860FFF7A9FF1F48E4
:107C7000083800881D49083908800846008840F403
:107C8000007008800846008840F48070088008462C
:107C9000008840F0040008800846008808800846F4
:107CA000008840F0080008800846008808800846E0
:107CB000008840F040000880FF20FFF78FFF10BDD4
:107CC00000F0070009490839098821F03801074AFE
:107CD000083A11801146098841EAC0011180114615
:107CE000098841F0400111807047000008380040C9
:107CF00018380240A44A0A400243A44B1A60704755
:107D00000146072323EA01021202A04B1B1D18683B
:107D10004FF6FF0318409E4B184310439B4B1B1D0F
:107D2000186070472DE9F0410746884614461D4605
:107D300000262846FFF7E4FFC5F1040007FA00F625
:107D40000F20284100EA08000643360191480655F5
:107D500004F01F01012088406111890001F1E02138
:107D6000C1F80001BDE8F08170B504460B46CE179E
:107D700001EB9676C6F38700CE1701EB9676B61028
:107D8000A1EB8606B606350E834B1B6843F0010354
:107D9000814E3360814B53F820300F26AE40B34301
:107DA0007E4E46F82030334653F8203004FA05F66C
:107DB0001E437A4B43F82060794B1B6801268E40A6
:107DC0003343774E336002F0010343B1744B0C33FD
:107DD0001B6801268E403343714E0C36336002F02F
:107DE000020343B16E4B08331E6801238B401E43D0
:107DF0006B4B08331E6070BD00206749083908606E
:107E0000091F086014206449091F08600020091D2B
:107E10000860091D086060482038006840F00100D3
:107E20005D49203908605C48183800685D490840A1
:107E30005949183908605848203800685A4908409C
:107E40005549203908600846006820F48020086001
:107E500051481838006820F4FE004F49183908606E
:107E60000020091D0860704710B5484808300068B8
:107E700040F004004549083108604748001D00688B
:107E800040F080504449091D08604848406840F46B
:107E90008070464948600846006840F00400086069
:107EA0000846006840F002000860FEF795FB10BD30
:107EB0003748001D3549091D0860704701464906CD
:107EC000354A126842F00102334B1A60704700B520
:107ED00002460023FFF790FF2F482038006840F447
:107EE00080302D492039086000BF2B4820380068B9
:107EF000400C0028F9D04FF48060274918390860F9
:107F0000901EC2B20846006840EA824008600846F7
:107F1000006840F4803008602548006840F0320076
:107F2000234908601C482038006840F080701A49D6
:107F30002039086000BF184820380068400E00282B
:107F4000F9D015481838006840F002001249183975
:107F5000086006E0104818380068C0F3870303F093
:107F60000303022BF6D100BD70B5044625462068F8
:107F700010490840B0F1005F04D12868FEF72FFBDC
:107F80006868804770BD000080FFFF1F08ED00E0BB
:107F90000000FA0500E400E020380240080001403B
:107FA000000401400000FFF8FFFFF6FE00700040F3
:107FB000003C02400000FE2F10B505F0ABFD00F0C4
:107FC0007FF8FFF7E3F8FEF734FEFFF77CFA10BD09
:107FD000014636480068364A90422DD13348001D8C
:107FE0000068B0F1FF3F27D03048001D006818B38B
:107FF0002E48001D0068B0F1443F1DD02B48001DE5
:108000000068B0F1883F17D02848001D0068294A51
:10801000904211D02548001D0068244A0832126899
:10802000D243904208D12148001D006888420AD0FE
:108030001E48001D006870471F48406E884202D0ED
:108040001D48406EF7E70020F5E71848006818491A
:10805000884229D11548001D0068B0F1FF3F23D0A8
:108060001248001D0068F8B11048001D0068B0F10A
:10807000443F19D00D48001D0068B0F1883F13D06F
:108080000A48001D00680B4988420DD00748001DB2
:108090000068064908310968C943884204D1034889
:1080A000001D006805494860704700003004000862
:1080B0005A3CC3A5424553540000F81F50140020F9
:1080C0001CB500200190FF200090694601A8FEF732
:1080D000C8FB4FF0E020006920F004004FF0E021E1
:1080E00008614FF4FA510198B0FBF1F04FF0E02134
:1080F0004861002088610320086100200F49086062
:108100001CBD0E48006870470C4800680C490860A8
:1081100070470B480068704710B508480068094967
:10812000B0FBF1F201FB1200044908600846006848
:10813000401C086004F044F910BD00003400002029
:10814000380000200084D71710B5012280210220BA
:10815000FEF7C8FC80210220FEF73AFD002001490D
:10816000086010BD3C00002070B505460C4646482E
:10817000006840F48040444908600846006820F4E4
:108180008040086040480830006840F001003E49E7
:1081900008310860081D006840F48040091D08602F
:1081A0008C2249150020FEF79DFC8C224FF4806143
:1081B0000020FEF797FC07224FF4C0610020FEF775
:1081C000D9FC32486843B0FBF4F031490880081DFF
:1081D000008842F20C0108432D49091D0880084619
:1081E000008840F4807008800846008840F0200035
:1081F00008804FF6BF7026490839088002232522DF
:1082000003210846FFF78EFD70BD0246002100E005
:10821000491C1F480838008800F0400018B944F68F
:1082200020608142F4D344F62060814204D2184891
:10823000001F0280012070470020FCE770B5044653
:108240000D46164609E014F8010BFFF7DEFF20B9D2
:108250004FF4E1312020FFF787FF281EA5F101012F
:10826000CDB2F0D1012070BD10B5094808380088A2
:1082700000F0200030B10648001F0088C1B2054858
:1082800003F047F810BD00001438024040420F00D0
:1082900008380140B003002070477047704701461E
:1082A0001220704710B5402210210020FEF71AFC62
:1082B00010210020FEF78CFC002220211046FEF742
:1082C00011FC002240211046FEF70CFCC0220221C6
:1082D0000020FEF707FC10BD10B510210020FEF7AE
:1082E00077FC10BD10B510210020FEF77BFC10BDFF
:1082F00010B500245E48006840F001005C49086049
:10830000FFF7D0FF05E0601C0446B0F57A7F00D986
:1083100005E05748006800F002000028F3D000BFD5
:1083200053482030006840F4007051492031086003
:108330004F481430006840F400704D491431086013
:108340000846006820F4007008604A4800684A49FE
:108350000840484908600846006808600846006808
:108360000860081D0068454908404249091D086029
:10837000084600680860084600680860084600680B
:1083800008600846006808603A482C30006839499F
:108390002C31086037483C30006820F01F00354918
:1083A0003C3108600846006840F001000860314830
:1083B000001D006840F001002E49091D086010BD35
:1083C000014600222B48001D006840F08040294BE8
:1083D0001B1D186007E0501C80B20246B0F5FA6F12
:1083E00001DD002070472348001F006800F00200F4
:1083F0000028F0D01F485430006808800120F1E7C1
:10840000F8B504460D460026002000901948001DCE
:10841000006840F001001749091D0860002718E0B6
:108420006846FFF7CDFF012807D1BDF800000644DC
:108430004FF4FA7002F0B6FD09E00E48001D006826
:1084400020F001000B49091D08600020F8BD781CD0
:10845000C7B2A742E4DBB6FBF4F028800548001D54
:10846000006820F001000349091D08600120EDE7C4
:108470000038024004240140FFFEFFFCFDF7FFC06E
:1084800038B50446002000900025FFF725FF694617
:108490000A20FFF7B5FF01280CD1BDF8000040F21B
:1084A000393100FB01F5C5F34F202080FFF71AFF9B
:1084B000012038BDFFF716FF0020FAE7F8B50546A2
:1084C00000200090002400266846FFF7D9FF01280D
:1084D0006FD19D480088BDF80010884201DC6426F9
:1084E00004E199484088BDF80010884213DC9648A2
:1084F000008895494988401A0A2190FBF1F0924979
:108500004988BDF80020511A91FBF0F0C4B204F183
:108510005A00C6B2EAE08C488088BDF80010884254
:1085200013DC8948408888498988401A0A2190FBD1
:10853000F1F085498988BDF80020511A91FBF0F0CF
:10854000C4B204F15000C6B2D0E07F48C088BDF884
:108550000010884213DC7C4880887B49C988401A17
:108560000A2190FBF1F07849C988BDF80020511A22
:1085700091FBF0F0C4B204F14600C6B2B6E0724816
:108580000089BDF80010884214DC6F48C0886E492D
:108590000989401A0A2190FBF1F06B490989BDF85D
:1085A0000020511A91FBF0F0C4B204F13C00C6B2B5
:1085B0009CE0C1E064484089BDF80010884213DCAB
:1085C0006148008960494989401A0A2190FBF1F00D
:1085D0005D494989BDF80020511A91FBF0F0C4B201
:1085E00004F13200C6B281E057488089BDF800101E
:1085F000884213DC5448408953498989401A0A212A
:1086000090FBF1F050498989BDF80020511A91FB87
:10861000F0F0C4B204F12800C6B267E04A48C0894D
:10862000BDF80010884213DC474880894649C98953
:10863000401A0A2190FBF1F04349C989BDF8002096
:10864000511A91FBF0F0C4B204F11E00C6B24DE025
:108650003D48008ABDF80010884213DC3A48C089C2
:108660003949098A401A0A2190FBF1F03649098AF2
:10867000BDF80020511A91FBF0F0C4B204F11400CF
:10868000C6B233E03048408ABDF80010884213DC9F
:108690002D48008A2C49498A401A0A2190FBF1F0A2
:1086A0002949498ABDF80020511A91FBF0F0C4B263
:1086B00004F10A00C6B219E02348808ABDF8001010
:1086C000884212DC2048408A1F49898A401A0A21C0
:1086D00090FBF1F01C49898ABDF80020511A91FBEA
:1086E000F0F0C4B2601CC6B200E001262E7017483C
:1086F0000078502803DD0420154908701AE013485B
:1087000000783C2803DD03201149087012E00F486F
:108710000078282803DD02200D4908700AE00B4884
:108720000078142803DD01200949087002E00020C8
:10873000074908700120F8BDFF2028700020044977
:10874000087000BFF7E70000AE04010840000020F9
:108750004100002000B58DB0302101A807F028FBB2
:108760002F48007850BB20210020FEF749FA20B99D
:1087700040210020FEF744FA40B12A481023082285
:10878000002100900C2000F05FFC05E00023202277
:1087900019460C2000F006FD23480078C0EBC0010C
:1087A00001EB00101F49E63901EB400010231722AE
:1087B000002100900D2000F047FC0DE00023202256
:1087C00019460C2000F0EEFC01A81023172200210E
:1087D00000900D2000F038FC0DB000BD10B513481E
:1087E000007808B9FFF7B6FF10BD10B5FFF780FDA0
:1087F0000F48FFF763FE10BD70B506460C461546E0
:108800000B48FFF75BFE012805D109480078287066
:108810000120207070BD1220FCE703460120704744
:1088200042000020AA0D0108410000207401002030
:108830004000002010B5022201210020FEF752F96D
:1088400010BD002048490880704710B50121002064
:10885000FEF7D6F9012801D1FFF7F3FF10BD10B5DF
:1088600000204FF0E0210861282000F01F020121C4
